:1000000027C1000056C1000054C1000052C10000C9
:1000100050C100004EC100004CC100004AC10000A8
:1000200048C1000051C500004FC500004DC500008B
:1000300040C100003EC100003CC100003AC10000C8
:1000400038C1000036C1000034C1000032C10000D8
:1000500030C100002EC100002CC100000C940A1415
:1000600028C100000C94040D0C94DB0C22C100008C
:1000700020C100001EC100001CC100001AC1000008
:1000800018C1000016C1000014C1000012C1000018
:100090000C94B20C0C94890C0CC10000E4C3000059
:1000A00008C1000006C1000004C1000002C1000038
:1000B00000C10000FEC00000FCC00000FAC000004B
:1000C000F8C00000F6C00000F4C000000C94600C02
:1000D0000C94370CEEC000000C940E0C0C94E50B45
:1000E000E8C00000D131D131F231F231AA28EA3131
:1000F0000332033203320332033203320332033258
:10010000D131F231CD28CD286A326A329D32DE32C9
:100110000629062906290629062906290629062967
:10012000ED323E3377137A1369136D137113B113E4
:100130007E13821388138C13901396139A139E13B5
:10014000B113A413A813AC1300002100240027004E
:100150002A002D00300033000101000004010701D6
:100160000A0100002200250028002B002E0031008B
:10017000340002010000050108010B010505050519
:10018000070508080808020202020A0A080804040F
:10019000040401010101010101010303030303033D
:1001A0000303040707070C0C0C0C0C0C0C0C0202CC
:1001B000020206060606060606060B0B0B0B0B0BC9
:1001C0000B0B010210202008081020401020408056
:1001D000020102010804020101020408102040800B
:1001E0008040201008040201800402018040201099
:1001F00008040201080402010102040810204080E2
:10020000010204081020408000000A0B02090C0DB6
:100210000E080703040100000000000000000000B9
:1002200000000000000000000000000000000000CE
:10023000000000001211100000000000000000008B
:100240000000000000000000000000000000541446
:1002500011241FBECFEFD1E2DEBFCDBF00E00CBF47
:1002600015E0A0E0B2E0EAE8F5E700E00BBF02C06D
:1002700007900D92AE37B107D9F724E1AEE7B5E0AC
:1002800001C01D92A03DB207E1F711E0C8E2D1E044
:1002900000E006C021970109802FFE010E949D38D1
:1002A000C732D10780E00807A9F70E9450230C94B9
:1002B000C33AA6CE85ED8093BC008091BC0084FD3E
:1002C000FCCF10925511089540919A12262F30E0DC
:1002D000240F311D21323105DCF4209155112430D9
:1002E000C9F4FC0180E090E0861758F430919A122E
:1002F0002191DC01A658BD4EA30FB11D2C93019690
:10030000F3CF80919A12680F60939A1280E008955B
:1003100081E0089582E00895089508950895E09198
:100320002E1180912D11E81730F4F0E0E65AFD4EC1
:10033000808190E008958FEF9FEF089590912E11A6
:1003400080912D11981750F4E92FF0E0E65AFD4EF8
:10035000208130E09F5F90932E1102C02FEF3FEF7E
:10036000C901089580912D1190E020912E11821BDA
:1003700091090895CF92DF92EF92FF920F931F930E
:10038000CF93DF937C01CB018A0120917811222346
:1003900089F0EB016B01C40ED51ECC15DD0561F0B3
:1003A0006991D701ED91FC910190F081E02DC70199
:1003B0001995F3CF642F88DFC801DF91CF911F918A
:1003C0000F91FF90EF90DF90CF900895CF93DF9340
:1003D0001F92CDB7DEB76983209178112223D1F027
:1003E00020917611203240F021E030E0FC0133838F
:1003F000228380E090E014C080917711E82FF0E034
:10040000EA5AFE4E998190838F5F80937711809393
:10041000761104C061E0CE01019656DF81E090E0E4
:100420000F90DF91CF910895089580E090E00895B6
:100430008F929F92AF92BF92CF92DF92EF92FF92F4
:10044000CF93DF93FC01C080D180E280F380FB0179
:1004500080809180A280B380A5019401C701B6017C
:100460000E94823818166CF0D1E0C0E0A50194011A
:10047000C701B6010E94263687FFD0E08D2F9C2F42
:1004800002C08FEF9FEFDF91CF91FF90EF90DF9051
:10049000CF90BF90AF909F908F9008958EBD000039
:1004A0000DB407FEFDCF8EB508958FEFF7CFCF9334
:1004B000DF93EC018EE795E092D6892B21F08EE751
:1004C00095E06BD6F7CFCE010E94B211BE018EE748
:1004D00095E00E9409116FEF8EE795E0D2D66FEF9D
:1004E0008EE795E0CED66FEF8EE795E0DF91CF9166
:1004F000C8C68F929F92AF92BF92CF92DF92EF9237
:10050000FF920F931F93CF93DF93CDB7DEB7609722
:100510000FB6F894DEBF0FBECDBF7C016B01490161
:100520005A018E010F5F1F4F8AE0F80111928A95E0
:10053000E9F71C861B861E861D86188A1F8660E0CA
:1005400070E0CE010B960E94BE0B2B853C8581117D
:100550000DC02115310519F0C9010E943D391C86D5
:100560001B86188A1F861E861D8607C0188A1F864E
:1005700062E475E0C9010E94BC3A4AE0B801C401D6
:100580000E94FD35B601CE010B960E94C3116DE4A9
:1005900075E0CE010B960E94C311F7016281738151
:1005A000CE010B960E94C3116FE475E0CE010B964D
:1005B0000E94C311B801CE010B960E94C3118B8516
:1005C0009C8575DF8B859C850E943D3981E0609616
:1005D0000FB6F894DEBF0FBECDBFDF91CF911F9154
:1005E0000F91FF90EF90DF90CF90BF90AF909F90D2
:1005F0008F9008950F931F93CF93DF93CDB7DEB7FE
:100600002A970FB6F894DEBF0FBECDBFDC011C9653
:10061000ED91FC911D9724813581468157814217C8
:100620005307E9F08C013783268388E0ECE4F2E09D
:10063000DE01119601900D928A95E1F71A861986CE
:10064000C9016CE370E00E943F379C0140E050E03C
:10065000BE016F5F7F4FC8014CDF81E001C080E0C9
:100660002A960FB6F894DEBF0FBECDBFDF91CF91B3
:100670001F910F9108950F931F93CF93DF93CDB7E1
:10068000DEB72A970FB6F894DEBF0FBECDBFDC01F0
:100690001C96ED91FC911D972481358146815781EF
:1006A00042175307E9F08C013783268388E0ECE496
:1006B000F2E0DE01119601900D928A95E1F71A861B
:1006C0001986C9016CE370E00E943F379B0140E04E
:1006D00050E0BE016F5F7F4FC8010BDF81E001C0BA
:1006E00080E02A960FB6F894DEBF0FBECDBFDF9133
:1006F000CF911F910F9108950F931F93CF93DF9385
:10070000CDB7DEB72A970FB6F894DEBF0FBECDBFC8
:10071000DC011C96ED91FC911D9724813581468169
:1007200057814217530711F18C013783268388E0E4
:10073000ECE4F2E0DE01119601900D928A95E1F76A
:100740001A861986C9016AE070E00E943F378AE084
:10075000869F9001879F300D112440E050E0BE013C
:100760006F5F7F4FC801C5DE81E001C080E02A963F
:100770000FB6F894DEBF0FBECDBFDF91CF911F91B2
:100780000F910895CF93DF93CDB7DEB72A970FB6B9
:10079000F894DEBF0FBECDBFDC011C96ED91FC913D
:1007A0001D97248135814681578142175307A9F04F
:1007B0003783268348E0ECE4F2E0DE0111960190F5
:1007C0000D924A95E1F71A86198640E050E0BE0185
:1007D0006F5F7F4F8EDE81E001C080E02A960FB60A
:1007E000F894DEBF0FBECDBFDF91CF910895CACF81
:1007F000CF93DF93CDB7DEB72A970FB6F894DEBF5D
:100800000FBECDBFDC011C96ED91FC911D9722819E
:100810003381D9014D915C916681778164177507A9
:10082000C1F05783468348E0ECE4F2E0DE01119624
:1008300001900D924A95E1F71A861986F9012081F7
:10084000318140E050E0BE016F5F7F4F52DE81E0BA
:1008500001C080E02A960FB6F894DEBF0FBECDBF70
:10086000DF91CF9108951F920F920FB60F9211242E
:100870000BB60F922F933F934F935F936F937F939A
:100880008F939F93AF93BF93EF93FF938091B900A2
:10089000887F803609F49CC068F5883209F45BC013
:1008A00090F4803109F454C038F4882309F4F6C078
:1008B000883009F44DC0F5C0883109F44CC080324D
:1008C00009F45DC0EEC0803409F468C048F4803398
:1008D00009F455C0883309F0E4C080935311D8C09F
:1008E000803509F44FC0883509F45DC0883409F0BB
:1008F000D8C0D6C0883909F4C7C0A8F4883709F42D
:1009000067C038F4883609F463C0803709F460C0E2
:10091000C8C0883809F4B8C0803909F45FC080388D
:1009200009F0BFC05BC0803B09F486C038F4803A50
:1009300009F466C0883A09F47FC0B3C0803C09F46A
:10094000A7C0883C09F4A4C0883B09F48AC0A9C0A8
:100950008091301110C090915211809151119817CF
:1009600070F5E091521181E08E0F80935211F0E00A
:10097000EF5CFE4E80818093BB0085EC86C0809347
:1009800053118EC0E091521181E08E0F809352116D
:100990008091BB00F0E0EF5CFE4E8083909152119D
:1009A000809151116EC0E091521181E08E0F8093C1
:1009B00052118091BB00F0E0EF5CFE4E808380918D
:1009C000541181116DC081E080932F1184EA61C0C0
:1009D00083E0809355111092BC12CFCF8091BC124E
:1009E000803208F051C0E091BC1281E08E0F8093FC
:1009F000BC128091BB00F0E0E456FD4E8083BDCF79
:100A000085EC8093BC00109255118091BC1280320D
:100A100030F4E091BC12F0E0E456FD4E108260919B
:100A2000BC1270E0E0912911F0912A118CE992E159
:100A300019951092BC1235C084E080935511109224
:100A40009B1210929A12E0912B11F0912C11199592
:100A500080919A12811105C081E080939A121092C0
:100A60007A12E0919B1281E08E0F80939B12F0E04E
:100A7000E658FD4E80818093BB0090919B1280913F
:100A80009A12981708F479CF85E88093BC0009C0C2
:100A900085EC8093BC001092551103C01092531145
:100AA00009DCFF91EF91BF91AF919F918F917F9161
:100AB0006F915F914F913F912F910F900BBE0F90CF
:100AC0000FBE0F901F9018951F920F920FB60F92A6
:100AD00011240F900FBE0F901F901895FC013996AE
:100AE00020E08FEF9FEF261791F03191832738E0B8
:100AF000AC014170552796958795452B21F041E033
:100B0000842740EA9427315099F72F5FECCF98273C
:100B1000892798270895CF92DF92FF920F931F9312
:100B2000CF93DF9300D01F92CDB7DEB78C016C015D
:100B300089E4C80ED11CD601FC906F2DC801CEDF10
:100B4000F801EF0DF11D918791E09F0DF801E90F7C
:100B5000F11D8187F394F394F601F082D801169683
:100B60008C91823018F061E00E944813F801858171
:100B7000B801675F7F4F843018F48081918103C092
:100B8000F80182819381D6014C9150E0DC01ED9116
:100B9000FC910280F381E02D1995F8018681823065
:100BA00070F18581843048F480819181DC01ED9180
:100BB000FC910680F781E02D1995F801E35AFF4F6B
:100BC00080819181A281B38189839A83AB83BC8325
:100BD00089819A81AB81BC81AC01BD014150510931
:100BE0006109710949835A836B837C83892B8A2B22
:100BF0008B2B71F760E0F80186810E944813D801C1
:100C000015968C91843048F5F80180819181DC0142
:100C1000ED91FC910284F385E02D199597FFF4CFB7
:100C2000F60110820E94FE13F801E75AFF4F60831D
:100C30007183828393833A97808191810196918316
:100C400080830F900F900F900F90DF91CF911F91A5
:100C50000F91FF90DF90CF900895D80112968D915B
:100C60009C911397DC01ED91FC910284F385E02DBA
:100C7000199597FFF2CFD4CFDF92EF92FF920F93A7
:100C80001F93CF93DF93EC018E81823018F060E0E8
:100C90000E9448138E01075B1F4FD8011C928D8163
:100CA000D12C8430E0F588819981DC01ED91FC91B3
:100CB0000084F185E02D1995892BE1F1F801E080A0
:100CC000F12C88819981DC01ED91FC910284F385FE
:100CD000E02D1995FE01EE0DFF1D8187F801808141
:100CE0008F5F80838034F8F2DD24D394DCCFF80169
:100CF000E080F12C8A819B81DC01ED91FC910284E2
:100D0000F385E02D1995FE01EE0DFF1D8187F80199
:100D100080818F5F8083803410F0DD24D3948A81BA
:100D20009B81DC01ED91FC910084F185E02D19950A
:100D3000892BE9F6FE01E35BFF4F808191810196EB
:100D400091838083DD2049F0CF5ADF4F88819981DC
:100D50000196998388838DEF02C0D8018C91DF9131
:100D6000CF911F910F91FF90EF90DF9008958F9298
:100D70009F92AF92BF92CF92DF92EF92FF920F932A
:100D80001F93CF93DF93EC018D81843018F4888119
:100D9000998102C08A819B81DC01ED91FC910084E4
:100DA000F185E02D1995182F0E94FE13FE01E75AD8
:100DB000FF4F80809180A280B380AB01BC014819B5
:100DC00059096A097B09369780819181A0E0B0E0DA
:100DD00084179507A607B70758F41F828FEF8887F7
:100DE000CF5ADF4F8881998101969983888317C0F4
:100DF0001123A9F06E01BAE4CB0ED11CF60180815B
:100E00009E012B5A3F4F5901181759F010830E9429
:100E1000FE13D5016D937D938D939C93139780E082
:100E2000CFC00E94FE13F501008111812281338120
:100E3000DC01CB01801B910BA20BB30B0597A10525
:100E4000B10568F3D6011C92CE0116DF863054F44A
:100E50001F82CF5ADF4F288139812F5F3F4F39835F
:100E60002883AEC08E01075B1F4FF8016081C62E3C
:100E7000D12C6250CE0132DEFE01EC0DFD1D27812A
:100E800030E0322F22274085242B2817390751F0D4
:100E9000FE01EF5AFF4F80819181019691838083FB
:100EA0008FEF8DC08A8587FF0AC0FE01EF5AFF4F82
:100EB000808191810196918380838BEF80C0E4E4EF
:100EC000F2E09191891771F022E0EC34F207C9F752
:100ED000FE01EF5AFF4F80819181019691838083BB
:100EE00081E06DC0813008F466C0833040F0853009
:100EF00008F061C020E0BE01655B7F4F3AC020E092
:100F0000BE01655B7F4F8B85281708F054C0322FD8
:100F10003695822F90E020FF15C0DB015C91119681
:100F20004C91E52FF42FE30FF11DE30FF11D8C0F12
:100F30009D1FDC011C968C9190E0982F88273081B2
:100F4000832B13C0FB0150814181E52FF42FE30F68
:100F5000F11DE30FF11DF180E12C8C0F9D1FDC01D1
:100F60001C968C91A701482BCA01918380832F5F27
:100F7000CACF822F880F8D5F9B8596952917D8F44D
:100F8000DB013C9111969C91E32FF92FE20FF11DAB
:100F9000E20FF11DAE01480F511DDA0119968C9137
:100FA000199790E0982F88271A963C91832B91836C
:100FB00080832F5FDECF1F82F801808101C01F82F6
:100FC000DF91CF911F910F91FF90EF90DF90CF9025
:100FD000BF90AF909F908F9008950F931F93CF93E2
:100FE000DF931F921F92CDB7DEB78C0185E595E0A8
:100FF0000E94B2118AE595EA9A838983F801EC5A36
:10100000FF4F80819E85911121C0998991111EC049
:101010009FEF980F973FD0F49E012F5F3F4F679649
:101020003FAF2EAF67978B8B86E08C8B1D8A97E442
:101030009E8B95EA9F8B9AE5988F64968FAF649705
:10104000CE010A9668DD81E0898B1A8A64E670E039
:1010500080E090E00E94C613CE010A9688DE0F90D1
:101060000F90DF91CF911F910F910895CF93DF9350
:10107000EC018D81823039F0833041F0813049F4C8
:1010800088EB96E008C08BE196E005C08EE795E01E
:1010900002C085E597E099838883888199810E94C1
:1010A00054108E81823010F190E0FC01EE53FE4F1F
:1010B0002491FC01E458FE4F8491882399F090E03C
:1010C000880F991FFC01E85BFE4FA591B491FC01CC
:1010D000EE59FE4F859194918FB7F894EC91E22BE5
:1010E000EC938FBF60E08E810E94481388819981C4
:1010F000DC01ED91FC910284F385E02D199597FFB9
:10110000F5CFFE01E75BFF4F1082319610823796D4
:1011100011821082329711821082C35BDF4F1982D5
:101120001882DF91CF910895CF92DF92EF92FF92D4
:101130000F931F93CF93DF936C017A018B01C0E073
:10114000D0E0CE15DF0581F0D8016D918D01D6017B
:10115000ED91FC910190F081E02DC6011995892B4C
:1011600011F02196EECF7E01C701DF91CF911F9143
:101170000F91FF90EF90DF90CF900895FC01538D79
:10118000448D252F30E0842F90E0821B930B541761
:1011900010F0CF96089501970895FC01918D828DEE
:1011A000981761F0828DDF01A80FB11D5D968C91BB
:1011B000928D9F5F9F73928F90E008958FEF9FEFC6
:1011C0000895FC01918D828D981731F0828DE80F82
:1011D000F11D858D90E008958FEF9FEF0895FC013C
:1011E000918D228D892F90E0805C9F4F821B910909
:1011F0008F73992708958EE795E0F1DF21E0892B21
:1012000009F420E0822F08958BE196E0E8DF21E0E9
:10121000892B09F420E0822F089588EB96E0DFDF28
:1012200021E0892B09F420E0822F089585E597E0DD
:10123000D6DF21E0892B09F420E0822F0895FC01FC
:10124000848DDF01A80FB11DA35ABF4F2C91848D4F
:1012500090E001968F739927848FA689B7892C9384
:10126000A089B1898C91837080648C93938D848DD7
:10127000981306C00288F389E02D80818F7D8083DA
:101280000895EF92FF920F931F93CF93DF93EC019A
:1012900081E0888F9B8D8C8D981305C0E889F98932
:1012A000808185FD25C0F62E0B8D10E00F5F1F4F4E
:1012B0000F731127E02E8C8DE8120BC00FB607FCC0
:1012C000FACFE889F989808185FFF5CFCE01B7DFB4
:1012D000F2CF8B8DFE01E80FF11DE35AFF4FF08234
:1012E0009FB7F8940B8FEA89FB89808180620AC0DE
:1012F0009FB7F894EE89FF896083E889F989808136
:101300008370806480839FBF81E090E0DF91CF9104
:101310001F910F91FF90EF900895CF93DF93EC0111
:10132000888D8823C1F0EA89FB89808185FD05C00D
:10133000A889B9898C9186FD0EC00FB607FCF5CF40
:10134000808185FFF2CFA889B9898C9185FFEDCF87
:10135000CE0175DFE8CFDF91CF91089580E090E076
:10136000892B19F063DF811116C080E090E0892B92
:1013700019F053DF811112C080E090E0892B19F041
:1013800043DF81110EC080E090E0892B79F033DFDC
:1013900081110AC008950E940000E7CF0E9400005A
:1013A000EBCF0E940000EFCF0C94000008950E9444
:1013B000A63A0F931F93CF93DF93EB010E94FE1386
:1013C0008B0173D88F3F49F00E94FE13601B710B95
:1013D0006C177D07B0F380E001C081E0DF91CF9111
:1013E0001F910F91089561E0FC0184810E944813D0
:1013F0008091BD1281111092BD120895CF93DF9399
:10140000EC018E81882379F08F8198859C012F5F74
:101410003F4F38872F838230924010F446D8F4CF64
:10142000CE01E1DF1E82DF91CF9108958F929F92CE
:10143000AF92BF92FF920F931F93CF93DF93EC0174
:10144000F62E49015A01DADF8091BD12811109C0DF
:1014500081E08093BD129091F2078091F3079CBDCB
:101460008DBD60E08C810E9448136CE271E0CE017A
:10147000A0DF8F2D806412D808E110E0D501C401EF
:10148000002E04C0B695A795979587950A94D2F734
:1014900005D808501109083F8FEF180779F7FF208A
:1014A00029F088E0F81204C087E803C085E901C08C
:1014B0008FEF0E944E0210E00E9455028A8787FF3C
:1014C00004C01F3F11F01F5FF7CFDF91CF911F9135
:1014D0000F91FF90BF90AF909F908F900895EF92E3
:1014E000FF920F931F93CF93DF93EC017901411586
:1014F00051056105710511F482E139C08B85833096
:1015000039F089E0440F551F661F771F8A95D1F780
:101510009A01AB0168E1CE0189DF882311F084E0F4
:1015200026C08EEF0E944E0287018EEFF81AF80156
:1015300081918F010E944E02E016F106C1F78FEFF4
:101540000E944E028FEF0E944E020E9455028A872F
:101550008F71853029F081E18D83CE0144DF08C091
:1015600068E572E0CE0125DF811106C085E18D833B
:10157000CE0139DF80E012C020E030E0A9016DE04B
:10158000CE0154DF811108C00E945502811104C0B0
:10159000CE0129DF81E002C084E1E9CFDF91CF9164
:1015A0001F910F91FF90EF9008958091BE128823B4
:1015B00079F140910A0250910B0260910C027091F6
:1015C0000D0223EC32E180E090E089DF811102C05E
:1015D00080E008954091BF125091C0126091C112F5
:1015E0007091C212411551056105710579F023EC26
:1015F00032E180E090E073DF882351F31092BF1254
:101600001092C0121092C1121092C2121092BE1209
:1016100081E00895AF92BF92CF92DF92EF92FF9256
:101620001F93CF93DF936B017C01142F80910A02EB
:1016300090910B02A0910C02B0910D028C159D05AA
:10164000AE05BF0509F48AC0B0DF882309F48CC059
:10165000809106008823A1F0809100009091010004
:10166000A0910200B0910300C816D906EA06FB0655
:1016700039F48091070090910800892B09F441C04A
:10168000C0920000D0920100E0920200F0920300AC
:1016900080910B00A7019601833039F099E0220F69
:1016A000331F441F551F9A95D1F761E180E090E008
:1016B000BDDE882321F083E08093050042C00E94B4
:1016C000FE13EB010E94550280930A008F3F49F4FC
:1016D0000E94FE136C1B7D0B6D32714098F38FE0FE
:1016E00003C08E3F39F08DE08093050080E090E0EC
:1016F0007ADE27C0109208001092070081E08093E4
:101700000600C3ECD2E183ECA82E84E1B82E0E943F
:1017100055028993AC16BD06D1F7809107009091D0
:1017200008009E5F909308008093070020910900B5
:10173000222319F08115924048F080E090E05EDEAF
:1017400005C080E090E04FDE80E00EC0C0920A024B
:10175000D0920B02E0920C02F0920D024091BE1268
:10176000412B4093BE1281E0DF91CF911F91FF90FA
:10177000EF90DF90CF90BF90AF9008950F931F939D
:10178000CF93DF93EC0188819981009729F02A811A
:101790003B812617370788F48B016F5F7F4F0E94CC
:1017A000C639009761F0998388831B830A832C8153
:1017B0003D81232B11F4FC01108281E001C080E007
:1017C000DF91CF911F910F9108951F920F920FB645
:1017D0000F9211240BB60F922F933F934F935F9369
:1017E0006F937F938F939F93AF93BF93EF93FF93E9
:1017F0008EE795E024DDFF91EF91BF91AF919F912E
:101800008F917F916F915F914F913F912F910F90A9
:101810000BBE0F900FBE0F901F9018951F920F9246
:101820000FB60F9211240BB60F922F933F934F9345
:101830005F936F937F938F939F93AF93BF93EF9338
:10184000FF938EE795E00BD7FF91EF91BF91AF919A
:101850009F918F917F916F915F914F913F912F91C8
:101860000F900BBE0F900FBE0F901F9018951F92F8
:101870000F920FB60F9211240BB60F922F933F9336
:101880004F935F936F937F938F939F93AF93BF9388
:10189000EF93FF938BE196E0D2DCFF91EF91BF9144
:1018A000AF919F918F917F916F915F914F913F91F8
:1018B0002F910F900BBE0F900FBE0F901F90189599
:1018C0001F920F920FB60F9211240BB60F922F9307
:1018D0003F934F935F936F937F938F939F93AF93B8
:1018E000BF93EF93FF938BE196E0B9D6FF91EF9111
:1018F000BF91AF919F918F917F916F915F914F9128
:101900003F912F910F900BBE0F900FBE0F901F9025
:1019100018951F920F920FB60F9211240BB60F92CB
:101920002F933F934F935F936F937F938F939F93E7
:10193000AF93BF93EF93FF9388EB96E080DCFF912A
:10194000EF91BF91AF919F918F917F916F915F9137
:101950004F913F912F910F900BBE0F900FBE0F90A4
:101960001F9018951F920F920FB60F9211240BB66D
:101970000F922F933F934F935F936F937F938F9328
:101980009F93AF93BF93EF93FF9388EB96E067D657
:10199000FF91EF91BF91AF919F918F917F916F9147
:1019A0005F914F913F912F910F900BBE0F900FBE03
:1019B0000F901F9018951F920F920FB60F9211243F
:1019C0000BB60F922F933F934F935F936F937F9339
:1019D0008F939F93AF93BF93EF93FF9385E597E02A
:1019E0002EDCFF91EF91BF91AF919F918F917F91ED
:1019F0006F915F914F913F912F910F900BBE0F9080
:101A00000FBE0F901F9018951F920F920FB60F9256
:101A100011240BB60F922F933F934F935F936F93C5
:101A20007F938F939F93AF93BF93EF93FF9385E53E
:101A300097E015D6FF91EF91BF91AF919F918F9154
:101A40007F916F915F914F913F912F910F900BBEBE
:101A50000F900FBE0F901F9018954F925F926F924C
:101A60007F928F929F92AF92BF92CF92DF92EF922E
:101A7000FF920F931F93CF93DF93EC0142305105F8
:101A80006105710510F480E077C089859A85AB8582
:101A9000BC850196A11DB11D84179507A607B70740
:101AA00090F3CB88DC88ED88FE888F89803129F41B
:101AB000BB27A72F962F852F09C0DB01CA01E7E0BE
:101AC000B695A79597958795EA95D1F7480159015D
:101AD0002A013B01C80ED91EEA1EFB1E80910A0294
:101AE00090910B02A0910C02B0910D02C816D9067C
:101AF000EA06FB0681F48F898031A1F4B301A201CB
:101B0000552766277727440F551FFA01ED53FD4EE1
:101B10009182808218C040E0C701B6017BDD81114F
:101B2000EACFB1CFB301A2014F77552766277727B8
:101B3000440F551F440F551FFA01ED53FD4E80828F
:101B40009182A282B3828091BE1281608093BE1284
:101B50008A89823080F08D819E81AF81B885C80EE0
:101B6000D91EEA1EFB1EC092BF12D092C012E09294
:101B7000C112F092C21281E0DF91CF911F910F91BB
:101B8000FF90EF90DF90CF90BF90AF909F908F909D
:101B90007F906F905F904F9008958F929F92AF9239
:101BA000BF92CF92DF92EF92FF920F931F93CF934A
:101BB000DF93FC0181859285A385B4850196A11DE3
:101BC000B11D84179507A607B70710F480E05AC027
:101BD00083889488A588B6888789803129F4BB27B3
:101BE000A72F962F852F09C0DB01CA01C7E0B69544
:101BF000A79597958795CA95D1F7E9016A017B0169
:101C00008F01BC01CD01680D791D8A1D9B1D80903F
:101C10000A0290900B02A0900C02B0900D02681581
:101C200079058A059B0591F4F8018789803199F43B
:101C3000DD24EE24FF24C601880F991FFC01ED531B
:101C4000FD4E80819181A0E0B0E017C040E0E2DC71
:101C50008111EACFBBCFE894C7F8DD24EE24FF243E
:101C6000C601880F991F880F991FFC01ED53FD4E87
:101C700080819181A281B381BF7088839983AA8377
:101C8000BB8381E0DF91CF911F910F91FF90EF9087
:101C9000DF90CF90BF90AF909F908F9008954F921C
:101CA0005F926F927F92AF92BF92CF92DF92EF924C
:101CB000FF920F931F93CF93DF9300D01F921F9239
:101CC000CDB7DEB78C016D83DC0115968C9115972D
:101CD000813009F053C014968C9181FF4FC056C0DB
:101CE000258530E0275F3F4F2A013B01B1E04B1AC9
:101CF000510861087108022E04C0769467945794C5
:101D000047940A94D2F7D701C6010197A109B109F6
:101D100004C0B695A795979587952A95D2F784150F
:101D20009505A605B70508F075C0F8014789508DDF
:101D3000618D728D46835783608771872C013D01C9
:101D40005801F6E0AF0EB11C411451046104710456
:101D500009F46AC0D80116964D915D916D917C9100
:101D6000199795015B968D919C915C9716DFB1E078
:101D70004B1A5108610871088111E6CF81E090E0AB
:101D8000F8019383828380E090E055C182FF0EC00A
:101D9000F8014285538564857585C388D488E588B4
:101DA000F6884C155D056E057F05E9F4D8011A9695
:101DB0004D915D916D917C911D975B96ED91FC919C
:101DC0005C97948191506A017B0189E0F694E794D5
:101DD000D794C7948A95D1F79C217A01B1E0FB2270
:101DE000911171C027C0D801038CF48DE02DC1146E
:101DF000D104E104F10409F073CF16961D921D92EF
:101E00001D921C9219971A961D921D921D921C925A
:101E10001D9714C0452B462B472B09F486CF8419F8
:101E20009509A609B7098ACFF801C286D386E48648
:101E3000F586BCCFE114F10409F045C0D80116962F
:101E40004D915D916D917C911997411551056105F9
:101E5000710559F457968D919D910D90BC91A02DCF
:101E60000097A105B10539F521C09E012F5F3F4FB5
:101E7000CF0193DE882309F486CF89819A81AB81D3
:101E8000BC81F801238D348DF9012789203129F493
:101E900048EF5FEF60E070E004C048EF5FEF6FEF86
:101EA0007FE084179507A607B70728F0C801D7D2A7
:101EB000811106C063CFF80186839783A087B1871D
:101EC000E12CF12C90E0D8015B96ED91FC915C97B0
:101ED00016964D905D906D907C901997B2E04B1ADC
:101EE000510861087108058404C0440C551C661C27
:101EF000771C0A94D2F74685578560897189440E0C
:101F0000551E661E771E490E511C611C711CE11482
:101F1000F10401F5F801428553856485758583894F
:101F20009489A589B689481759076A077B0790F0F5
:101F30003CDB882309F422CF40920A0250920B0224
:101F400060920C0270920D028091BE1281608093AB
:101F5000BE1207C041E0C301B2015CDB882309F473
:101F60000DCFF701ED53FD4E8D818083F801828501
:101F70009385A485B5850196A11DB11D82879387A0
:101F8000A487B58743895489658976894817590795
:101F90006A077B0738F4838B948BA58BB68B84817F
:101FA00080688483D80114968C9183FD03C081E0FE
:101FB00090E041C0F8019581992309F4DFCE87FFB5
:101FC00036C0668577858089918941E023DB882347
:101FD00009F4D4CED8015296EC91B0E2EB9FF00117
:101FE0001124ED53FD4E309709F4C8CED801159653
:101FF0008C911597823050F453964D915D916D916F
:102000007C915697448F558F668F778FD80157965E
:102010004D915D916D917C915A97538F428F758B45
:10202000648B14968C9114978F7714968C93BDDAE9
:102030008111BDCFA3CE0F900F900F900F900F90F6
:10204000DF91CF911F910F91FF90EF90DF90CF9094
:10205000BF90AF907F906F905F904F9008953FB783
:10206000F8948091C8149091C914A091CA14B091A9
:10207000CB1426B5A89B05C02F3F19F00196A11DD2
:10208000B11D3FBFBA2FA92F982F8827820F911D0E
:10209000A11DB11DBC01CD0142E0660F771F881F55
:1020A000991F4A95D1F70895CF92DF92EF92FF9250
:1020B000CF93DF93EC016A017B01E889F98982E023
:1020C00080834115514E61057105B1F060E079E002
:1020D0008DE390E0A70196010E945337DA01C90110
:1020E0000197A109B109B695A795979587959C0188
:1020F000211580E13807A8F0E889F989108260E8A5
:1021000074E88EE190E0A70196010E945337DA014E
:10211000C9010197A109B109B695A795979587952A
:102120009C01EC85FD853083EE85FF852083188E2C
:10213000EC89FD8986E08083EA89FB898081806162
:102140008083EA89FB89808188608083EA89FB89B2
:10215000808180688083EA89FB8980818F7D80838C
:10216000DF91CF91FF90EF90DF90CF9008956115B0
:10217000710551F0FB0101900020E9F73197AF01A3
:10218000461B570B0C94940880E090E008958F92C2
:102190009F92AF92BF920F931F93CF93DF93CDB7D0
:1021A000DEB7A1970FB6F894DEBF0FBECDBF19A260
:1021B000423008F44AE08E010F5D1F4F842E912CAF
:1021C000A12CB12CA50194010E945337E62FB9012F
:1021D000CA0101501109EA3014F4E05D01C0E95C64
:1021E000D801EC93232B242B252B61F7B80185E52F
:1021F00097E0BDDFA1960FB6F894DEBF0FBECDBF4E
:10220000DF91CF911F910F91BF90AF909F908F90D2
:102210000895ADCFCF92DF92EF92FF92CF93DF93ED
:102220006C01990FEE08FF08F7FE17C06DE285E517
:1022300097E027D8EC0166277727CB016C197D0939
:102240008E099F094AE0A3DF8C0F9D1FDF91CF917C
:10225000FF90EF90DF90CF9008954AE0C701B6015C
:10226000DF91CF91FF90EF90DF90CF9090CF8F9242
:102270009F92AF92BF92CF92DF92EF92FF92CF9355
:102280006B017C0120E030E0A9010E94263687FF27
:1022900009C06DE285E597E00E944109F7FAF094E4
:1022A000F7F8F094C701B6010E9451384B015C0168
:1022B000CB01B0DF6DE475E085E597E0AADF20E0B3
:1022C00030E0A901C701B6010E948238092C000C38
:1022D000AA08BB0887FD09C0C501B4010E942C36BD
:1022E0009B01AC01C701B60106C0C501B4010E9443
:1022F0002C36A70196010E94843720E030E543EC9C
:1023000057E40E948B360E9456386B017C019B017A
:10231000AC01C4E08AE0882E912CA12CB12CCA011A
:10232000B901A50194010E945337211531054105DA
:10233000510511F0C150F3CFCC2339F06DEB74E0AF
:1023400085E597E066DFC150F7CF4AE0B601C701E7
:10235000CF91FF90EF90DF90CF90BF90AF909F9084
:102360008F9015CFCF93DF93BC0185E597E0FFDE1B
:10237000EC0160E475E085E597E0F9DE8C0F9D1FC8
:10238000DF91CF910895EF92FF920F931F93CF9318
:10239000DF936115710511F480E01EC0FB0101900F
:1023A0000020E9F73197E61BF70BA9F07B01EC0160
:1023B0000C811D810E0F1F1FB801E0D9882361F326
:1023C000288139818C819D81B701820F931F0E94E2
:1023D000BC3A1D830C8381E0DF91CF911F910F9157
:1023E000FF90EF900895BF92CF92DF92EF92FF920D
:1023F0000F931F93CF93DF93C4E0C12CD12C7601B0
:102400000AE010E0B8010E943F37B62ED72FBC017A
:1024100080E090E00E942A36A70196010E9485374D
:1024200020E030E040E251E40E94E9376B017C019A
:102430008B2D9D2FC15031F7BC0180E090E00E94B0
:102440002A36A70196010E948537DF91CF911F910F
:102450000F91FF90EF90DF90CF90BF9008953F9243
:102460004F925F926F927F928F929F92AF92BF92A4
:10247000CF92DF92EF92FF920F931F93CF93DF9350
:10248000CDB7DEB72C970FB6F894DEBF0FBECDBF29
:102490005C01DC015B968D909C905C971696CD90CC
:1024A000DD90ED90FC901997C114D104E104F10482
:1024B00039F0BFEFCB1ADB0AEB0AFB0A312C07C05D
:1024C000F401C080D180E280F38033243394F4019E
:1024D00081859285A385B4859C01AD012F5F3F4F17
:1024E0004F4F5F4F29873A874B875C87260137011B
:1024F0001D821E821F821886F40181859285A38524
:10250000B4852D813E814F815885281739074A07A8
:102510005B0708F060C089859A85AB85BC858C1502
:102520009D05AE05BF0550F482E0C82ED12CE12CEC
:10253000F12C92E0492E512C612C712C9E012F5FC1
:102540003F4FB701A601C40128DB882309F443C02B
:1025500089819A81AB81BC81892B8A2B8B2B41F09D
:10256000260137019FEF491A590A690A790A05C0FD
:10257000C414D504E604F70491F02D813E814F8107
:1025800058852F5F3F4F4F4F5F4F2D833E834F83C3
:1025900058873FEFC31AD30AE30AF30AADCF0FEF10
:1025A0001FEF2FEF3FE0B301A201C40156DA8823E9
:1025B00091F0D50116964D915D916D917C91199791
:1025C000411551056105710541F093018201C40176
:1025D00044DA811102C080E02AC0D50116964D92DE
:1025E0005D926D927C921997332051F0D301C20114
:1025F0000196A11DB11DF40180839183A283B38351
:10260000F5018789908DA18DB28D892B8A2B8B2B1B
:1026100069F4D50157964D925D926D927C925A97CE
:1026200014968C911497806814968C9381E02C9664
:102630000FB6F894DEBF0FBECDBFDF91CF911F91D3
:102640000F91FF90EF90DF90CF90BF90AF909F9051
:102650008F907F906F905F904F903F900895FC0116
:10266000A089B1898C91A689B78982FD0FC09C9100
:10267000818D8F5F8F73228D821749F0218DDF014D
:10268000A20FB11D5D969C93818F08958C91089542
:10269000362F90E0FC01E85FFD4F4491FC01EE53C2
:1026A000FE4F2491FC01E458FE4F9491992309F4C4
:1026B0006CC0442309F455C050E0FA013197E2316F
:1026C000F10508F04EC08827EE56FF4F8F4F0C944F
:1026D0009D38809180008F7707C0809180008F7D2A
:1026E00003C080918000877F809380003AC084B5CA
:1026F0008F7702C084B58F7D84BD33C08091B000D8
:102700008F7703C08091B0008F7D8093B00029C087
:10271000809190008F7707C0809190008F7D03C0DB
:1027200080919000877F809390001BC08091A000D3
:102730008F7707C08091A0008F7D03C08091A0009B
:10274000877F8093A0000DC0809120018F7707C004
:10275000809120018F7D03C080912001877F80932D
:102760002001E92FF0E0EE0FFF1FEE59FE4FA5917B
:10277000B4919FB7F894311104C08C91209528230F
:1027800002C0EC912E2B2C939FBF08958F929F92A5
:10279000AF92BF92CF92DF92EF92FF926B017C01DA
:1027A0005EDC4B015C01C114D104E104F104E9F0E9
:1027B00056DCDC01CB0188199909AA09BB09883EBE
:1027C0009340A105B10578F321E0C21AD108E108D0
:1027D000F10888EE880E83E0981EA11CB11CC1147C
:1027E000D104E104F10421F7DECFFF90EF90DF90F8
:1027F000CF90BF90AF909F908F9008952FB7F8948F
:102800006091C4147091C5148091C6149091C7143E
:102810002FBF08951F920F920FB60F9211242F937E
:102820003F938F939F93AF93BF938091C4149091E4
:10283000C514A091C614B091C7143091C31423E0FD
:10284000230F2D3720F40196A11DB11D05C026E8E8
:10285000230F0296A11DB11D2093C3148093C414AD
:102860009093C514A093C614B093C7148091C81454
:102870009091C914A091CA14B091CB140196A11DD6
:10288000B11D8093C8149093C914A093CA14B09337
:10289000CB14BF91AF919F918F913F912F910F904A
:1028A0000FBE0F901F9018952F923F924F925F92FC
:1028B0006F927F928F929F92AF92BF92CF92DF9250
:1028C000EF92FF920F931F93CF93DF93CDB7DEB7B5
:1028D000CA54D1090FB6F894DEBF0FBECDBFEEE7E4
:1028E000F5E01382128288EE93E0A0E0B0E08483EA
:1028F0009583A683B78328E132E03183208345E3C3
:1029000051E05587448744E351E05787468740E3C9
:1029100051E0518B408B41E351E0538B428B42E3BA
:1029200051E0558B448B46E351E0578B468B118E1B
:10293000128E138E148EEBE1F6E0138212828483E2
:102940009583A683B7833183208345ED50E0558777
:10295000448744ED50E05787468740ED50E0518B67
:10296000408B41ED50E0538B428B42ED50E0558B54
:10297000448B46ED50E0578B468B118E128E138E92
:10298000148EE8EBF6E01382128284839583A6838B
:10299000B783318320834DEC50E0558744874CEC5E
:1029A00050E05787468748EC50E0518B408B49EC0C
:1029B00050E0538B428B4AEC50E0558B448B4EECED
:1029C00050E0578B468B118E128E138E148EE5E5D8
:1029D000F7E01382128284839583A683B7833183C1
:1029E000208325EC30E03587248724EC30E03787DE
:1029F000268720EC30E0318B208B21EC30E0338BCC
:102A0000228B22EC30E0358B248B26EC30E0378BA8
:102A1000268B118E128E138E148EE2EFF7E020E5D6
:102A200020831182E0EEF0E1158216821186138672
:102A300042E050E060E070E0448755876687778722
:102A400013A215A614A62AE232E033A722A717A6DE
:102A5000E4EFF7E01382128284839583A683B78321
:102A600086E392E091838083EEE7F0E1148201E057
:102A7000058387E1E82EE68288EE93E09093D210FA
:102A80008093D1101092DB101092DC101092DD10A8
:102A90001092DE10ECE1F0E113E0148322E02583D4
:102AA0002FE1F22EF6829093701080936F101092A7
:102AB000791010927A1010927B1010927C10ACE179
:102AC000BDE01C9210921D0D86E692E090931F0DC2
:102AD00080931E0D1092210D1092200D1092250D45
:102AE0001092240D1092270D1092260D1092230D96
:102AF0001092220D8EE090E00E94A5389A8389837F
:102B0000FC011182108213821282158214821782B4
:102B100016821186108613861286158614861092E8
:102B2000280D0093290D8EE692E090932B0D809353
:102B30002A0D10922D0D10922C0D1092310D109225
:102B4000300D1092330D1092320D10922F0D109205
:102B50002E0DF093350DE093340D8EE090E00E9441
:102B6000A5389C838B83DC0111961C921E921396D0
:102B70001C921E92129715961C921E9214971796ED
:102B80001C921E92169719961C921E9218971B96CD
:102B90001C921E921A971D961C921E921C971092C0
:102BA000360D83E18093370D85E792E09093390DE0
:102BB0008093380D10923B0D10923A0D10923F0DFC
:102BC00010923E0D1092410D1092400D10923D0D4D
:102BD00010923C0DB093430DA093420D8EE090E017
:102BE0000E94A5389E838D83FC011182108213827E
:102BF000128215821482178216821186108613861D
:102C00001286158614861092440D8BE18093450D33
:102C10008FE792E09093470D8093460D1092490DF7
:102C20001092480D10924D0D10924C0D10924F0DB8
:102C300010924E0D10924B0D10924A0DF093510DC3
:102C4000E093500D8EE090E00E94A53898878F8326
:102C5000DC0111961C921E9213961C921E921297E2
:102C600015961C921E92149717961C921E921697F8
:102C700019961C921E9218971B961C921E921A97D8
:102C80001D961C921E921C971092520D1093530D7C
:102C90008DE892E09093550D8093540D1092570D4E
:102CA0001092560D10925B0D10925A0D10925D0D00
:102CB00010925C0D1092590D1092580DB0935F0D4B
:102CC000A0935E0D8EE090E00E94A5389A878987D8
:102CD000FC011182108213821282158214821782E3
:102CE0001682118610861386128615861486109217
:102CF000600D84E08093610D89E992E09093630D0B
:102D00008093620D1092650D1092640D1092690D02
:102D10001092680D10926B0D10926A0D1092670D53
:102D20001092660DF0936D0DE0936C0D8EE090E0C7
:102D30000E94A5389C878B87DC0111961C921E92FD
:102D400013961C921E92129715961C921E9214971F
:102D500017961C921E92169719961C921E921897FF
:102D60001B961C921E921A971D961C921E921C97DF
:102D700010926E0D85E080936F0D85EA92E090933E
:102D8000710D8093700D1092730D1092720D109250
:102D9000770D1092760D1092790D1092780D109299
:102DA000750D1092740DB0937B0DA0937A0D8EE08B
:102DB00090E00E94A5389E878D87FC0111821082C9
:102DC000138212821582148217821682118610864F
:102DD000138612861586148610927C0D86E08093E9
:102DE0007D0D81EB92E090937F0D80937E0D10928C
:102DF000810D1092800D1092850D1092840D10920D
:102E0000870D1092860D1092830D1092820DF09313
:102E1000890DE093880D8EE090E00E94A538988B94
:102E20008F87DC0111961C921E9213961C921E92A3
:102E3000129715961C921E92149717961C921E922A
:102E4000169719961C921E9218971B961C921E920A
:102E50001A971D961C921E921C9710928A0DE09252
:102E60008B0D8DEB92E090938D0D80938C0D1092D5
:102E70008F0D10928E0D1092930D1092920D109254
:102E8000950D1092940D1092910D1092900DB0939B
:102E9000970DA093960D8EE090E00E94A5389A8B36
:102EA000898BFC0111821082138212821582148296
:102EB000178216821186108613861286158614864E
:102EC0001092980D88E18093990D8AEC92E090938E
:102ED0009B0D80939A0D10929D0D10929C0D109257
:102EE000A10D1092A00D1092A30D1092A20D1092A0
:102EF0009F0D10929E0DF093A50DE093A40D8EE012
:102F000090E00E94A5389C8B8B8BDC0111961C9263
:102F10001E9213961C921E92129715961C921E9248
:102F2000149717961C921E92169719961C921E9231
:102F300018971B961C921E921A971D961C921E9211
:102F40001C971092A60D89E18093A70D87ED92E062
:102F50009093A90D8093A80D1092AB0D1092AA0D1D
:102F60001092AF0D1092AE0D1092B10D1092B00DE7
:102F70001092AD0D1092AC0DB093B30DA093B20DA5
:102F80008EE090E00E94A5389E8B8D8BFC01118213
:102F90001082138212821582148217821682118681
:102FA000108613861286158614861092B40D8AE157
:102FB0008093B50D84EE92E09093B70D8093B60D9B
:102FC0001092B90D1092B80D1092BD0D1092BC0D5B
:102FD0001092BF0D1092BE0D1092BB0D1092BA0D43
:102FE000F093C10DE093C00D8EE090E00E94A538F3
:102FF000988F8F8BDC0111961C921E9213961C9257
:103000001E92129715961C921E92149717961C9258
:103010001E92169719961C921E9218971B961C9238
:103020001E921A971D961C921E921C971092C20D0A
:103030008DE08093C30D81EF92E09093C50D809356
:10304000C40D1092C70D1092C60D1092CB0D1092A8
:10305000CA0D1092CD0D1092CC0D1092C90D109288
:10306000C80DB093CF0DA093CE0D8EE090E00E94DE
:10307000A5389A8F898FFC011182108213821282E7
:103080001582148217821682118610861386128684
:10309000158614861092D00D8BE08093D10D8EEFA3
:1030A00092E09093D30D8093D20D1092D50D109293
:1030B000D40D1092D90D1092D80D1092DB0D1092F4
:1030C000DA0D1092D70D1092D60DF093DD0DE0932E
:1030D000DC0D8EE090E00E94A5389C8F8B8FDC0188
:1030E00011961C921E9213961C921E921297159680
:1030F0001C921E92149717961C921E921697199660
:103100001C921E9218971B961C921E921A971D963F
:103110001C921E921C971092DE0D8CE08093DF0DA6
:103120008CE093E09093E10D8093E00D1092E30D1D
:103130001092E20D1092E70D1092E60D1092E90D3B
:103140001092E80D1092E50D1092E40DB093EB0D86
:10315000A093EA0D8EE090E00E94A5389E8F8D8F9F
:10316000FC0111821082138212821582148217824E
:103170001682118610861386128615861486109282
:10318000EC0D8EE08093ED0D88E193E09093EF0DD0
:103190008093EE0D1092F10D1092F00D1092F50D3E
:1031A0001092F40D1092F70D1092F60D1092F30D8F
:1031B0001092F20DF093F90DE093F80D8EE090E08F
:1031C0000E94A53898A38F8FDC0111961C921E9245
:1031D00013961C921E92129715961C921E9214978B
:1031E00017961C921E92169719961C921E9218976B
:1031F0001B961C921E921A971D961C921E921C974B
:103200001092FA0D84E18093FB0D86E293E0909397
:10321000FD0D8093FC0D1092FF0D1092FE0D10928B
:10322000030E1092020E1092050E1092040E1092D0
:10323000010E1092000EB093070EA093060E8EE0C2
:1032400090E00E94A5389AA389A3FC011182108204
:1032500013821282158214821782168211861086BA
:1032600013861286158614861092080E8FE08093BE
:10327000090E85E393E090930B0E80930A0E109253
:103280000D0E10920C0E1092110E1092100E109244
:10329000130E1092120E10920F0E10920E0EF0934B
:1032A000150EE093140E8EE090E00E94A5389CA3CA
:1032B0008BA3DC0111961C921E9213961C921E92F7
:1032C000129715961C921E92149717961C921E9296
:1032D000169719961C921E9218971B961C921E9276
:1032E0001A971D961C921E921C971092160E80E142
:1032F0008093170E81E493E09093190E8093180E3B
:1033000010921B0E10921A0E10921F0E10921E0E8B
:103310001092210E1092200E10921D0E10921C0E73
:10332000B093230EA093220E8EE090E00E94A53869
:103330009EA38DA3FC01118210821382128215823A
:1033400014821782168211861086138612861586BD
:1033500014861092240E81E18093250E8EE493E072
:103360009093270E8093260E1092290E1092280E0D
:1033700010922D0E10922C0E10922F0E10922E0ED7
:1033800010922B0E10922A0EF093310EE093300E15
:103390008EE090E00E94A53898A78FA3DC011196DB
:1033A0001C921E9213961C921E92129715961C92B6
:1033B0001E92149717961C921E92169719961C929D
:1033C0001E9218971B961C921E921A971D961C927D
:1033D0001E921C971092320E8CE18093330E8CE576
:1033E00093E09093350E8093340E1092370E109226
:1033F000360E10923B0E10923A0E10923D0E109225
:103400003C0E1092390E1092380EB0933F0EA093DE
:103410003E0E8EE090E00E94A5389AA789A7FC0195
:1034200011821082138212821582148217821682F0
:103430001186108613861286158614861092400E09
:103440008DE18093410E89E693E09093430E809343
:10345000420E1092450E1092440E1092490E109298
:10346000480E10924B0E10924A0E1092470E109278
:10347000460EF0934D0EE0934C0E8EE090E00E94CD
:10348000A5389CA78BA7DC0111961C921E9213965F
:103490001C921E92129715961C921E9214971796C4
:1034A0001C921E92169719961C921E9218971B96A4
:1034B0001C921E921A971D961C921E921C97109297
:1034C0004E0E8EE180934F0E86E793E09093510E5F
:1034D0008093500E1092530E1092520E1092570E6F
:1034E0001092560E1092590E1092580E1092550EC0
:1034F0001092540EB0935B0EA0935A0E8EE090E0A3
:103500000E94A5389EA78DA7FC011182108213820C
:1035100012821582148217821682118610861386F3
:1035200012861586148610925C0EF0925D0E81E86C
:1035300093E090935F0E80935E0E1092610E109256
:10354000600E1092650E1092640E1092670E10922B
:10355000660E1092630E1092620EF093690EE09365
:10356000680E8EE090E00E94A53898AB8FA7DC0132
:1035700011961C921E9213961C921E9212971596EB
:103580001C921E92149717961C921E9216971996CB
:103590001C921E9218971B961C921E921A971D96AB
:1035A0001C921E921C9710926A0E80E280936B0E02
:1035B0008CE893E090936D0E80936C0E10926F0EDA
:1035C00010926E0E1092730E1092720E1092750E73
:1035D0001092740E1092710E1092700EB093770EBE
:1035E000A093760E8EE090E00E94A5389AAB89AB4E
:1035F000FC011182108213821282158214821782BA
:1036000016821186108613861286158614861092ED
:10361000780E81E28093790E89E993E090937B0E96
:1036200080937A0E10927D0E10927C0E1092810E75
:103630001092800E1092830E1092820E10927F0EC6
:1036400010927E0EF093850EE093840E8EE090E053
:103650000E94A5389CAB8BABDC0111961C921E928C
:1036600013961C921E92129715961C921E921497F6
:1036700017961C921E92169719961C921E921897D6
:103680001B961C921E921A971D961C921E921C97B6
:103690001092860E82E28093870E86EA93E09093E2
:1036A000890E8093880E10928B0E10928A0E1092C3
:1036B0008F0E10928E0E1092910E1092900E10920C
:1036C0008D0E10928C0EB093930EA093920E8EE0FE
:1036D00090E00E94A5389EAB8DABFC011182108258
:1036E0001382128215821482178216821186108626
:1036F00013861286158614861092940E83E28093A8
:10370000950E82EB93E09093970E8093960E109215
:10371000990E1092980E10929D0E10929C0E10927F
:103720009F0E10929E0E10929B0E10929A0EF09386
:10373000A10EE093A00E8EE090E00E94A53898AF15
:103740008FABDC0111961C921E9213961C921E9256
:10375000129715961C921E92149717961C921E9201
:10376000169719961C921E9218971B961C921E92E1
:103770001A971D961C921E921C971092A20E84E21C
:103780008093A30E8EEB93E09093A50E8093A40EEE
:103790001092A70E1092A60E1092AB0E1092AA0EC7
:1037A0001092AD0E1092AC0E1092A90E1092A80EAF
:1037B000B093AF0EA093AE0E8EE090E00E94A538BD
:1037C0009AAF89AFFC011182108213821282158296
:1037D0001482178216821186108613861286158629
:1037E00014861092B00E85E28093B10E8AEC93E0BD
:1037F0009093B30E8093B20E1092B50E1092B40E49
:103800001092B90E1092B80E1092BB0E1092BA0E12
:103810001092B70E1092B60EF093BD0EE093BC0E50
:103820008EE090E00E94A5389CAF8BAFDC01119632
:103830001C921E9213961C921E92129715961C9221
:103840001E92149717961C921E92169719961C9208
:103850001E9218971B961C921E921A971D961C92E8
:103860001E921C971092BE0E86E28093BF0E86EDCC
:1038700093E09093C10E8093C00E1092C30E1092ED
:10388000C20E1092C70E1092C60E1092C90E109260
:10389000C80E1092C50E1092C40EB093CB0EA0931A
:1038A000CA0E8EE090E00E94A5389EAF8DAFFC015D
:1038B000118210821382128215821482178216825C
:1038C0001186108613861286158614861092CC0EE9
:1038D00087E28093CD0E82EE93E09093CF0E80939B
:1038E000CE0E1092D10E1092D00E1092D50E1092D4
:1038F000D40E1092D70E1092D60E1092D30E1092B4
:10390000D20EF093D90EE093D80E8EE090E00E9494
:10391000A53821969FAF8EAF2197DC0111961C929E
:103920001E9213961C921E92129715961C921E922E
:10393000149717961C921E92169719961C921E9217
:1039400018971B961C921E921A971D961C921E92F7
:103950001C971092DA0E88E28093DB0E8EEE93E0D5
:103960009093DD0E8093DC0E1092DF0E1092DE0E2F
:103970001092E30E1092E20E1092E50E1092E40EF9
:103980001092E10E1092E00EB093E70EA093E60EB7
:103990008EE090E00E94A53823969FAF8EAF2397CC
:1039A000FC01118210821382128215821482178206
:1039B0001682118610861386128615861486A8EE46
:1039C000BEE01C9289E28093E90E8BEF93E0909326
:1039D000EB0E8093EA0E1092ED0E1092EC0E109208
:1039E000F10E1092F00E1092F30E1092F20E109251
:1039F000EF0E1092EE0EF093F50EE093F40E8EE0C3
:103A000090E00E94A53825969FAF8EAF2597FC01C8
:103A100011821082138212821582148217821682FA
:103A2000118610861386128615861486A6EFBEE0D0
:103A30001C928AE28093F70E88E094E09093F90E4E
:103A40008093F80E1092FB0E1092FA0E1092FF0E59
:103A50001092FE0E1092010F1092000F1092FD0EA8
:103A60001092FC0EF093030FE093020F8EE090E0B3
:103A70000E94A53827969FAF8EAF2797FC01118231
:103A80001082138212821582148217821682118686
:103A900010861386128615861486A4E0BFE01C9259
:103AA0008BE28093050F85E194E09093070F80935C
:103AB000060F1092090F1092080F10920D0F10921E
:103AC0000C0F10920F0F10920E0F10920B0F1092FE
:103AD0000A0FF093110FE093100F8EE090E00E9418
:103AE000A53829969FAF8EAF2997FC0111821082CD
:103AF0001382128215821482178216821186108612
:103B00001386128615861486A2E1BFE01C928CE211
:103B10008093130F82E294E09093150F8093140F1B
:103B20001092170F1092160F10921B0F10921A0F6F
:103B300010921D0F10921C0F1092190F1092180F57
:103B4000F0931F0FE0931E0F8EE090E00E94A538C7
:103B50001C01FC01118210821382128215821482D0
:103B60001782168211861086138612861586148691
:103B7000A0E2BFE01C928DE28093210F8DE294E0E1
:103B80009093230F8093220F1092250F1092240FF1
:103B90001092290F1092280F10922B0F10922A0FBB
:103BA0001092270F1092260F30922D0F20922C0F7B
:103BB0008EE090E00E94A5382C01FC011182108259
:103BC0001382128215821482178216821186108641
:103BD0001386128615861486AEE2BFE01C928EE232
:103BE00080932F0F88E394E09093310F8093300FF0
:103BF0001092330F1092320F1092370F1092360F2F
:103C00001092390F1092380F1092350F1092340F16
:103C100050923B0F40923A0F8EE090E00E94A53800
:103C20003C01FC01118210821382128215821482DF
:103C300017821682118610861386128615861486C0
:103C4000ACE3BFE01C928FE280933D0F85E494E0EB
:103C500090933F0F80933E0F1092410F1092400FB0
:103C60001092450F1092440F1092470F1092460F7A
:103C70001092430F1092420F7092490F6092480FBA
:103C80008EE090E00E94A5384C01FC011182108268
:103C90001382128215821482178216821186108670
:103CA0001386128615861486AAE4BFE01C9280E370
:103CB00080934B0F82E594E090934D0F80934C0FCF
:103CC00010924F0F10924E0F1092530F1092520FEE
:103CD0001092550F1092540F1092510F1092500FD6
:103CE0009092570F8092560F8EE090E00E94A53878
:103CF0005C01FC01118210821382128215821482EF
:103D000017821682118610861386128615861486EF
:103D1000A8E5BFE01C9281E38093590F8EE594E003
:103D200090935B0F80935A0F10925D0F10925C0F6F
:103D30001092610F1092600F1092630F1092620F39
:103D400010925F0F10925E0FB092650FA092640FF9
:103D50008EE090E00E94A5386C01FC011182108277
:103D6000138212821582148217821682118610869F
:103D70001386128615861486A6E6BFE01C9282E39F
:103D80008093670F8AE694E09093690F8093680FA1
:103D900010926B0F10926A0F10926F0F10926E0FAD
:103DA0001092710F1092700F10926D0F10926C0F95
:103DB000D092730FC092720F8EE090E00E94A538EF
:103DC0007C01FC01118210821382128215821482FE
:103DD000178216821186108613861286158614861F
:103DE000A4E7BFE01C9283E38093750F86E794E01D
:103DF0009093770F8093760F1092790F1092780F2F
:103E000010927D0F10927C0F10927F0F10927E0FF8
:103E100010927B0F10927A0FF092810FE092800F38
:103E20008EE090E00E94A5388C01FC011182108286
:103E300013821282158214821782168211861086CE
:103E40001386128615861486A2E8BFE01C9284E3CE
:103E50008093830F83E894E09093850F8093840F81
:103E60001092870F1092860F10928B0F10928A0F6C
:103E700010928D0F10928C0F1092890F1092880F54
:103E800010938F0F00938E0F8EE090E00E94A53864
:103E90002B969FAF8EAF2B97FC011182108213825D
:103EA000128215821482178216821186108613865A
:103EB000128615861486A0E9BFE01C9285E38093E4
:103EC000910F80E994E09093930F8093920F10925A
:103ED000950F1092940F1092990F1092980F1092C4
:103EE0009B0F10929A0F1092970F1092960FF093CB
:103EF0009D0FE0939C0F8EE090E00E94A538FC019E
:103F00001182108213821282158214821782168205
:103F1000158614866EE97FE0DB011C9286E38093B0
:103F20009F0F8BE994E09093A10F8093A00F1092C4
:103F3000A30F1092A20F1092A70F1092A60F10922B
:103F4000A90F1092A80F1092A50F1092A40FF09332
:103F5000AB0FE093AA0F81E08093AC0F1092AD0FEE
:103F600088EA94E09093AF0F8093AE0F1092B10F58
:103F70001092B00F1092B50F1092B40F1092B70FAD
:103F80001092B60F1092B30F1092B20F28EB3FE0D1
:103F900084E6D9011D928A95E9F748E25DE0D901EE
:103FA0004D935C9386E39DE09093BB0F8093BA0F93
:103FB000A4E4BDE0B093BD0FA093BC0F22E53DE0AB
:103FC0003093BF0F2093BE0F40E65DE05093C10FCA
:103FD0004093C00F8EE69DE09093C30F8093C20F75
:103FE000ACE7BDE0B093C50FA093C40F2AE83DE055
:103FF0003093C70F2093C60F48E95DE05093C90F77
:104000004093C80F86EA9DE09093CB0F8093CA0F30
:10401000A4EBBDE0B093CD0FA093CC0F2EED3DE00F
:104020003093CF0F2093CE0F42EC5DE05093D10F31
:104030004093D00F8CEE9DE09093D30F8093D20FDE
:10404000AAEFBDE0B093D50FA093D40F28E03EE0D7
:104050003093D70F2093D60F46E15EE05093D90FEF
:104060004093D80F84E29EE09093DB0F8093DA0FA9
:10407000A0EDBDE0B093DD0FA093DC0F22E33EE0A6
:104080003093DF0F2093DE0F40E45EE05093E10FAA
:104090004093E00F8EE49EE09093E30F8093E20F55
:1040A000ACE5BEE0B093E50FA093E40F2AE63EE056
:1040B0003093E70F2093E60F48E75EE05093E90F57
:1040C0004093E80F86E89EE09093EB0F8093EA0F11
:1040D000A4E9BEE0B093ED0FA093EC0F22EA3EE01E
:1040E0003093EF0F2093EE0F40EB5EE05093F10F13
:1040F0004093F00F8EEB9EE09093F30F8093F20FBE
:10410000ACECBEE0B093F50FA093F40F2AED3EE0C7
:104110003093F70F2093F60F48EE5EE05093F90FBF
:104120004093F80F86EF9EE09093FB0F8093FA0F79
:10413000A4E0BFE0B093FD0FA093FC0F22E13FE0AD
:104140003093FF0F2093FE0F40E25FE05093011089
:10415000409300108EE29FE0909303108093021032
:10416000ACE3BFE0B0930510A09304102AE43FE055
:10417000309307102093061048E55FE05093091034
:104180004093081086E69FE090930B1080930A10EE
:10419000A4E7BFE0B0930D10A0930C1022E83FE01D
:1041A00030930F1020930E1040E95FE050931110F0
:1041B00040931010709313106093121028EF33E0A7
:1041C000A981BA8119963C932E93189748E25DE035
:1041D0001B965C934E931A97AB81BC8119963C93C6
:1041E0002E93189746E35DE01B965C934E931A97C7
:1041F000AD81BE8119963C932E93189744E45DE0FF
:104200001B965C934E931A974CE753E0AF81B885A9
:1042100019965C934E93189782E59DE01B969C93AC
:104220008E931A97A985BA8519965C934E93189721
:1042300080E69DE01B969C938E931A97AB85BC8578
:1042400019965C934E9318978EE69DE01B969C936F
:104250008E931A97AD85BE8519965C934E931897E9
:104260004CE75DE01B965C934E931A9747EF53E043
:10427000AF85B88919965C934E9318978AE89DE0AC
:104280001B969C938E931A97A989BA8919965C9369
:104290004E93189788E99DE01B969C938E931A97EE
:1042A000AB89BC8919965C934E93189786EA9DE07A
:1042B0001B969C938E931A97AD89BE8919965C9331
:1042C0004E93189744EB5DE01B965C934E931A97C0
:1042D000AB8DBC8D19963C932E9318974EED5DE0F7
:1042E0001B965C934E931A9740ED5DE0A98DBA8DB5
:1042F0001B965C934E931A97AF89B88D19963C9391
:104300002E93189742EC5DE01B965C934E931A97A0
:104310008BE393E0AD8DBE8D19969C938E93189789
:104320004CEE5DE01B965C934E931A978AEF92E0F9
:10433000AF8DB8A119969C938E9318974AEF5DE0C4
:104340001B965C934E931A97A9A1BAA119963C9318
:104350002E93189748E05EE01B965C934E931A9755
:10436000ABA1BCA119963C932E93189746E15EE051
:104370001B965C934E931A97ADA1BEA119963C93E0
:104380002E93189744E25EE01B965C934E931A9727
:1043900082EC93E0A98DBA8D19969C938E93189711
:1043A000AFA1B8A519963C932E93189742E35EE00F
:1043B0001B965C934E931A97A9A5BAA519963C93A0
:1043C0002E93189740E45EE01B965C934E931A97E9
:1043D000ABA5BCA519963C932E9318974EE45EE0CE
:1043E0001B965C934E931A97ADA5BEA519963C9368
:1043F0002E9318974CE55EE01B965C934E931A97AC
:10440000AFA5B8A919963C932E9318974AE65EE09B
:104410001B965C934E931A97A9A9BAA919963C9337
:104420002E93189748E75EE01B965C934E931A977D
:10443000ABA9BCA919963C932E93189746E85EE069
:104440001B965C934E931A97ADA9BEA919963C93FF
:104450002E93189744E95EE01B965C934E931A974F
:10446000AFA9B8AD19963C932E93189742EA5EE037
:104470001B965C934E931A97A9ADBAAD19963C93CF
:104480002E93189740EB5EE01B965C934E931A9721
:10449000ABADBCAD19963C932E9318974EEB5EE0F6
:1044A0001B965C934E931A97ADADBEAD19963C9397
:1044B0002E9318974CEC5EE01B965C934E931A97E4
:1044C0002196AEADBFAD219719963C932E931897C8
:1044D0004AED5EE01B965C934E931A972396AEAD21
:1044E000BFAD239719963C932E93189748EE5EE044
:1044F0001B965C934E931A972596AEADBFAD25974C
:1045000019963C932E93189746EF5EE01B965C93AA
:104510004E931A972796AEADBFAD279719963C9349
:104520002E93189744E05FE01B965C934E931A9786
:104530002996AEADBFAD299719963C932E93189747
:1045400042E15FE01B965C934E931A97D101199656
:104550003C932E93189740E25FE01B965C934E933A
:104560001A97D20119963C932E9318974EE25FE06A
:104570001B965C934E931A97D30119963C932E93F6
:1045800018974CE35FE01B965C934E931A97D40107
:1045900019963C932E9318974AE45FE01B965C9320
:1045A0004E931A97D50119963C932E93189748E588
:1045B0005FE01B965C934E931A97D60119963C9335
:1045C0002E93189746E65FE01B965C934E931A97DE
:1045D000D70119963C932E93189744E75FE01B96FA
:1045E0005C934E931A97D80119963C932E93189783
:1045F00042E85FE01B965C934E931A972B96AEAD04
:10460000BFAD2B9719963C932E93189740E95FE026
:104610001B965C934E931A97318720877387628726
:1046200061E070E087ED9BE00E945F3362E070E044
:1046300082E99AE00E945F3363E070E08DE499E0E4
:104640000E945F3364E070E088E098E00E945F338E
:10465000E0E0F8E0128213821482158284E79EE083
:104660009183808385E090E097838683C65BDF4FEC
:104670000FB6F894DEBF0FBECDBFDF91CF911F9173
:104680000F91FF90EF90DF90CF90BF90AF909F90F1
:104690008F907F906F905F904F903F902F900895F4
:1046A000CF93DF93CDB7DEB7C75DD1090FB6F894CE
:1046B000DEBF0FBECDBF789484B5826084BD84B563
:1046C000816084BD85B5826085BD85B5816085BD0D
:1046D00080916E00816080936E00109281008091C5
:1046E000810082608093810080918100816080934D
:1046F0008100809180008160809380008091B10072
:1047000084608093B1008091B00081608093B0009C
:1047100080919100826080939100809191008160EE
:1047200080939100809190008160809390008091AF
:10473000A10082608093A1008091A100816080939C
:10474000A1008091A00081608093A0008091210150
:1047500082608093210180912101816080932101F9
:104760008091200181608093200180917A00846093
:1047700080937A0080917A00826080937A008091A1
:104780007A00816080937A0080917A0080688093BB
:104790007A001092C10086E690E00E94A538FC01E4
:1047A00080E991E19183808382E991E1938382831F
:1047B00084E991E19583848386E991E197838683F7
:1047C00088E991E1918780878AE991E193878287DF
:1047D0008CE991E1958784878EE991E197878687B7
:1047E00080EA91E1918B808B82EA91E1938B828BBD
:1047F00084EA91E1958B848B86EA91E1978B868B95
:1048000088EA91E1918F808F8AEA91E1938F828F7C
:104810008CEA91E1958F848F8EEA91E1978F868F54
:1048200080EB91E191A380A382EB91E193A382A31A
:1048300084EB91E195A384A386EB91E197A386A3F2
:1048400088EB91E191A780A78AEB91E193A782A7DA
:104850008CEB91E195A784A78EEB91E197A786A7B2
:1048600080EC91E191AB80AB82EC91E193AB82ABB8
:1048700084EC91E195AB84AB86EC91E197AB86AB90
:1048800088EC91E191AF80AF8AEC91E193AF82AF78
:104890008CEC91E195AF84AF8EEC91E197AF86AF50
:1048A000DF01A05CBF4F80ED91E111969C938E9348
:1048B000129682ED91E111969C938E93129684ED5F
:1048C00091E111969C938E93129686ED91E111964B
:1048D0009C938E93129688ED91E111969C938E9302
:1048E00012968AED91E111969C938E9312968CED1F
:1048F00091E111969C938E9312968EED91E1119613
:104900009C938E93129680EE91E111969C938E93D8
:10491000129682EE91E111969C938E93129684EEFC
:1049200091E111969C938E93129686EE91E11196E9
:104930009C938E93129688EE91E111969C938E93A0
:1049400012968AEE91E111969C938E9312968CEEBC
:1049500091E111969C938E9312968EEE91E11196B1
:104960009C938E93129680EF91E111969C938E9377
:10497000129682EF91E111969C938E93129684EF9A
:1049800091E18D939C93F0938F11E0938E1140E011
:1049900051EE60E070E08CE190E10E9436081092E8
:1049A0002E1110922D1110927711109276111092F3
:1049B000551181E08093541110922F1161E084E130
:1049C0000E94481361E085E10E9448138091B9007C
:1049D0008E7F8093B9008091B9008D7F8093B9005C
:1049E00088E48093B80085E48093BC008CE891E073
:1049F00090932C1180932B118DE891E090932A11C4
:104A00008093291140E855E260E070E085E597E089
:104A10000E94541040E051EE60E070E08EE795E0B7
:104A20000E94541082E495E00E94570280EB94E0CB
:104A30000E94570288EB94E00E945702E0918E1189
:104A4000F0918F11E280F38004811581C684D784B0
:104A5000CF55DF4FD982C882C15AD0406089718951
:104A6000428953898489958980A091A042A053A04E
:104A700024A135A1CD52DF4F39832883C35DD040B7
:104A8000A6A1B7A1C553DF4FB983A883CB5CD040A3
:104A9000C0A4D1A4C153DF4FD982C882CF5CD0401B
:104AA00022A533A5C754DF4F39832883C95BD04083
:104AB000A4A5B5A5C954DF4FB983A883C75BD0406F
:104AC000C6A4D7A4C554DF4FD982C882CB5BD040DF
:104AD00020A931A9CD55DF4F39832883C35AD0404F
:104AE000A2A9B3A9CF52DF4FB983A883C15DD0403B
:104AF000C4A8D5A8C353DF4FD982C882CD5CD040AB
:104B000026A937A9C155DF4F39832883CF5AD04012
:104B1000A0ADB1ADC154DF4FB983A883CF5BD04006
:104B2000C2ACD3ACC753DF4FD982C882C95CD04076
:104B300024AD35ADCD53DF4F39832883C35CD040DE
:104B4000A6ADB7ADC955DF4FB983A883C75AD040CA
:104B50009F01205C3F4FD9010D90BC91A02DC55500
:104B6000DF4FB983A883CB5AD0402E5F3F4FD90186
:104B70000D90BC91A02DCD54DF4FB983A883C35BAA
:104B8000D0402E5F3F4FD9010D90BC91A02DC35452
:104B9000DF4FB983A883CD5BD0402E5F3F4FD90153
:104BA0000D90BC91A02DCF53DF4FB983A883C15C7A
:104BB000D0402E5F3F4FD9010D90BC91A02DCB531B
:104BC000DF4FB983A883C55CD0402E5F3F4FD9012A
:104BD0000D90BC91A02DC953DF4FB983A883C75C4A
:104BE000D0402E5F3F4FD9012D903C902E5F3F4F1C
:104BF000D901CD90DC902E5F3F4FD9016D907C9014
:104C00002E5F3F4FD901AD90BC902E5F3F4FD90131
:104C10002D913C91A091340DB091350D0190F08112
:104C2000E02D1396FC93EE931297E091420DF091D4
:104C3000430DF382E282E091500DF091510D138308
:104C40000283E091CE0DF091CF0DCF55DF4FE8807C
:104C5000F980C15AD040F382E282E091EA0DF091EE
:104C6000EB0D73836283E091DC0DF091DD0D5383D6
:104C70004283E091220EF091230E93838283E09190
:104C8000300EF091310E93838283E0913E0EF091CD
:104C90003F0E93828282E0914C0EF0914D0E538232
:104CA0004282E0915A0EF0915B0ECD52DF4F0881A7
:104CB0001981C35DD04013830283E091680EF091A7
:104CC000690EC553DF4F48815981CB5CD040538377
:104CD0004283E091760EF091770EC153DF4F8881C9
:104CE0009981CF5CD04093838283E091840EF091D0
:104CF000850EC754DF4FA881B981C95BD040B3830B
:104D0000A283E091920EF091930EC954DF4FE88098
:104D1000F980C75BD040F382E282E091A00EF0916F
:104D2000A10EC554DF4F08811981CB5BD04013839E
:104D30000283E091AE0EF091AF0ECD55DF4F48816A
:104D40005981C35AD04053834283E091BC0EF09105
:104D5000BD0ECF52DF4F88819981C15DD0409383D2
:104D60008283E091CA0EF091CB0EC353DF4FA8812E
:104D7000B981CD5CD040B383A283E091D80EF0918D
:104D8000D90EC155DF4FE880F980CF5AD040F38269
:104D9000E282E091E60EF091E70EC154DF4F088108
:104DA0001981CF5BD04013830283E091F40EF09120
:104DB000F50EC753DF4F48815981C95CD0405383FA
:104DC0004283E091020FF091030FCD53DF4F8881B2
:104DD0009981C35CD04093838283E091100FF0915E
:104DE000110FC955DF4FA881B981C75AD040B3838D
:104DF000A283E0911E0FF0911F0FC555DF4FE88091
:104E0000F980CB5AD040F382E282E0912C0FF091EE
:104E10002D0FCD54DF4F08811981C35BD040138320
:104E20000283E0913A0FF0913B0FC354DF4F48816A
:104E30005981CD5BD04053834283E091480FF0917C
:104E4000490FCF53DF4F88819981C15CD040938354
:104E50008283E091560FF091570FCB53DF4FA8811B
:104E6000B981C55CD040B383A283E091640FF09117
:104E7000650FC953DF4FE880F980C75CD040F382EB
:104E8000E282E091720FF091730F33822282E091FF
:104E9000800FF091810FD382C282E0918E0FF0914A
:104EA0008F0F73826282E0919C0FF0919D0FB3820D
:104EB000A282E091AA0FF091AB0F338322830E946C
:104EC000FE136B017C0140E855E260E070E08EE784
:104ED00090E10E9436088091000290910102892B96
:104EE00061F1E0E0F2E081919191009781F0DC01C5
:104EF000A45CBE4FCD92DD92ED92FC921397A45428
:104F0000B109CD92DD92ED92FC921397ECCF8CE239
:104F100091E09093D2108093D1100E94FE13DC0197
:104F2000CB018C599F4FAF4FBF4F8093831190930C
:104F30008411A0938511B09386110DB71EB7025648
:104F400011090FB6F8941EBF0FBE0DBFADB7BEB7A7
:104F5000119682E6EEE7F0E101900D928A95E1F775
:104F600087ED9BE00E94ED070FB6F894DEBF0FBE01
:104F7000CDBF4DB75EB7425651090FB6F8945EBF2C
:104F80000FBE4DBFADB7BEB7119682E6EEE7F0E1BA
:104F900001900D928A95E1F782E99AE00E94ED076F
:104FA0000FB6F894DEBF0FBECDBFADB7BEB7A256E9
:104FB000B1090FB6F894BEBF0FBEADBF119682E621
:104FC000EEE7F0E101900D928A95E1F78DE499E02A
:104FD0000E94ED070FB6F894DEBF0FBECDBF0DB730
:104FE0001EB7025611090FB6F8941EBF0FBE0DBFB3
:104FF000ADB7BEB7119682E6EEE7F0E101900D92F3
:105000008A95E1F788E098E00E94ED070FB6F894E2
:10501000DEBF0FBECDBF8FEB94E00E94B2118E01B8
:105020000F5F1F4FCF55DF4F19830883C15AD04000
:1050300020E931E1309368102093671084E6809373
:105040007D1080912110843028F480911C10909163
:105050001D1004C080911E1090911F10DC01ED9175
:10506000FC910084F185E02D1995882309F4CEC0C8
:1050700090916610891769F0809366100E94FE1364
:1050800060937110709372108093731090937410EA
:10509000BDC00E94FE1300917110109172102091FA
:1050A000731030917410DC01CB01801B910BA20BAB
:1050B000B30B0597A105B10508F4A8C010926610BE
:1050C0008CE190E10E943C068093241087300CF420
:1050D0009DC09091251080912010981397C06091E9
:1050E0006510062F10E062508CE190E10E946E0581
:1050F000F801E45EFF4E278130E0322F2227408501
:10510000242B2817390759F080916D1090916E105B
:10511000019690936E1080936D101FEF3BC020910D
:105120002610E4E4F2E08191821711F40C94C53169
:105130007CE4C72E72E0D72ECE16DF06A1F7809151
:105140006D1090916E10019690936E1080936D107B
:1051500011E013C08091271090912810982789277B
:10516000982734E0969587953A95E1F790917D10D0
:10517000981710F00C94033212E080E8820F8093AD
:1051800026101093271083E0809365108CE190E146
:105190000E948B051093241039C020912710309164
:1051A00028103227232732276091291070912A1066
:1051B000762767277627CB0103E0969587950A9592
:1051C000E1F7A82FFB01E770FF27309711F0A1E06E
:1051D000A80FA093271083E080936510B0E0A45E31
:1051E000BF4E1B961C92620F731F90E062177307ED
:1051F00011F00C941F3280936510EF2B19F08F5F24
:10520000809365108CE190E10E948B050E94FE1353
:1052100000917F11109180112091811130918211A4
:105220006B017C01C01AD10AE20AF30A97018601D8
:10523000053611052105310508F498C0E0918E115D
:10524000F0918F11A08DB18D2C9120937A11A28DA8
:10525000B38DEC90E0927B11A48DB58DFC90F09213
:105260007C11A089B1890C9100937D11068CF78D7A
:10527000E02D108110937E1160937F117093801147
:10528000809381119093821181E08093781188E05E
:10529000809379111092771110927611622F84EF1A
:1052A00097E00E94E6016E2D84EF97E00E94E601F0
:1052B0006F2D84EF97E00E94E601602F84EF97E066
:1052C0000E94E601612F84EF97E00E94E601909131
:1052D0007611913208F044C0809155118111FCCFB4
:1052E00082E08093551181E0809354118FEF809379
:1052F00053111092521190935111A6E5B1E1E1E3DF
:10530000F1E180E0981721F02D9121938F5FFACF82
:105310001092301180913011806180933011809112
:105320002F11813061F410922F11809130118093F0
:10533000BB008091BC0083FDF8CF85EC01C085EEF9
:105340008093BC00809155118230E1F3809153111C
:105350008F3F31F080915311803211F080915311C1
:1053600010927711109276111092781100918E118F
:1053700010918F11D8011696ED91FC9117978081AD
:1053800091810E94F3116093D70B7093D80B809397
:10539000D90B9093DA0BD8011896ED91FC911997DF
:1053A000808191810E94F3116093920A7093930A15
:1053B0008093940A9093950AD8011A96ED91FC91E6
:1053C0001B97808191810E94F31160934D09709326
:1053D0004E0980934F0990935009D8011C96ED9186
:1053E000FC911D97808191810E94F31160930808C0
:1053F0007093090880930A0890930B080E94FE138B
:1054000080E2CF55DF4FE881F981C15AD040119237
:105410008A95E9F744E04A8320E130E13C832B831D
:1054200086E190E09E838D834A873C872B879E8709
:105430008D874A8B3C8B2B8B9E8B8D8B4A8F3C8F21
:105440002B8F9E8F8D8F8091000290910102FC0125
:10545000EC5AFF4F208129834E9698878F83809145
:10546000020290910302FC01EC5AFF4F2081298730
:105470004E96988B8F878091040290910502FC01D3
:10548000EC5AFF4F2081298B4E96988F8F8B8091FD
:10549000060290910702FC01EC5AFF4F2081298FF0
:1054A0004E9698A38F8F80918811909189110497BF
:1054B00024F0109289111092881180918711813007
:1054C000B9F020F0823009F4EFC011C10E94FE1340
:1054D00000918311109184112091851130918611D2
:1054E000061717072807390708F001C181E0D9C05E
:1054F000E0918811F091891153E0EE0FFF1F5A954A
:10550000E1F7CC24C394D12CCC0EDD1EEC0DFD1D97
:105510003081218142815381848195810680F78188
:10552000E02D609182106111B9C060918510611108
:10553000B5C06FEF630F673F08F0B0C0F093CA10BB
:10554000E093C910309387102093881050938910EE
:1055500040938A102530D1F040F4213008F495C0F2
:1055600090938B1080938C101CC02F30F1F0203161
:1055700009F45FC0263009F088C0818180938B10C8
:10558000808180938C102093C7107FC081E02081A0
:105590003181232B09F480E0819580938B10109248
:1055A0008C1086E08093C71070C09C0144E0369553
:1055B00027954A95E1F7220FAC014F705527452BEF
:1055C00009F02F5F90938B1080938C1020938D1097
:1055D00087E08093C71040E050E030E04217530767
:1055E00008F053C01091C710CA019695879540FFE7
:1055F0000CC0A12FB0E0BD0162587F4E880F991FEB
:105600008E0F9F1FDC018C910BC0612F70E06258E0
:105610007F4E880F991FDF01A80FB91F11968C913B
:10562000DB0119968C931F5F1093C7104F5F5F4F7C
:10563000D5CF90938B1080938C10282F220F20931E
:105640008D1027E02093C71020E030E0281739079D
:10565000E1F06091C710A62FB0E0A258BF4E718153
:1056600019967C93A1E0A60FA093C710B0E08D011E
:1056700002581F4E40813296D80119964C936E5FA6
:105680006093C7102F5F3F4FE1CF8EE790E10E94FC
:105690008B0581E080938510109286108091871190
:1056A0008F5F8093871123C08EE790E10E94B70639
:1056B0008091851081111BC0109287110E94FE13EA
:1056C000DC01CB018C599F4FAF4FBF4F80938311AB
:1056D00090938411A0938511B093861180918811C5
:1056E00090918911019690938911809388118091EE
:1056F000000290910102892B09F420C200E012E01F
:10570000CD55DF4F19830883C35AD040CD55DF4FA5
:10571000A881B981C35AD0402D903D90CD55DF4F1F
:10572000B983A883C35AD0402114310409F406C2B6
:10573000F101A4A1B5A122A133A16081718182816F
:105740009381EC5BFE4F4081442389F0890120E086
:1057500030E0980111270027A90198012A0F3B1F6B
:10576000411D511D0E948B364B015C0103C0812CF1
:10577000912C54016101FCEFCF1AFEEFDF0A810189
:10578000045D1E4FC954DF4F19830883C75BD040A7
:10579000412C512C40E8642E4FE3742EC955DF4F45
:1057A0001882C75AD040C555DF4F1882CB5AD04017
:1057B000C155DF4F1882CF5AD040CD54DF4F1882E9
:1057C000C35BD040D601EC901196FC9011971296D5
:1057D0000C91129713961C9120E030E0A901B701BB
:1057E000C8010E9426368823D9F1A5019401B7018A
:1057F000C8010E94263687FF33C0C955DF4F288174
:10580000C75AD040C555DF4F3881CB5AD040C1551B
:10581000DF4F4881CF5AD040CD54DF4F5881C35B12
:10582000D040B701C8010E9482381816CCF4F601A6
:105830004480558066807780C955DF4FE882C75A1B
:10584000D040C555DF4FF882CB5AD040C155DF4F0D
:105850000883CF5AD040CD54DF4F1883C35BD0406C
:10586000F8E0CF0ED11CC954DF4FE880F980C75B48
:10587000D040EC14FD0409F0A5CFA3019201C501AD
:10588000B4010E948B364B015C01D10118966D93D7
:105890007D938D939C931B9781010E5B1E4FC95581
:1058A000DF4F19830883C75AD040D8016D917C918E
:1058B000072E000C880B990B0E942C366B017C0183
:1058C0009B01AC01C501B4010E948B36A701960172
:1058D0000E948B362BED3FE049E45FE30E948B365C
:1058E00020E030E04AE754E40E94E9376B017C0194
:1058F000F1016483758386839783E05CFE4F60814A
:105900007181072E000C880B990B0E942C369B018D
:10591000AC01C701B6010E94263618163CF0D10131
:1059200014961D921D921D921C9217970E94FE13B1
:10593000F10166A577A5CB01A0E0B0E0DC019927D5
:105940008827C2A8D3A8E12CF12C7601DD24CC2431
:1059500024A935A9C20ED31EE11CF11C20A931A92E
:10596000BC01CD01620F731F811D911D0E942A365B
:10597000A70196010E948537D1012D913D914D914E
:105980005C910E948B36F101648B758B868B978BB3
:105990000E94FE13F101E850FF4F00811181228126
:1059A00033816B017C01C01AD10AE20AF30A44EF89
:1059B000C41641E0D406E104F10408F4A7CE810145
:1059C0000A5A1F4FD801CD90DC907101BCEFEB0E4D
:1059D000F11CD7012D913C9111972C153D0514F028
:1059E0001D921C926083718382839383F7012081CF
:1059F00031812A5E3F4F220F331F220F331FF101E7
:105A0000E20FF31FD10118964D915D916D917C913C
:105A10001B974083518362837383CF55DF4FE881A7
:105A2000F981C15AD04020EA11922A95E9F7A85A83
:105A3000BF4FAE014F5F5F4F5A01FA0120E030E0E7
:105A40002C153D055CF44D915D916D917D914193D7
:105A50005193619371932F5F3F4FF2CF28E132E072
:105A600044E050E0B601CE01019609D7D8010D916E
:105A70001C9117FF02C000E010E0C12CD12C412C7A
:105A8000512C32010C151D0581F0F5012191319148
:105A9000419151915F01C301B2010E9485372B01F1
:105AA0003C01FFEFCF1ADF0AEDCFB801110F880BD1
:105AB000990B0E942C369B01AC01C301B2010E94DC
:105AC000E9372B013C01D10150966D937D938D9365
:105AD0009C935397C955DF4FE881F981C75AD0404D
:105AE00060817181072E000C880B990B0E942C3667
:105AF0004B015C019B01AC01C301B2010E948B36DA
:105B0000A50194010E948B362BED3FE049E45FE351
:105B10000E948B3620E030E04AE754E40E94E937E7
:105B2000D1011C966D937D938D939C931F97F701E4
:105B300080819181019691838083E8CD4090DB0B39
:105B40005090DC0B6090DD0B7090DE0BC090EB0B87
:105B5000D090EC0BE090ED0BF090EE0BC955DF4FC1
:105B6000C882D982EA82FB82C75AD0408090960AC6
:105B70009090970AA090980AB090990AE090A60A8F
:105B8000F090A70A0091A80A1091A90ACD55DF4FFD
:105B9000E882F9820A831B83C35AD040C09051091E
:105BA000D0905209E0905309F09054090091610996
:105BB000109162092091630930916409C555DF4F46
:105BC000088319832A833B83CB5AD04020910C0849
:105BD00030910D0840910E0850910F08C155DF4FCC
:105BE000288339834A835B83CF5AD04080911C0835
:105BF00090911D08A0911E08B0911F08CD54DF4F51
:105C000088839983AA83BB83C35BD04000917A0DBC
:105C100010917B0D20E030E040E752E4C301B20177
:105C20000E948B360E945638D80115967C936E934D
:105C300014970091880D1091890D20E030E040E725
:105C400052E4C501B4010E948B360E945638F80117
:105C50007583648300916C0D10916D0D20E030E030
:105C600040E752E4C701B6010E948B360E945638C5
:105C7000D80115967C936E93149700915E0D109148
:105C80005F0D20E030E040E752E4C155DF4F68810E
:105C900079818A819B81CF5AD0400E948B360E94A5
:105CA0005638F801758364830091960D1091970D15
:105CB00020E030E040E251E4C955DF4F688179814E
:105CC0008A819B81C75AD0400E948B3620E030E009
:105CD0004AE754E40E94E9370E945638D8011596E5
:105CE0007C936E9314970091A40D1091A50D20E064
:105CF00030E040E251E4CD55DF4F688179818A81FF
:105D00009B81C35AD0400E948B3620E030E04AE7A6
:105D100054E40E94E9370E945638F8017583648381
:105D20000091C00D1091C10D20E030E040E251E43F
:105D3000C555DF4F688179818A819B81CB5AD040DC
:105D4000EAD720E030E04AE754E40E94E9370E94B5
:105D50005638D80115967C936E9314970091B20D26
:105D60001091B30D20E030E040E251E4CD54DF4F1C
:105D7000688179818A819B81C35BD040CCD720E048
:105D800030E04AE754E40E94E9370E945638F801AF
:105D90007583648320908E1130908F11F101EA5A3F
:105DA000FF4F00811181C301B2010E945638D80112
:105DB0006D937C93F101E85AFF4F00811181C50179
:105DC000B4010E945638F80171836083F101E65AEC
:105DD000FF4F00811181C701B6010E945638D801DA
:105DE0006D937C93F101E45AFF4F00811181C155FD
:105DF000DF4F688179818A819B81CF5AD0400E9490
:105E00005638F80171836083F101E25AFF4F008137
:105E10001181C955DF4F688179818A819B81C75A79
:105E2000D0400E945638D8016D937C93F101E05A1E
:105E3000FF4F00811181CD55DF4F688179818A81C3
:105E40009B81C35AD0400E945638F8017183608309
:105E5000F101EE59FF4F00811181C555DF4F688177
:105E600079818A819B81CB5AD0400E945638D801D3
:105E70006D937C93F101EC59FF4F00811181CD545A
:105E8000DF4F688179818A819B81C35BD0400E940A
:105E90005638F8017183608300E012E0CD55DF4F82
:105EA00019830883C35AD040C12CD12C7601D80164
:105EB000ED91FD918D01309759F02485358546850A
:105EC0005785C701B6010E9485376B017C01EFCF72
:105ED00000E012E0812C912C5401D801ED91FD914C
:105EE0008D01309759F02085318542855385C50154
:105EF000B4010E9485374B015C01EFCFD101509670
:105F0000ED91FC915197808191816AE070E0B7D763
:105F10009B01D1015296ED91FC915397A081B181E3
:105F2000E4D724E630E040E050E0BDD729013A0153
:105F300020E030E040E85FE3C501B40187D61816E1
:105F40000CF041C0C0920208D0920308E09204080D
:105F5000F0920508509201084092000820E030E0DD
:105F6000A901C701B60172D6811106C0C12CD12C7E
:105F700080E8E82E8FE3F82E0091060810910708BC
:105F8000A090F80DB090F90DB201550C880B990B4B
:105F900063D6A70196010E94E9370E945138CB01D0
:105FA000B8010E948A38609FC001619F900D709F68
:105FB000900D1124E091060EF091070E95838483D5
:105FC000F501958384830E94FE136B017C0180910F
:105FD0008A1190918B11A0918C11B0918D11970124
:105FE0008601081B190B2A0B3B0B023311052105F7
:105FF000310568F108EB1FE0D801ED91FD918D01AD
:10600000309729F1A485B5851896ED91FC911997E3
:10601000309771F01C966D917C911D971A968D9119
:106020009C911B971995CB52DF4F8883C55DD0405B
:10603000CB52DF4FB881C55DD040BB23E9F2C0929F
:106040008A11D0928B11E0928C11F0928D11E09117
:106050008E11F0918F110190F081E02D21E080816F
:106060009181019709F020E0E0E0F2E081919191C7
:10607000009729F0DC01AC5BBE4F2C93F7CF85E590
:1060800097E00E94EF08892B09F47BC184E1CF558A
:10609000DF4FE881F981C15AD04011928A95E9F722
:1060A0008E010F5F1F4F85E597E00E94EF08892B57
:1060B00071F085E597E00E94CD08D8018D938D01A0
:1060C00065E070E080E090E00E94C613ECCF62EDE6
:1060D00074E0CE0101960E94B33A892B29F487ED32
:1060E00094E00E94B2114DC167EF74E0CE010196B9
:1060F0000E94B33A892B09F012C187EF94E00E9405
:10610000B211CD55DF4FE881F981C35AD0400191DA
:106110001191CD55DF4FF983E883C35AD040011563
:10612000110509F42EC160E075E085E597E00E9455
:106130000911F801EC5AFF4F808191810E940A11E8
:1061400065E075E085E597E00E940911D801189691
:106150006D917D918D919C911B970E9437116EE0FE
:1061600075E085E597E00E94091120E030E040E706
:1061700052E4F8016481758186819781CCD50E94B3
:10618000371167E175E085E597E00E94091120E08D
:1061900030E040E752E4D8011C966D917D918D91DD
:1061A0009C911F97B8D50E9437116EE175E085E587
:1061B00097E00E940911F801C488D588E688F7881D
:1061C000A7019601C701B601A1D7882319F067E29C
:1061D00075E018C046015701E894B7F82FEF3FEF7C
:1061E0004FE75FE7C501B40191D7811110C02FEFD0
:1061F0003FEF4FE75FE7C501B40128D518163CF41F
:106200006BE275E085E597E00E94B71069C02FEF5B
:106210003FEF4FE75FE4C701B60174D718161CF4CF
:106220006FE275E0EFCF2FEF3FEF4FE75FECC70175
:10623000B6010CD587FDF4CF20E030E0A901C701FD
:10624000B60104D587FF09C06DE285E597E00E949D
:106250004109F7FAF094F7F8F0942AE037ED43EAB1
:106260005BE3C701B60151D64B015C011FD76B013F
:106270007C01F0D49B01AC01C501B40145D64B01B2
:106280005C014AE0C701B6010E94C7106EE285E5D5
:1062900097E00E94410920E030E040E251E4C5016E
:1062A000B40139D54B015C0101D76B01E12CF12C14
:1062B0004AE0C701B6010E94C710C701B601CAD49F
:1062C0009B01AC01C501B4011FD620E030E040E2E3
:1062D00051E421D5EBD680E090E04AE00E94C7105F
:1062E00063E375E085E597E00E9409110E94FE13C3
:1062F00028EE33E040E050E0D6D5CA01B9014AE0CB
:106300000E94C7106BE375E085E597E00E940911D4
:1063100060E475E085E597E00E94B710F2CE63E493
:1063200075E0CE0101960E94B33A892BE1F400E9B1
:1063300011E1D8016D917D918D0180E090E04AE0FE
:106340000E94C7106AE475E085E597E00E94091194
:10635000B2E108351B0769F760E475E085E597E071
:106360000E94B7100EC061E772E0CE0101960E9454
:10637000B33A892B31F481E090E0909391118093AE
:1063800090110E94AE090C941828822F90E0FC0115
:106390003197E031F105B8F58827EE58FF4F8F4F60
:1063A000CCC680912710909128109827892798278C
:1063B00044E0969587954A95E1F7409129105091D0
:1063C0002A1054274527542764E0569547956A9527
:1063D000E1F715C080912710909128109827892700
:1063E0000C94B6288091291090912A10582F492F8B
:1063F0008091271090912810982789279827840F3B
:10640000951F0C94B6280E94FE136093751070932C
:106410007610809377109093781010922410E0916A
:1064200026108E2F90E0FC013197E031F10510F03D
:106430000C9406298827EE57FF4F8F4F7EC6D9014F
:1064400013E0B695A7951A95E1F7AE7FB170A05706
:10645000BE4E0D90BC91A02D422F4F7002C0B6953C
:10646000A7954A95E2F7482F50E0A0FF14C0DA0143
:10647000A45EBF4E19964C911997C12CD12C760170
:10648000C394092E04C0CC0CDD1CEE1CFF1C0A9426
:10649000D2F7C42A14C0DA01A45EBF4EC12CD12C9D
:1064A0007601C394092E04C0CC0CDD1CEE1CFF1C2D
:1064B0000A94D2F7C09419964C911997C422199650
:1064C000CC929F5F983010F08F5F90E02F5F3F4F2E
:1064D0000C94F628409127105091281054274527F6
:1064E000942F2091291030912A1032272327322708
:1064F000822F880F8093271083E03327240F311DCC
:1065000042E0480FE92FF0E0E217F30714F00C9493
:106510000029EE0FFF1FE057FE4E50816181E82FEA
:10652000F0E0E45EFF4E61878F5FE82FF0E0E45E0D
:10653000FF4E51879F5F842FE3CF8091271090916A
:106540002810982789279827FC01A4E0F695E7955D
:10655000AA95E1F78F7090912910FF27EE0FFF1F8A
:10656000E057FE4E9F3F91F441E050E060E070E064
:1065700004C0440F551F661F771F8A95D2F780818C
:106580009181482B592B5183408315C0E12CF12C6C
:106590008701E39404C0EE0CFF1C001F111F8A95B5
:1065A000D2F7D801C701809590952081318182234F
:1065B00093239183808386E00C940029E091281036
:1065C000F0E0EE0FFF1FE057FE4E809129109091F2
:1065D0002A10982789279827ECCF8091271090912F
:1065E00028109827892798272091291030912A1060
:1065F000322723273227280F391FA0E0B7E0821760
:106600009307C9F2682F6F70EB2FF0E0E45EFF4E46
:10661000418550E00A2E02C0559547950A94E2F74D
:10662000FC0114E0F695E7951A95E1F7FF27EE0FC8
:10663000FF1FE057FE4EC12CD12C7601C39404C03D
:10664000CC0CDD1CEE1CFF1C6A95D2F740FF05C088
:10665000408151814C295D2908C0B701A6014095B0
:106660005095608171814623572351834083AF5FEA
:10667000A83010F0BF5FA0E00196C1CF8091281034
:1066800020912A101092291096E090936510ECE169
:10669000F0E190E0880F991FDC01A057BE4E30E07A
:1066A0003296231711F40C940229868590E0982FD6
:1066B00088274785842B8D939D933F5FF1CFCF93A0
:1066C000DF93EC0180E090E0A0E8BFE3888399834A
:1066D000AA83BB8384E090E0998F888F80E090E06C
:1066E000A0E0BFE38A8F9B8FAC8FBD8FFE01E05B84
:1066F000FF4F1082118212821382369688E290E058
:1067000091838083329680EADF011D928A95E9F7B2
:10671000E056FF4F1082118212821382349611824A
:106720001082329611821082329610821182128269
:106730001382349688E2DF011D928A95E9F7CE0133
:10674000845D9E4F20E1E6E5F2E0DC0101900D92D0
:106750002A95E1F7FE01E45CFE4F1082118212825D
:106760001382349621E030E031832083329621E495
:1067700030E03183208332961082E05FF10971832B
:106780006083188619861A861B861C821D821E82CB
:106790001F821C8A1D8A1E8A1F8AFC0171836083E6
:1067A000DE01A85CBE4F8FEF9FEF219131918227D0
:1067B000932728E0AC014170552796958795452B86
:1067C00021F031E0832730EA9327215099F7AE1763
:1067D000BF0759F79827892798279C9311961C92F1
:1067E000C65CDE4F992799838883DF91CF91089506
:1067F000DC01FB018C9190819D9381934150510963
:1068000014161506BCF30895CF92DF92EF92FF9213
:106810000F931F93CF93DF937C016B01D42FC52F70
:106820008901F90119956D2F7C2F97FF10C0C601C2
:10683000F801199597FF02C0C60118C06D2F7C2F73
:10684000C701F801199597FD0FC0C7010FC0C60118
:10685000F8011995181619067CF36D2F7C2FC701C6
:10686000F801199597FDF1CF8D2F9C2FDF91CF91D6
:106870001F910F91FF90EF90DF90CF9008952F928E
:106880003F924F925F926F927F928F929F92AF92C0
:10689000BF92CF92DF92EF92FF920F931F93CF930D
:1068A000DF93CDB7DEB72A970FB6F894DEBF0FBEE1
:1068B000CDBF8C017B015A874987690129853A85BB
:1068C000200F311F3A83298337E0E316F10468F57E
:1068D00069807A8049855A85E49E5001E59EB00C16
:1068E000F49EB00C1124A00EB11E6A147B0408F0B3
:1068F0006BC173010E151F0528F089859A85680EF6
:10690000791EF3CF4701E985FA858E1A9F0AB701F0
:10691000C401F6011995181619067CF749855A85A0
:10692000B401C70165DF7401E5CFC701969587956E
:1069300029853A85829F5001839FB00C929FB00CAD
:106940001124A00EB11EA701415051095C834B8355
:1069500057E0E516F10409F448C08B819C81829FC1
:106960003001839F700C929F700C1124600E711E79
:1069700099E2E916F10490F1C70143E096958795F5
:106980004A95E1F7829F4001839F900C929F900C63
:1069900011241401220C331CA801420D531DB8010F
:1069A000680D791D9601C8012FDF2C01A501480D46
:1069B000591D9194819491089601B501C501880DE6
:1069C000991D22DF5C01B301680D791D9601A301B9
:1069D000C3018219930918DF3C0101C02801960107
:1069E000A301B501C20110DF5C0149855A85B501DB
:1069F000C801FEDE69807A802B813C8149855A85F9
:106A0000249FF001259FF00D349FF00D1124FE838B
:106A1000ED835F01A00EB11E460D571D5C834B83B5
:106A2000250113011A8219828B809C8089859A85A1
:106A3000881A990AA814B90408F44DC0B801C40111
:106A4000F601199518161906B4F1892B69F44985D0
:106A50005A85B401C101CCDE89859A85280E391E7C
:106A6000E1E0F0E0FA83E9832B813C8149855A8596
:106A7000240F351F3C832B83D7CFB801C501F60106
:106A80001995950149855A85241B350B38872F8325
:106A900097FD15C0892B69F449855A85B201C50156
:106AA000A7DE29853A85421A530A41E050E05A830D
:106AB0004983AF80B884A814B904F8F60CC049859E
:106AC0005A85B501C40194DEAF80B88441E050E03E
:106AD0005A834983C9CF89819A81892B09F44AC095
:106AE0006D807E8029853A85620E731E600E711E50
:106AF0007401E218F308A101401B510BE416F506DE
:106B00000CF4A701141615062CF4B401641B750BC4
:106B1000C8016EDEA2014A195B095A01A30144199A
:106B2000550989859A85481B590BA416B50608F4A2
:106B3000A501141615062CF4B301641B750BC401D2
:106B400057DEE985FA85EE15FF0538F4C701BF0168
:106B500096D19601AF01C80192DE29853A852A15A2
:106B60003B0590F583010A191B09C501B90187D1BD
:106B70007B01A4CEE985FA85EE9E5001EF9EB00C14
:106B8000FE9EB00C1124A00EB11E6A147B04E0F42A
:106B900073010E151F0528F089859A85680E791EE8
:106BA000F4CF4701E985FA858E1A9F0AB701C4011F
:106BB000F6011995181619067CF749855A85B4010E
:106BC000C70116DE7401E5CF2A960FB6F894DEBF32
:106BD0000FBECDBFDF91CF911F910F91FF90EF902E
:106BE000DF90CF90BF90AF909F908F907F906F90ED
:106BF0005F904F903F902F900895BB27FB01552742
:106C0000AA27880F991FAA1FA41710F0A41B839509
:106C10005051B9F7A05DAA3308F0A95DA193009780
:106C200079F7B111B1931192CB0100C0DC01FC01E5
:106C3000672F71917723E1F7329704C07C916D93B0
:106C400070836291AE17BF07C8F3089540D008F46F
:106C500081E00895E89409C097FB3EF490958095F3
:106C6000709561957F4F8F4F9F4F9923A9F0F92F12
:106C700096E9BB279395F695879577956795B79590
:106C8000F111F8CFFAF4BB0F11F460FF1BC06F5F76
:106C90007F4F8F4F9F4F16C0882311F096E911C088
:106CA000772321F09EE8872F762F05C0662371F0A9
:106CB00096E8862F70E060E02AF09A95660F771FBD
:106CC000881FDAF7880F9695879597F90895990F99
:106CD0000008550FAA0BE0E8FEEF16161706E807A6
:106CE000F907C0F012161306E407F50798F0621BC7
:106CF000730B840B950B39F40A2661F0232B242B9C
:106D0000252B21F408950A2609F4A140A6958FEFBA
:106D1000811D811D08950BD078C069D028F06ED0F8
:106D200018F0952309F05AC05FC01124A2C07ED08C
:106D3000A0F3959FD1F3950F50E0551F629FF0018E
:106D4000729FBB27F00DB11D639FAA27F00DB11DE7
:106D5000AA1F649F6627B00DA11D661F829F222770
:106D6000B00DA11D621F739FB00DA11D621F839FF7
:106D7000A00D611D221F749F3327A00D611D231FCD
:106D8000849F600D211D822F762F6A2F11249F571B
:106D900050408AF0E1F088234AF0EE0FFF1FBB1F3E
:106DA000661F771F881F91505040A9F79E3F5105DD
:106DB00070F014C05EC05F3FECF3983EDCF3869544
:106DC00077956795B795F795E7959F5FC1F7FE2B88
:106DD000880F911D9695879597F9089597F99F6764
:106DE00080E870E060E008959FEF80EC0895002453
:106DF0000A941616170618060906089500240A9420
:106E000012161306140605060895092E0394000CA5
:106E100011F4882352F0BB0F40F4BF2B11F460FF34
:106E200004C06F5F7F4F8F4F9F4F089557FD90585D
:106E3000440F551F59F05F3F71F04795880F97FB3E
:106E4000991F61F09F3F79F08795089512161306F8
:106E50001406551FF2CF4695F1DF08C01616170627
:106E60001806991FF1CF869571056105089408955C
:106E7000E894BB2766277727CB0197F90895AA1BCB
:106E8000BB1B51E107C0AA1FBB1FA617B70710F015
:106E9000A61BB70B881F991F5A95A9F78095909547
:106EA000BC01CD010895A1E21A2EAA1BBB1BFD0156
:106EB0000DC0AA1FBB1FEE1FFF1FA217B307E407D9
:106EC000F50720F0A21BB30BE40BF50B661F771F31
:106ED000881F991F1A9469F7609570958095909511
:106EE0009B01AC01BD01CF010895A29FB001B39FEA
:106EF000C001A39F700D811D1124911DB29F700DC3
:106F0000811D1124911D08955058BB27AA270ED02A
:106F10007CCF6DDF30F072DF20F031F49F3F11F451
:106F20001EF462CF0EF4E095E7FB58CFE92F7EDF29
:106F300080F3BA17620773078407950718F071F496
:106F40009EF596CF0EF4E0950B2EBA2FA02D0B01D7
:106F5000B90190010C01CA01A0011124FF27591B9E
:106F600099F0593F50F4503E68F11A16F040A22FA4
:106F7000232F342F4427585FF3CF46953795279515
:106F8000A795F0405395C9F77EF41F16BA0B620B14
:106F9000730B840BBAF09150A1F0FF0FBB1F661F5B
:106FA000771F881FC2F70EC0BA0F621F731F841F9E
:106FB00048F4879577956795B795F7959E3F08F0C4
:106FC000B3CF9395880F08F09927EE0F9795879583
:106FD00008950CD01ACF12DF40F009DF30F021F411
:106FE0005F3F19F0FBCE511144CFFECE1FDF98F367
:106FF0009923C9F35523B1F3951B550BBB27AA273A
:1070000062177307840738F09F5F5F4F220F331FAB
:10701000441FAA1FA9F333D00E2E3AF0E0E830D077
:1070200091505040E695001CCAF729D0FE2F27D07A
:10703000660F771F881FBB1F261737074807AB0748
:10704000B0E809F0BB0B802DBF01FF2793585F4FBD
:107050002AF09E3F510568F0C1CE0BCF5F3FECF3A5
:10706000983EDCF3869577956795B795F7959F5F82
:10707000C9F7880F911D9695879597F90895E1E0D6
:10708000660F771F881FBB1F621773078407BA0735
:1070900020F0621B730B840BBA0BEE1F88F7E09590
:1070A000089504D06894B111E4CE0895C7DE88F045
:1070B0009F5790F0B92F9927B751A0F0D1F0660FE4
:1070C000771F881F991F1AF0BA95C9F712C0B130FF
:1070D00081F0CEDEB1E00895CBCE672F782F8827E0
:1070E000B85F39F0B93FCCF3869577956795B3953E
:1070F000D9F73EF490958095709561957F4F8F4FAD
:107100009F4F0895E4DD08F48FEF0895E0DD880BCC
:10711000990B089597FB072E16F4009406D077FD7F
:1071200008D0ADDE07FC05D03EF4909581959F4FC9
:107130000895709561957F4F0895EE0FFF1F881F8A
:107140008BBF0790F691E02D19940F931F93CF9367
:10715000DF938230910510F482E090E0E091CE144C
:10716000F091CF1420E030E0A0E0B0E0309719F1CA
:10717000408151810281138148175907C8F0841753
:10718000950769F4109731F012960C9312971396A5
:107190001C9327C00093CE141093CF1422C0211546
:1071A000310519F04217530718F49A01BD01EF0198
:1071B000DF01F801DBCF21153105F9F0281B390B70
:1071C0002430310580F48A819B816115710521F09D
:1071D000FB019383828304C09093CF148093CE14D9
:1071E000FE01329644C0FE01E20FF31F819391939A
:1071F00022503109398328833AC02091CC14309130
:10720000CD14232B41F420911002309111023093C0
:10721000CD142093CC1420910E0230910F02211531
:10722000310541F42DB73EB740911202509113023F
:10723000241B350BE091CC14F091CD14E217F30729
:10724000A0F42E1B3F0B2817390778F0AC014E5FD6
:107250005F4F2417350748F04E0F5F1F5093CD1432
:107260004093CC148193919302C0E0E0F0E0CF0111
:10727000DF91CF911F910F910895CF93DF930097E6
:1072800009F481C0FC01329713821282A091CE14BE
:10729000B091CF14109781F420813181820F931F18
:1072A0002091CC143091CD142817390751F5F09363
:1072B000CD14E093CC1467C0ED0120E030E0CE1790
:1072C000DF0740F44A815B819E0141155105F1F0D1
:1072D000EA01F5CFD383C28340815181840F951F8A
:1072E000C817D90759F488819981840F951F029690
:1072F000918380838A819B819383828321153105C9
:1073000029F4F093CF14E093CE143DC0E901FB8340
:10731000EA8349915991C40FD51FEC17FD0761F419
:1073200080819181840F951F0296E901998388835A
:10733000828193819B838A83E0E0F0E012968D91B5
:107340009C911397009719F0FD01DC01F7CF8D9107
:107350009C9111979D012E5F3F4F820F931F2091AB
:10736000CC143091CD142817390769F4309729F4DB
:107370001092CF141092CE1402C013821282B093D6
:10738000CD14A093CC14DF91CF9108956F927F928A
:107390008F929F92AF92BF92CF92DF92EF92FF9225
:1073A0000F931F93CF93DF93009781F4CB01DF916D
:1073B000CF911F910F91FF90EF90DF90CF90BF90F2
:1073C000AF909F908F907F906F90BFCEFC01E60FA3
:1073D000F71F9C0122503109E217F30708F4A5C0FA
:1073E000EC01D9010D911C91119706171707A8F010
:1073F0000530110508F497C0C80104978617970750
:1074000008F491C002501109061B170B0193119348
:107410006D937C93CF0131DF86C05B01A01AB10A66
:107420004C01800E911EA091CE14B091CF14612C0E
:10743000712CE12CF12C109709F446C08D919C9190
:107440001197A815B905B1F56C0142E0C40ED11C25
:10745000CA14DB0478F14C018A189B08640142E0ED
:10746000C40ED11C1296BC9012971396AC91B5E045
:10747000CB16D10440F0B282A38391828082D901DD
:107480006D937C9309C00E5F1F4F800F911FF90110
:1074900091838083EB2DFA2FE114F10431F0D701B1
:1074A0001396FC93EE9312973EC0F093CF14E093A3
:1074B000CE1439C06816790608F43C017D01129695
:1074C0000D90BC91A02DB7CF8091CC149091CD148C
:1074D00088169906E1F466167706C8F480910E02C4
:1074E00090910F02009741F48DB79EB74091120220
:1074F00050911302841B950BE817F907B0F4F09331
:10750000CD14E093CC14F901718360830CC0CB01DE
:107510001CDE7C01009749F0A801BE011BD0CE0102
:10752000ACDEC70104C0CE0102C080E090E0DF9174
:10753000CF911F910F91FF90EF90DF90CF90BF9070
:10754000AF909F908F907F906F90089581E090E032
:10755000F89419C0FB01DC0102C001900D9241506A
:107560005040D8F70895FB01DC018D9101908019FE
:107570000110D9F3990B0895FB01DC0101900D92E4
:0A7580000020E1F70895F894FFCF12
:10758A00D70B920A4D0908080000FFFFFFFF000011
:10759A00D01480000000000041099408BE088D093B
:1075AA00EF08CD08E108000000004F0E940815020C
:1075BA00140200000000E601BA0115028E01B201B0
:1075CA009E018F010102030405060F106F70656E9C
:1075DA00696E67000000010004001000100000003E
:1075EA0016007400C1006F70656E696E670076617F
:1075FA005F70746F0076615F70756D705F70007692
:10760A00615F74656D705F616C6572740076615F4D
:10761A00776F75745F6E52310076615F776F75743C
:10762A005F6E52320076615F776F75745F6E4C31B0
:10763A000076615F776F75745F6E4C320076615FBA
:10764A0077746F74616C5F4C310076615F77746F29
:10765A0074616C5F4C320076615F77746F74616C31
:10766A005F52310076615F77746F74616C5F52327A
:10767A000076615F74616E6B5F6761746500766145
:10768A005F74616E6B5F746F74616C0076615F74B6
:10769A00616E6B5F6E6F770076615F74616E6B5FB0
:1076AA0074696D65720076615F74616E6B5F74698F
:1076BA006D6572320076615F70756D705F72706DA4
:1076CA000076615F70756D705F74656D70007661CC
:1076DA005F70756D705F656D7074790076615F6358
:1076EA0061667367617465310076615F63616673B1
:1076FA0067617465320076615F63636C65616E31E0
:10770A000076615F63636C65616E320076615F6308
:10771A0061667370756D70310076615F636166735F
:10772A0070756D70320076615F6169726761756745
:10773A00310076615F6169726761756732007661EF
:10774A005F77637370656564310076615F77637331
:10775A0070656564320076615F7763746F74616C1B
:10776A00310076615F7763746F74616C32007661A1
:10777A005F6368657370656564310076615F63682D
:10778A00657370656564320076615F636865746FFE
:10779A0074616C310076615F636865746F74616CE3
:1077AA00320076615F6D6978706572310076615F6B
:1077BA006D6978706572320076615F6368657461BD
:1077CA006E6B5F740076615F63686574616E6B5F90
:1077DA00700076615F63686566726F6D310076610D
:1077EA005F63686566726F6D320076615F70746F91
:1077FA00616C6572740076615F63686570756D703F
:10780A00616C0076615F61697274656D70616C00AC
:10781A0076615F6361667370746F0076615F65722B
:10782A00726F725F6D7367006D61696E5F7265007A
:10783A00626B636D643D31007061676520300031B1
:10784A003020696E63682076322E303320696E6983
:10785A00740068656C70006D61675F6461746109CA
:10786A0009E9A1AFE7A4BAE6B581E9878FE8A88854
:10787A00E8B387E69699006D61675F646174610099
:10788A002049443A0020E6B581E9809F3A0020E683
:10789A00B581E9878F3A002044E9878F3A0020E7CB
:1078AA00B8BDE9878F3A006E616E00696E66006F37
:1078BA007666002074696D653A200020736563005E
:1078CA000D0A006D6F64627573002020002E002E71
:1078DA0076616C3D0073656E645F72657365745F93
:1078EA00746F74616C5F666C6F775F636F6D6D61E7
:0E78FA006E6420746F207A65726F2121210068
:00000001FF
