:100000000C947D000C94A5000C94A5000C94FB03AB
:100010000C94FB030C94FB030C94A5000C94A5001A
:100020000C94A5000C94A5000C94A5000C94A500BC
:100030000C94A5000C94A5000C94A5000C94A500AC
:100040000C9426050C94A5000C949B020C9475024C
:100050000C94A5000C94A5000C94A5000C94A5008C
:100060000C94CD020C94A50084098409A409A40968
:1000700078089D09B509B509B509B509B509B509E6
:10008000B509B5098409A409960896080D0A0D0A50
:10009000430A7E0ACC08CC08CC08CC08CC08CC0893
:1000A000CC08CC088D0ADC0A0000000024002700E0
:1000B0002A0000000000250028002B00040404048E
:1000C0000404040402020202020203030303030302
:1000D00001020408102040800102040810200102DF
:1000E00004081020000000080002010000030407BB
:1000F0000000000000000000FE0A11241FBECFEF28
:10010000D8E0DEBFCDBF11E0A0E0B1E0E4EFF8E160
:1001100002C005900D92A233B107D9F723E0A2E304
:10012000B1E001C01D92A33DB207E1F710E0CDE7B9
:10013000D0E004C02197FE010E944C0BCC37D107C0
:10014000C9F70E9470050C94780C0C940000089577
:100150000895CF92DF92EF92FF920F931F93CF9368
:10016000DF936C017A018B01C0E0D0E0CE15DF0592
:1001700081F0D8016D918D01D601ED91FC91019036
:10018000F081E02DC6010995892B11F02196EECF63
:100190007E01C701DF91CF911F910F91FF90EF90EA
:1001A000DF90CF900895FC01538D448D252F30E0D2
:1001B000842F90E0821B930B541710F0CF96089574
:1001C00001970895FC01918D828D981761F0828DC1
:1001D000DF01A80FB11D5D968C91928D9F5F9F737B
:1001E000928F90E008958FEF9FEF0895FC01918D1D
:1001F000828D981731F0828DE80FF11D858D90E08A
:1002000008958FEF9FEF0895FC01918D228D892F26
:1002100090E0805C9F4F821B91098F73992708950E
:100220008BEB92E00E94040121E0892B09F420E08D
:10023000822F0895FC01848DDF01A80FB11DA35A00
:10024000BF4F2C91848D90E001968F739927848FF6
:10025000A689B7892C93A089B1898C918370806419
:100260008C93938D848D981306C00288F389E02DBA
:1002700080818F7D80830895EF92FF920F931F936B
:10028000CF93DF93EC0181E0888F9B8D8C8D981349
:1002900005C0E889F989808185FD26C0F62E0B8D81
:1002A00010E00F5F1F4F0F731127E02E8C8DE812A7
:1002B0000CC00FB607FCFACFE889F989808185FF69
:1002C000F5CFCE010E941A01F1CF8B8DFE01E80F10
:1002D000F11DE35AFF4FF0829FB7F8940B8FEA8924
:1002E000FB89808180620AC09FB7F894EE89FF89FC
:1002F0006083E889F98980818370806480839FBFEF
:1003000081E090E0DF91CF911F910F91FF90EF90EE
:100310000895CF93DF93EC01888D8823C9F0EA8993
:10032000FB89808185FD05C0A889B9898C9186FDEE
:100330000FC00FB607FCF5CF808185FFF2CFA889EB
:10034000B9898C9185FFEDCFCE010E941A01E7CFCC
:10035000DF91CF91089580E090E0892B29F00E94F1
:10036000100181110C940000089585ED8093BC006C
:100370008091BC0084FDFCCF1092C3010895409190
:100380007401262F30E0240F311D21323105DCF4B9
:100390002091C3012430C9F4FC0180E090E086176D
:1003A00058F4309174012191DC01AC5ABE4FA30F77
:1003B000B11D2C930196F3CF80917401680F609367
:1003C000740180E0089581E0089582E00895089521
:1003D000E0919C0180919B01E81730F4F0E0EC5C27
:1003E000FE4F808190E008958FEF9FEF08959091E8
:1003F0009C0180919B01981750F4E92FF0E0EC5C90
:10040000FE4F208130E09F5F90939C0102C02FEF50
:100410003FEFC901089580919B0190E020919C01DC
:10042000821B91090895CF92DF92EF92FF920F9372
:100430001F93CF93DF937C01CB018A012091E701C9
:10044000222389F0EB016B01C40ED51ECC15DD050E
:1004500069F06991D701ED91FC910190F081E02D57
:10046000C7010995F3CF642F0E94BF01C801DF9136
:10047000CF911F910F91FF90EF90DF90CF90089553
:10048000CF93DF931F92CDB7DEB769832091E70149
:100490002223D1F02091E401203240F021E030E02D
:1004A000FC013383228380E090E015C08091E50158
:1004B000E82FF0E0EC53FE4F998190838F5F80939B
:1004C000E5018093E40105C061E0CE0101960E9440
:1004D000BF0181E090E00F90DF91CF9108950895E2
:1004E00080E090E008950E94730C1F920F920FB667
:1004F0000F9211242F933F934F935F936F937F93AA
:100500008F939F93AF93BF93EF93FF938BEB92E007
:100510000E941A01FF91EF91BF91AF919F918F912E
:100520007F916F915F914F913F912F910F900FBEEF
:100530000F901F9018951F920F920FB60F921124D3
:100540002F938F939F93EF93FF93E091CB02F091C2
:10055000CC028081E091D102F091D20282FD12C0E2
:1005600090818091D4028F5F8F732091D502821782
:1005700051F0E091D402F0E0E554FD4F958F809367
:10058000D40201C08081FF91EF919F918F912F91B3
:100590000F900FBE0F901F9018951F920F920FB6DD
:1005A0000F9211242F933F934F935F936F937F93F9
:1005B0008F939F93AF93BF93EF93FF938091B90075
:1005C000887F803609F49CC068F5883209F45BC0E6
:1005D00090F4803109F454C038F4882309F4F6C04B
:1005E000883009F44DC0F6C0883109F44CC080321F
:1005F00009F45DC0EFC0803409F468C048F480336A
:1006000009F455C0883309F0E5C08093C101D8C012
:10061000803509F44FC0883509F45DC0883409F08D
:10062000D9C0D6C0883909F4C7C0A8F4883709F4FE
:1006300067C038F4883609F463C0803709F460C0B5
:10064000C9C0883809F4B8C0803909F45FC080385F
:1006500009F0C0C05BC0803B09F486C038F4803A22
:1006600009F466C0883A09F47FC0B4C0803C09F43C
:10067000A7C0883C09F4A4C0883B09F48AC0AAC07A
:1006800080919E0110C09091C0018091BF01981788
:1006900070F5E091C00181E08E0F8093C001F0E021
:1006A000E156FE4F80818093BB0085EC86C080932D
:1006B000C1018EC0E091C00181E08E0F8093C00126
:1006C0008091BB00F0E0E156FE4F80839091C00125
:1006D0008091BF016EC0E091C00181E08E0F8093D8
:1006E000C0018091BB00F0E0E156FE4F8083809115
:1006F000C20181116DC081E080939D0184EA61C0D7
:1007000083E08093C30110929601CFCF8091960130
:10071000803208F051C0E091960181E08E0F809305
:1007200096018091BB00F0E0EA58FE4F8083BDCF78
:1007300085EC8093BC001092C301809196018032B9
:1007400030F4E0919601F0E0EA58FE4F108260919B
:10075000960170E0E0919701F091980186E791E0B1
:1007600009951092960136C084E08093C3011092DF
:10077000750110927401E0919901F0919A01099527
:1007800080917401811105C081E080937401109201
:100790005401E091750181E08E0F80937501F0E0C6
:1007A000EC5AFE4F80818093BB009091750180913F
:1007B0007401981708F479CF85E88093BC000AC0CB
:1007C00085EC8093BC001092C30104C01092C1015B
:1007D0000E94B501FF91EF91BF91AF919F918F91D1
:1007E0007F916F915F914F913F912F910F900FBE2D
:1007F0000F901F9018951F920F920FB60F92112411
:100800000F900FBE0F901F901895EDE6F3E090E06B
:100810002FEF3FEF981791F04191242748E0B9015D
:100820006170772736952795672B21F051E02527B2
:1008300050EA3527415099F79F5FECCF922F832FD5
:10084000089590E0FC01EC51FF4F2491FC01E0532E
:10085000FF4F3491FC01E454FF4FE491EE2309F47F
:100860003CC0222339F1233091F038F42130A9F033
:10087000223001F584B58F7D12C0273091F02830E9
:10088000A1F02430B9F4809180008F7D03C0809165
:1008900080008F77809380000DC084B58F7784BDF2
:1008A00009C08091B0008F7703C08091B0008F7D28
:1008B0008093B000F0E0EE0FFF1FEE54FF4FA591C4
:1008C000B4919FB7F894611104C08C91309538238E
:1008D00002C0EC913E2B3C939FBF08952FB7F89434
:1008E0006091CB037091CC038091CD039091CE03A6
:1008F0002FBF08951F93CF93DF9300D000D0CDB7C3
:10090000DEB71091AD03812F0E940504E12FF0E0C6
:10091000EC59FC4F9187E1E0E10FF0E0EC59FC4F1E
:1009200081871E5F1093AD0380916A03823018F0B7
:1009300061E00E942104809169034091AD038430FD
:1009400028F4809164039091650304C0809166034C
:100950009091670350E0DC01ED91FC910280F381FE
:10096000E02D6DE673E0099580916A03823090F185
:1009700080916903843058F48091640390916503F9
:10098000DC01ED91FC910680F781E02D09958091C5
:10099000C1039091C203A091C303B091C4038983A2
:1009A0009A83AB83BC8389819A81AB81BC81AC0182
:1009B000BD01415051096109710949835A836B8313
:1009C0007C83892B8A2B8B2B71F760E080916A03E3
:1009D0000E94210480916903843050F58091640362
:1009E00090916503DC01ED91FC910284F385E02D8B
:1009F000099597FFF3CF1092AD030E946E046093A8
:100A0000BD037093BE038093BF039093C003809196
:100A1000B3039091B40301969093B4038093B3030E
:100A20000F900F900F900F90DF91CF911F9108952D
:100A30008091660390916703DC01ED91FC91028443
:100A4000F385E02D099597FFF3CFD5CF1F920F9235
:100A50000FB60F9211242F933F938F939F93AF93D1
:100A6000BF938091CB039091CC03A091CD03B09123
:100A7000CE033091CA0323E0230F2D3720F40196D3
:100A8000A11DB11D05C026E8230F0296A11DB11DB1
:100A90002093CA038093CB039093CC03A093CD0300
:100AA000B093CE038091C6039091C703A091C80371
:100AB000B091C9030196A11DB11D8093C603909307
:100AC000C703A093C803B093C903BF91AF919F918F
:100AD0008F913F912F910F900FBE0F901F901895FF
:100AE000789484B5826084BD84B5816084BD85B509
:100AF000826085BD85B5816085BD80916E00816015
:100B000080936E00109281008091810082608093BA
:100B100081008091810081608093810080918000BC
:100B20008160809380008091B10084608093B100E7
:100B30008091B00081608093B00080917A008460E1
:100B400080937A0080917A00826080937A0080910D
:100B50007A00816080937A0080917A008068809327
:100B60007A001092C10086E690E00E94520BFC01D0
:100B700083EF91E09183808385EF91E0938382837B
:100B800087EF91E09583848389EF91E09783868353
:100B90008BEF91E0918780878DEF91E0938782873B
:100BA0008FEF91E09587848781E092E09787868731
:100BB00083E092E0918B808B85E092E0938B828B37
:100BC00087E092E0958B848B89E092E0978B868B0F
:100BD0008BE092E0918F808F8DE092E0938F828FF7
:100BE0008FE092E0958F848F81E192E0978F868FDE
:100BF00083E192E091A380A385E192E093A382A395
:100C000087E192E095A384A389E192E097A386A36C
:100C10008BE192E091A780A78DE192E093A782A754
:100C20008FE192E095A784A781E292E097A786A73B
:100C300083E292E091AB80AB85E292E093AB82AB32
:100C400087E292E095AB84AB89E292E097AB86AB0A
:100C50008BE292E091AF80AF8DE292E093AF82AFF2
:100C60008FE292E095AF84AF81E392E097AF86AFD9
:100C7000DF01A05CBF4F83E392E011969C938E93BB
:100C8000129685E392E011969C938E93129687E3D9
:100C900092E011969C938E93129689E392E01196BE
:100CA0009C938E9312968BE392E011969C938E9375
:100CB00012968DE392E011969C938E9312968FE399
:100CC00092E011969C938E93129681E492E0119695
:100CD0009C938E93129683E492E011969C938E934C
:100CE000129685E492E011969C938E93129687E477
:100CF00092E011969C938E93129689E492E011965D
:100D00009C938E9312968BE492E011969C938E9313
:100D100012968DE492E011969C938E9312968FE436
:100D200092E011969C938E93129681E592E0119633
:100D30009C938E93129683E592E011969C938E93EA
:100D4000129685E592E011969C938E93129687E514
:100D500092E08D939C93F093E901E093E8018BEB93
:100D600092E09093650380936403E091CB02F0914D
:100D7000CC0282E08083E091CB02F091CC02108221
:100D8000E091C702F091C8021082E091C902F0918F
:100D9000CA0280E180831092D302E091CF02F091E9
:100DA000D00286E08083E091CD02F091CE02808176
:100DB00080618083E091CD02F091CE0280818860D5
:100DC0008083E091CD02F091CE02808180688083A3
:100DD000E091CD02F091CE0280818F7D8083809161
:100DE0006A03823018F190E0FC01E053FF4F249138
:100DF000FC01E454FF4F8491882399F090E0880F20
:100E0000991FFC01E855FF4FA591B491FC01EE54E8
:100E1000FF4F859194918FB7F894EC91E22BEC936E
:100E20008FBF60E080916A030E9421048091640377
:100E300090916503DC01ED91FC910284F385E02D36
:100E4000099597FFF3CF1092AD031092AE03109265
:100E5000B6031092B5031092B4031092B30310922C
:100E6000B2031092B10310929C0110929B01109258
:100E7000E5011092E4011092C30181E08093C20168
:100E800010929D0161E082E10E94210461E083E112
:100E90000E9421048091B9008E7F8093B9008091D7
:100EA000B9008D7F8093B90088E48093B80085E411
:100EB0008093BC0087EA90E090939A018093990117
:100EC00088EA90E09093980180939701CEE0D1E07A
:100ED000F3E05F2E16E0C12CD12C7601C394B2E072
:100EE0002B2E33243A947724739408E0402E73EF2A
:100EF000872E71E0972E9092B0038092AF03E4E6C4
:100F00009E2E9092C50380916903843028F48091CD
:100F100064039091650304C0809166039091670318
:100F2000DC01ED91FC910084F185E02D0995882389
:100F300009F432C19091AE03891769F08093AE0332
:100F40000E946E046093B9037093BA038093BB034D
:100F50009093BC0321C10E946E048090B9039090CD
:100F6000BA03A090BB03B090BC03DC01CB0188198D
:100F70009909AA09BB090597A105B10508F40CC197
:100F80001092AE0380916A03823018F060E00E94F4
:100F900021041092AD038091690300E0843008F0D1
:100FA00043C08091640390916503DC01ED91FC9155
:100FB0000084F185E02D0995892B09F442C0A090A9
:100FC000AD03B12C8091640390916503DC01ED9138
:100FD000FC910284F385E02D0995F501EC59FC4F55
:100FE00081878091AD038F5F8093AD038034C8F219
:100FF00001E0D7CFA090AD03B12C80916603909112
:101000006703DC01ED91FC910284F385E02D0995E5
:10101000F501EC59FC4F81878091AD038F5F809380
:10102000AD03803408F001E080916603909167037E
:10103000DC01ED91FC910084F185E02D0995892B6F
:10104000C9F68091B1039091B20301969093B203D7
:101050008093B103002359F08091B5039091B603BA
:1010600001969093B6038093B5038DEF02C08091F3
:10107000AD0380936C0387300CF48EC090916D03A8
:1010800080916803981388C08091AD03A82EB12C7D
:1010900082500E940504F501EC59FC4F278130E095
:1010A000322F22274085242B2817390759F08091A9
:1010B000B5039091B60301969093B6038093B50360
:1010C0000FEF31C040916E03E6E0F1E081918417AB
:1010D00009F40FC1CE17DF07C9F78091B5039091CE
:1010E000B60301969093B6038093B50301E012C056
:1010F00080916F039091700398278927982704E0C7
:10110000969587950A95E1F79091C503981708F091
:101110002CC102E0405840936E0300936F0350923D
:10112000AD030E947A0400936C0336C080916F0374
:101130009091700398278927982720917103309107
:101140007203322723273227B901B3E076956795DA
:10115000BA95E1F7E62FA9014770552741155105CA
:1011600011F0E1E0E60FE0936F035092AD03F0E081
:10117000EC59FC4F1386280F391F63E070E02817E5
:10118000390709F00CC16093AD03452B19F06F5F6F
:101190006093AD030E947A040E946E042091EF01D7
:1011A0003091F0014091F1015091F2014B015C014D
:1011B000821A930AA40AB50AA501940125363105BD
:1011C0004105510508F492C0E091E801F091E90170
:1011D000A08DB18D2C912093EA01A28DB38D0C913D
:1011E0000093EB01A48DB58DAC90A092EC01A08989
:1011F000B189BC90B092ED01068CF78DE02D608036
:101200006092EE016093EF017093F0018093F10121
:101210009093F2017092E7014092E6011092E5018D
:101220001092E401622F88E593E00E944002602F53
:1012300088E593E00E9440026A2D88E593E00E94D1
:1012400040026B2D88E593E00E944002662D88E500
:1012500093E00E9440029091E401913208F040C076
:101260008091C3018111FCCF2092C3017092C20111
:101270003092C1011092C0019093BF01A4ECB1E083
:10128000EFE9F1E0981721F02D9121938F5FFACFCC
:1012900010929E0180919E01806180939E018091B9
:1012A0009D01813061F410929D0180919E01809397
:1012B000BB008091BC0083FDF8CF85EC01C085EEBA
:1012C0008093BC008091C3018230E1F38091C10121
:1012D0008F3F31F08091C101803211F08091C101C6
:1012E0001092E5011092E4011092E7010E94AB0117
:1012F000FECD842F90E0FC013197E031F105A8F597
:10130000EC5CFF4F0C944C0B80916F039091700339
:1013100098278927982724E0969587952A95E1F7BD
:10132000209171033091720332272327322754E032
:10133000369527955A95E1F715C080916F039091E6
:10134000700398278927E0CE2091710330917203B2
:1013500032272327322780916F03909170039827BB
:1013600089279827820F931FCFCE0E946E04609327
:10137000BD037093BE038093BF039093C00310928C
:101380006C03E0916E038E2F90E0FC013197E03109
:10139000F10508F001CFEC5BFF4F0C944C0BFC0106
:1013A000A3E0F695E795AA95E1F7EE7FF170ED5091
:1013B000FE4F0190F081E02DA82FAF704F0102C0C9
:1013C00096948794AA95E2F7E62FF0E0EC59FC4F4B
:1013D00080FE0DC0A18546015701072E04C0880C70
:1013E000991CAA1CBB1C0A94D2F7A8290EC046015E
:1013F0005701072E04C0880C991CAA1CBB1C0A9418
:10140000D2F7B82DB095A185AB23A1877F5F783047
:1014100010F06F5F70E00196B2CE40916F03509173
:10142000700354274527242F8091710390917203F4
:10143000982789279827382F330F30936F03E3E0DD
:101440009927840F911D32E03E0F422F50E048173C
:1014500059071CF0E093AD039DCE440F551FDA01F0
:10146000AD50BE4F4C9111965C91AE2FB0E0AC598F
:10147000BC4F19965C93EF5FF0E0EC59FC4F41874D
:101480002F5FE32FE0CF80916F0390917003982737
:1014900089279827FC0194E0F695E7959A95E1F75E
:1014A0008F7090917103FF27EE0FFF1FED50FE4FDD
:1014B0009F3F71F4B701A60104C0440F551F661F7A
:1014C000771F8A95D2F780819181842B952B11C04B
:1014D000A701960104C0220F331F441F551F8A9590
:1014E000D2F7DA01C901809590952081318182235C
:1014F0009323918380831093AD034CCEE0917003CE
:10150000F0E0EE0FFF1FED50FE4F809171039091C0
:101510007203982789279827ECCF80916F039091C9
:1015200070039827892798272091710330917203BF
:10153000322723273227280F391FA0E0B7E02817CA
:101540003907C9F2682F6F70EB2FF0E0EC59FC4FB0
:10155000418550E00A2E02C0559547950A94E2F75E
:10156000FC0174E0F695E7957A95E1F7FF27EE0F19
:10157000FF1FED50FE4F4601570104C0880C991C17
:10158000AA1CBB1C6A95D2F740FF05C0408151815F
:101590004829592908C0B501A4014095509560819A
:1015A00071814623572351834083AF5FA83010F0E9
:1015B000BF5FA0E00196C3CFE0917003209172035A
:1015C000109271031093AD03A4E6B3E0F0E0EE0FC8
:1015D000FF1FED50FE4F30E01296231709F4DACDCD
:1015E0001E968C911E9790E0982F88271F964C91FD
:1015F0001F97842B819391933F5FEECFEBEBF2E04B
:101600001382128288EE93E0A0E0B0E08483958399
:10161000A683B78322E131E03183208325EC30E0DB
:101620003587248724EC30E03787268720EC30E0AC
:10163000318B208B21EC30E0338B228B22EC30E09D
:10164000358B248B26EC30E0378B268B118E128E57
:10165000138E148EE8E5F3E013821282848395835F
:10166000A683B78384E291E091838083E4E6F3E08C
:1016700083E0848315828AE0868388EE93E09093EA
:10168000B8038093B7031092C1031092C203109263
:10169000C3031092C4030895EE0FFF1F0590F49149
:1016A000E02D09940F931F93CF93DF938230910520
:1016B00010F482E090E0E091D103F091D20320E0B9
:1016C00030E0A0E0B0E0309719F140815181028113
:1016D000138148175907C8F08417950769F41097C4
:1016E00031F012960C93129713961C9327C0009317
:1016F000D1031093D20322C02115310519F04217EE
:10170000530718F49A01BD01EF01DF01F801DBCFA7
:1017100021153105F9F0281B390B2430310580F4EF
:101720008A819B816115710521F0FB01938382837E
:1017300004C09093D2038093D103FE01329644C03B
:10174000FE01E20FF31F81939193225031093983F7
:1017500028833AC02091CF033091D003232B41F44A
:1017600020910201309103013093D0032093CF03E5
:1017700020910001309101012115310541F42DB76F
:101780003EB74091040150910501241B350BE091B7
:10179000CF03F091D003E217F307A0F42E1B3F0B09
:1017A0002817390778F0AC014E5F5F4F24173507D3
:1017B00048F04E0F5F1F5093D0034093CF038193A7
:1017C000919302C0E0E0F0E0CF01DF91CF911F9153
:1017D0000F910895CF93DF93009709F481C0FC0126
:1017E000329713821282A091D103B091D203109745
:1017F00081F420813181820F931F2091CF0330919A
:10180000D0032817390751F5F093D003E093CF03A5
:1018100067C0ED0120E030E0CE17DF0740F44A81D9
:101820005B819E0141155105F1F0EA01F5CFD383AB
:10183000C28340815181840F951FC817D90759F47D
:1018400088819981840F951F0296918380838A8174
:101850009B81938382832115310529F4F093D20370
:10186000E093D1033DC0E901FB83EA83499159919B
:10187000C40FD51FEC17FD0761F480819181840F9F
:10188000951F0296E90199838883828193819B83C6
:101890008A83E0E0F0E012968D919C911397009777
:1018A00019F0FD01DC01F7CF8D919C9111979D01FD
:1018B0002E5F3F4F820F931F2091CF033091D003B3
:1018C0002817390769F4309729F41092D20310923F
:1018D000D10302C013821282B093D003A093CF032E
:1018E000DF91CF91089581E090E0F8940C94780C0A
:0418F000F894FFCF9A
:1018F4000000D30380000102030405060F1000005A
:1019040000003C01A900D30089010401E200F600B3
:1019140000000000400213027002E7010B02F7010D
:02192400E801D8
:107800000C94343C0C94513C0C94513C0C94513CE1
:107810000C94513C0C94513C0C94513C0C94513CB4
:107820000C94513C0C94513C0C94513C0C94513CA4
:107830000C94513C0C94513C0C94513C0C94513C94
:107840000C94513C0C94513C0C94513C0C94513C84
:107850000C94513C0C94513C0C94513C0C94513C74
:107860000C94513C0C94513C11241FBECFEFD8E036
:10787000DEBFCDBF11E0A0E0B1E0ECE9FFE702C060
:1078800005900D92A230B107D9F712E0A2E0B1E065
:1078900001C01D92AD30B107E1F70E942D3D0C945F
:1078A000CC3F0C94003C982F959595959595959582
:1078B000905D8F708A307CF0282F295A8091C0000B
:1078C00085FFFCCF9093C6008091C00085FFFCCF60
:1078D0002093C6000895282F205DF0CF982F809127
:1078E000C00085FFFCCF9093C6000895EF92FF92F1
:1078F0000F931F93EE24FF2487018091C00087FD22
:1079000017C00894E11CF11C011D111D81E4E8164B
:1079100082E4F8068FE0080780E0180770F3E09132
:107920000401F091050109958091C00087FFE9CF1E
:107930008091C6001F910F91FF90EF9008950E94D3
:10794000763C982F8091C00085FFFCCF9093C600B5
:1079500091362CF490330CF09053892F089597555D
:10796000892F08951F930E949F3C182F0E949F3CCF
:107970001295107F810F1F9108951F93182F882350
:1079800021F00E94763C1150E1F71F9108951F935A
:10799000182F0E94763C803249F0809103018F5F5E
:1079A000809303018530C1F01F9108958091C0003C
:1079B00085FFFCCF84E18093C6008091C00085FFE5
:1079C000FCCF1093C6008091C00085FFFCCF80E102
:1079D0008093C6001F910895E0910401F091050184
:1079E00009951F9108950E94763C803241F0809164
:1079F00003018F5F80930301853081F008958091AA
:107A0000C00085FFFCCF84E18093C6008091C00058
:107A100085FFFCCF80E18093C6000895E0910401CA
:107A2000F09105010995089540E951E08823A1F0FE
:107A30002D9A28EE33E0FA013197F1F721503040CA
:107A4000D1F72D9828EE33E0FA013197F1F7215064
:107A50003040D1F7815061F708953F924F925F9285
:107A60006F927F928F929F92AF92BF92CF92DF924E
:107A7000EF92FF920F931F93CF93DF93000080E16B
:107A80008093C4001092C50088E18093C10086E015
:107A90008093C2005098589A259A81E00E94143D24
:107AA00024E1F22E9EE1E92E85E9D82E0FE0C02ECA
:107AB00010E1B12EAA24A394B1E49B2EA6E58A2E50
:107AC000F2E57F2EE0E26E2E79E4572E63E5462E36
:107AD00050E5352E0E94763C8033B1F18133B9F107
:107AE000803409F46FC0813409F476C0823409F41B
:107AF00085C0853409F488C0803531F1823521F1A3
:107B0000813511F1853509F485C0863509F48DC0BC
:107B1000843609F496C0843709F403C1853709F423
:107B200072C1863709F466C0809103018F5F80932C
:107B30000301853079F6E0910401F0910501099582
:107B40000E94763C803351F60E94F33CC3CF0E94E2
:107B5000763C803249F78091C00085FFFCCFF092DF
:107B6000C6008091C00085FFFCCF9092C600809136
:107B7000C00085FFFCCF8092C6008091C00085FFC9
:107B8000FCCF7092C6008091C00085FFFCCF609250
:107B9000C6008091C00085FFFCCF5092C600809146
:107BA000C00085FFFCCF4092C6008091C00085FFD9
:107BB000FCCF3092C6008091C00085FFFCCFB09210
:107BC000C60088CF0E94763C863808F4BDCF0E945C
:107BD000763C0E94F33C7ECF0E94763C803809F4CC
:107BE0009CC0813809F40BC1823809F43CC1883942
:107BF00009F48FC080E00E94C73C6CCF84E10E94F2
:107C0000BD3C0E94F33C66CF85E00E94BD3C0E94D3
:107C1000F33C60CF0E94763C809306010E94763C44
:107C2000809307010E94F33C55CF0E94763C80333D
:107C300009F41DC183E00E94BD3C80E00E94C73C66
:107C400049CF0E94763C809309020E94763C809343
:107C5000080280910C028E7F80930C020E94763C79
:107C6000853409F415C18091080290910902892B8D
:107C700089F000E010E00E94763CF801E85FFE4FDA
:107C800080830F5F1F4F80910802909109020817AF
:107C9000190788F30E94763C803209F045CF809125
:107CA0000C0280FF01C16091060170910701660F0F
:107CB000771F7093070160930601A0910802B091AD
:107CC00009021097C9F0E8E0F1E09B01AD014E0F09
:107CD0005F1FF999FECF32BD21BD819180BDFA9A17
:107CE000F99A2F5F3F4FE417F50799F76A0F7B1F4B
:107CF00070930701609306018091C00085FFFCCF5F
:107D0000F092C6008091C00085FFFCCFB092C60003
:107D1000E1CE83E00E94C73CDDCE82E00E94C73CFA
:107D2000D9CE0E94763C809309020E94763C8093D3
:107D300008028091060190910701880F991F909386
:107D40000701809306010E94763C853409F4A6C0A1
:107D500080910C028E7F80930C020E94763C8032D0
:107D600009F0B8CE8091C00085FFFCCFF092C6002C
:107D7000609108027091090261157105B9F140E046
:107D800050E080910C02A82FA170B82FB27011C0E2
:107D9000BB2309F45CC0E0910601F0910701319624
:107DA000F0930701E09306014F5F5F4F46175707B7
:107DB000E8F4AA2369F3F999FECF209106013091E6
:107DC000070132BD21BDF89A90B58091C00085FFB2
:107DD000FCCF9093C6002F5F3F4F30930701209355
:107DE00006014F5F5F4F4617570718F38091C00099
:107DF00085FDE5CE8091C00085FFF8CFE0CE81E023
:107E00000E94C73C67CE0E94763C803209F08CCE3F
:107E10008091C00085FFFCCFF092C6008091C00029
:107E200085FFFCCFE092C6008091C00085FFFCCFAB
:107E3000D092C6008091C00085FFFCCFC092C600E2
:107E40008091C00085FFFCCFB092C60043CEE09188
:107E50000601F091070194918091C00085FFFCCF4D
:107E60009093C6009CCF80E10E94C73C33CE0E9415
:107E7000763C0E94763C182F0E94763C112309F430
:107E800083C0113009F484C08FE00E94C73C22CE29
:107E900080910C02816080930C02E5CE80910C02EF
:107EA000816080930C0259CF809107018823880F4D
:107EB000880B8A2180930B02809106019091070123
:107EC000880F991F90930701809306018091080203
:107ED00080FF09C080910802909109020196909359
:107EE000090280930802F894F999FECF1127E091D6
:107EF0000601F0910701C8E0D1E08091080290915D
:107F00000902103091F40091570001700130D9F34B
:107F100003E000935700E89500915700017001308D
:107F2000D9F301E100935700E89509901990009169
:107F3000570001700130D9F301E000935700E89534
:107F40001395103498F011270091570001700130FB
:107F5000D9F305E000935700E895009157000170B0
:107F60000130D9F301E100935700E895329602976A
:107F700009F0C7CF103011F00296E5CF112480919F
:107F8000C00085FFB9CEBCCE8EE10E94C73CA2CD19
:0C7F900085E90E94C73C9ECDF894FFCF0D
:027F9C00800063
:040000030000780081
:00000001FF
