:1000000035C1000063C1000061C100005FC1000094
:100010005DC100005BC1000059C1000057C1000074
:1000200055C1000091C500008FC500008DC50000BE
:100030004DC100004BC1000049C1000047C1000094
:1000400045C1000043C1000041C100003FC10000A4
:100050003DC100003BC1000039C100002BC50000BC
:1000600035C1000013C40000E8C300002FC1000028
:100070002DC100002BC1000029C1000027C10000D4
:1000800025C1000023C1000021C100001FC10000E4
:10009000ABC3000080C3000019C1000017C10000FD
:1000A00015C1000013C1000011C100000FC1000004
:1000B0000DC100000BC1000009C1000007C1000014
:1000C00005C1000003C1000001C100003BC30000E6
:1000D00010C30000FBC00000E3C20000B8C2000073
:1000E000F5C00000340E340E540E540EFD0C4D0EAF
:1000F000640E640E640E640E640E640E640E640E70
:10010000340E540E7F0E7F0EF40EF40E260F6A0F7F
:100110001B0D1B0D1B0D1B0D1B0D1B0D1B0D1B0D9F
:10012000790FC90F9E04A104900494049804D80484
:10013000A504A904AF04B304B704BD04C104C504F5
:10014000D804CB04CF04D3040000210024002700EE
:100150002A002D00300033000101000004010701D6
:100160000A0100000A0B02090C0D0E080703040126
:10017000000000000000000000000000000000007F
:10018000000000000000000000000000000012114C
:10019000100000000000000000000000000000004F
:1001A00000000000000000000000200023002600E6
:1001B00029002C002F00320000010000030106017D
:1001C000090100002200250028002B002E0031002C
:1001D000340002010000050108010B0105050505B9
:1001E000070508080808020202020A0A08080404AF
:1001F00004040101010101010101030303030303DD
:100200000303040707070C0C0C0C0C0C0C0C02026B
:10021000020206060606060606060B0B0B0B0B0B68
:100220000B0B0102102020080810204010204080F5
:1002300002010201080402010102040810204080AA
:100240008040201008040201800402018040201038
:100250000804020108040201010204081020408081
:10026000010204081020408027100B1011241FBE2B
:10027000CFEFD1E2DEBFCDBF00E00CBF12E0A0E0C7
:10028000B2E0E4EDFEE200E00BBF02C007900D9289
:10029000A83AB107D9F727E0A8EAB2E001C01D9259
:1002A000A231B207E1F711E0C5E3D1E000E006C0FA
:1002B00021970109802FFE010E945E14C433D107EB
:1002C00080E00807A9F785D60C94591799CEFC0150
:1002D000538D448D252F30E0842F90E0821B930BAB
:1002E000541710F0CF96089501970895FC01918D51
:1002F000828D981761F0828DDF01A80FB11D5D9688
:100300008C91928D9F5F9F73928F90E008958FEFF5
:100310009FEF0895FC01918D828D981731F0828DA9
:10032000E80FF11D858D90E008958FEF9FEF089500
:10033000FC01918D228D892F90E0805C9F4F821B64
:1003400091098F73992708958DE093E0F1DF21E003
:10035000892B09F420E0822F089584EE94E0E8DFF1
:1003600021E0892B09F420E0822F08958AEA93E0A6
:10037000DFDF21E0892B09F420E0822F089587E454
:1003800094E0D6DF21E0892B09F420E0822F089544
:10039000FC01848DDF01A80FB11DA35ABF4F2C9122
:1003A000848D90E001968F739927848FA689B789F1
:1003B0002C93A089B1898C91837080648C93938DE8
:1003C000848D981306C00288F389E02D80818F7D8B
:1003D00080830895EF92FF920F931F93CF93DF9343
:1003E000EC0181E0888F9B8D8C8D981305C0E88986
:1003F000F989808185FD25C0F62E0B8D10E00F5FF9
:100400001F4F0F731127E02E8C8DE8120BC00FB613
:1004100007FCFACFE889F989808185FFF5CFCE0105
:10042000B7DFF2CF8B8DFE01E80FF11DE35AFF4FCE
:10043000F0829FB7F8940B8FEA89FB8980818062F4
:100440000AC09FB7F894EE89FF896083E889F9892B
:1004500080818370806480839FBF81E090E0DF9122
:10046000CF911F910F91FF90EF900895CF93DF935D
:10047000EC01888D8823C1F0EA89FB89808185FDA4
:1004800005C0A889B9898C9186FD0EC00FB607FCFE
:10049000F5CF808185FFF2CFA889B9898C9185FF3E
:1004A000EDCFCE0175DFE8CFDF91CF91089580E0E9
:1004B00090E0892B19F063DF811116C080E090E095
:1004C000892B19F053DF811112C080E090E0892B55
:1004D00019F043DF81110EC080E090E0892B79F0A4
:1004E00033DF81110AC008950E940000E7CF0E9407
:1004F0000000EBCF0E940000EFCF0C9400000895A5
:100500002091AA023091AB022817390771F490911B
:10051000A8028091A902981741F0E091A802F0E0AA
:10052000EC53FD4F808190E008958FEF9FEF089589
:1005300008951F93CF93DF93DC015C968D919C917E
:100540005D97009739F421E030E013963C932E93A9
:1005500012973BC05196ED91FC91529750962C9179
:100560005097322F30951FB75E964C915E97742F3F
:10057000727041FD6095F8944081772311F0422B11
:1005800001C043234083EC012197F1F748E05081FB
:1005900060FF02C0522B01C053235083EC0121970E
:1005A000F1F76695415099F78081772319F08323FD
:1005B000808302C0282B20831FBF5C968D919C9165
:1005C0005D970197F1F781E090E0DF91CF911F9166
:1005D00008952091AA023091AB022817390769F4D7
:1005E0008091A9022091A80290E0805C9F4F821B1D
:1005F000910960E470E00C944B1480E090E0089561
:100600002091AA023091AB0228173907B9F49091D2
:10061000A8028091A902981789F0E091A802F0E061
:10062000EC53FD4F80812091A80230E02F5F3F4FB7
:100630002F7333272093A80290E008958FEF9FEF48
:100640000895089580E090E008950E947A141F9222
:100650000F920FB60F9211240BB60F922F933F9368
:100660004F935F936F937F938F939F93AF93BF93BA
:10067000EF93FF938DE093E08BDEFF91EF91BF91BD
:10068000AF919F918F917F916F915F914F913F912A
:100690002F910F900BBE0F900FBE0F901F901895CB
:1006A0001F920F920FB60F9211240BB60F922F9339
:1006B0003F934F935F936F937F938F939F93AF93EA
:1006C000BF93EF93FF938DE093E06AD4FF91EF9196
:1006D000BF91AF919F918F917F916F915F914F915A
:1006E0003F912F910F900BBE0F900FBE0F901F9058
:1006F00018951F920F920FB60F9211240BB60F92FE
:100700002F933F934F935F936F937F938F939F9319
:10071000AF93BF93EF93FF9384EE94E039DEFF91A4
:10072000EF91BF91AF919F918F917F916F915F9169
:100730004F913F912F910F900BBE0F900FBE0F90D6
:100740001F9018951F920F920FB60F9211240BB69F
:100750000F922F933F934F935F936F937F938F935A
:100760009F93AF93BF93EF93FF9384EE94E018D4DD
:10077000FF91EF91BF91AF919F918F917F916F9179
:100780005F914F913F912F910F900BBE0F900FBE35
:100790000F901F9018951F920F920FB60F92112471
:1007A0000BB60F922F933F934F935F936F937F936B
:1007B0008F939F93AF93BF93EF93FF938AEA93E056
:1007C000E7DDFF91EF91BF91AF919F918F917F9165
:1007D0006F915F914F913F912F910F900BBE0F90B2
:1007E0000FBE0F901F9018951F920F920FB60F9289
:1007F00011240BB60F922F933F934F935F936F93F8
:100800007F938F939F93AF93BF93EF93FF938AEA66
:1008100093E0C6D3FF91EF91BF91AF919F918F91DC
:100820007F916F915F914F913F912F910F900BBEF0
:100830000F900FBE0F901F9018951F920F920FB63A
:100840000F9211240BB60F922F933F934F935F9308
:100850006F937F938F939F93AF93BF93EF93FF9388
:1008600087E494E095DDFF91EF91BF91AF919F9167
:100870008F917F916F915F914F913F912F910F9049
:100880000BBE0F900FBE0F901F9018951F920F92E6
:100890000FB60F9211240BB60F922F933F934F93E5
:1008A0005F936F937F938F939F93AF93BF93EF93D8
:1008B000FF9387E494E074D3FF91EF91BF91AF91E0
:1008C0009F918F917F916F915F914F913F912F9168
:1008D0000F900BBE0F900FBE0F901F901895362FE4
:1008E00090E0FC01EE59FE4F4491FC01EE5DFD4F9E
:1008F0002491FC01E452FE4F9491992309F46CC0B9
:10090000442309F455C050E0FA013197E231F10572
:1009100008F04EC08827EE56FF4F8F4F0C945E14A0
:10092000809180008F7707C0809180008F7D03C009
:1009300080918000877F809380003AC084B58F7754
:1009400002C084B58F7D84BD33C08091B0008F77A5
:1009500003C08091B0008F7D8093B00029C080914A
:1009600090008F7707C0809190008F7D03C08091A9
:100970009000877F809390001BC08091A0008F77AC
:1009800007C08091A0008F7D03C08091A000877F69
:100990008093A0000DC0809120018F7707C08091C7
:1009A00020018F7D03C080912001877F80932001EB
:1009B000E92FF0E0EE0FFF1FEE53FE4FA591B4912B
:1009C0009FB7F894311104C08C912095282302C060
:1009D000EC912E2B2C939FBF0895CF93DF9390E043
:1009E000FC01EE5DFD4F2491FC01E452FE4F849129
:1009F000882361F190E0880F991FFC01E85BFE4FAE
:100A0000C591D491FC01EE53FE4FA591B4916111B3
:100A100009C09FB7F8948881209582238883EC9140
:100A20002E230BC0623061F49FB7F8948881322F77
:100A3000309583238883EC912E2B2C939FBF06C087
:100A40008FB7F894E8812E2B28838FBFDF91CF9149
:100A500008953FB7F8948091090390910A03A091FB
:100A60000B03B0910C0326B5A89B05C02F3F19F0CE
:100A70000196A11DB11D3FBFBA2FA92F982F88271E
:100A8000820F911DA11DB11DBC01CD0142E0660F79
:100A9000771F881F991F4A95D1F708952FB7F894AB
:100AA00060910503709106038091070390910803FC
:100AB0002FBF08951F920F920FB60F9211242F93FC
:100AC0003F938F939F93AF93BF9380910503909132
:100AD0000603A0910703B09108033091040323E0BB
:100AE000230F2D3720F40196A11DB11D05C026E866
:100AF000230F0296A11DB11D2093040380930503CB
:100B000090930603A0930703B09308038091090311
:100B100090910A03A0910B03B0910C030196A11DC3
:100B2000B11D8093090390930A03A0930B03B09324
:100B30000C03BF91AF919F918F913F912F910F9097
:100B40000FBE0F901F9018951F920F920FB60F9225
:100B500011240BB60F922F933F934F935F936F9394
:100B60007F938F939F93AF93BF93EF93FF93E09106
:100B7000AA02F091AB02309709F451C0968DA68578
:100B8000B785858591FF04C09C91892329F447C0CE
:100B90009C91892309F043C0A389B4899C918589DC
:100BA000809589238C93868997890197F1F7608DC9
:100BB000718DA685B785558538E020E0CB0101977A
:100BC000F1F7822F90E095958795282F4C9145233A
:100BD00009F02068315091F7868D81FD2095809134
:100BE000A90290E001968F7399273091A8023817D7
:100BF00049F0A091A902B0E0AC53BD4F2C93809373
:100C0000A90203C0868D8160868F828D938D0197A6
:100C1000F1F7A389B4899C918589892B8C93FF91E5
:100C2000EF91BF91AF919F918F917F916F915F9164
:100C30004F913F912F910F900BBE0F900FBE0F90D1
:100C40001F901895CF92DF92EF92FF920F931F9310
:100C5000CF93DF936C017A018B01C0E0D0E0CE1519
:100C6000DF0581F0D8016D918D01D601ED91FC91E8
:100C70000190F081E02DC6011995892B11F0219684
:100C8000EECF7E01C701DF91CF911F910F91FF90B1
:100C9000EF90DF90CF900895009761F0FC010190F4
:100CA0000020E9F73197AF01481B590BBC0187E4DD
:100CB00094E0C8CF80E090E00895CF93DF93ECDF1D
:100CC000EC0185EA92E0E8DF8C0F9D1FDF91CF9168
:100CD0000895CF92DF92EF92FF92CF93DF93EC01D2
:100CE0006A017B01E889F98982E080834115514ED0
:100CF00061057105B1F060E079E08DE390E0A70156
:100D000096010E940E12DA01C9010197A109B109E9
:100D1000B695A795979587959C01211580E1380791
:100D2000A8F0E889F989108260E874E88EE190E023
:100D3000A70196010E940E12DA01C9010197A109CB
:100D4000B109B695A795979587959C01EC85FD858A
:100D50003083EE85FF852083188EEC89FD8986E03F
:100D60008083EA89FB89808180618083EA89FB89AD
:100D7000808188608083EA89FB89808180688083A4
:100D8000EA89FB8980818F7D8083DF91CF91FF90FD
:100D9000EF90DF90CF9008958F929F92AF92BF9285
:100DA0000F931F93CF93DF93CDB7DEB7A1970FB605
:100DB000F894DEBF0FBECDBF19A2423008F44AE05E
:100DC0008E010F5D1F4F842E912CA12CB12CA501FB
:100DD00094010E940E12E62FB901CA0101501109B7
:100DE000EA3014F4E05D01C0E95CD801EC93232BF8
:100DF000242B252B61F7C8014FDFA1960FB6F8947D
:100E0000DEBF0FBECDBFDF91CF911F910F91BF907D
:100E1000AF909F908F900895EAE8F5E090E02FEF73
:100E20003FEF981791F04191242748E0B901617094
:100E3000772736952795672B21F051E0252750EA33
:100E40003527415099F79F5FECCF922F832F08955C
:100E50001F93CF93DF9300D01F92CDB7DEB71091D1
:100E6000CA05812FD9DFE12FF0E0EF57FA4F9187C4
:100E7000E1E0E10FF0E0EF57FA4F81871E5F10933A
:100E8000CA0580918705823010F061E028DD8091ED
:100E900086054091CA05843028F48091810590919F
:100EA000820504C0809183059091840550E0DC01A7
:100EB000ED91FC910280F381E02D6AE875E01995CF
:100EC00080918705823088F180918605843058F4BE
:100ED0008091810590918205DC01ED91FC91068065
:100EE000F781E02D19958091DE059091DF05A091A5
:100EF000E005B091E10589839A83AB83BC83898146
:100F00009A81AB81BC81AC01BD014150510961099D
:100F1000710949835A836B837C83892B8A2B8B2BA2
:100F200071F760E080918705DADC80918605843076
:100F300048F58091810590918205DC01ED91FC914D
:100F40000284F385E02D199597FFF3CF1092CA051F
:100F5000A5DD6093DA057093DB058093DC05909343
:100F6000DD058091D0059091D10501969093D10532
:100F70008093D0050F900F900F900F90DF91CF913D
:100F80001F9108958091830590918405DC01ED9176
:100F9000FC910284F385E02D199597FFF3CFD6CF0E
:100FA000FC01A089B1898C91A689B78982FD0FC007
:100FB0009C91818D8F5F8F73228D821749F0218DD7
:100FC000DF01A20FB11D5D969C93818F08958C91D6
:100FD0000895CF93DF93CDB7DEB72E970FB6F89471
:100FE000DEBF0FBECDBF789484B5826084BD84B56A
:100FF000816084BD85B5826085BD85B5816085BD14
:1010000080916E00816080936E00109281008091CB
:101010008100826080938100809181008160809353
:101020008100809180008160809380008091B10078
:1010300084608093B1008091B00081608093B000A3
:1010400080919100826080939100809191008160F5
:1010500080939100809190008160809390008091B6
:10106000A10082608093A1008091A10081608093A3
:10107000A1008091A00081608093A0008091210157
:101080008260809321018091210181608093210100
:101090008091200181608093200180917A0084609A
:1010A00080937A0080917A00826080937A008091A8
:1010B0007A00816080937A0080917A0080688093C2
:1010C0007A001092C10040E855E260E070E087E4E9
:1010D00094E0FFDD89E08093870583EE95E09093AF
:1010E0008405809383051092FE051092FD051092F1
:1010F000FC051092FB051092FA051092F9058DE996
:1011000091E0909300068093FF058091EF0596EFA4
:10111000980F943048F02EEC280F243028F022EC61
:10112000280F283008F062C02DEB30E03093FA052C
:101130002093F9052BE931E03093FC052093FB0562
:101140002CE231E03093FE052093FD05943058F0F9
:101150002EEC280F243038F022EC280F283030F401
:10116000A8E6B0E005C0A8E6B0E052C7A0E0B0E055
:10117000283008F44DC7E0E0F0E02081943008F416
:101180002BC79EEC980F943008F426C78E538830F6
:1011900008F022C784E0822B8C938091EF0596EFB4
:1011A000980F943008F41AC72EEC280F243008F456
:1011B00015C722EC280F283008F013C72DE630E0C1
:1011C0003093F7052093F605943008F00DC79AEF99
:1011D000980F81E001C0880F9A95EAF78093F8058F
:1011E0008091FF05909100060197F1F78091FD0530
:1011F0009091FE05892B49F1E091AA02F091AB0292
:1012000025E0E33EF20709F1309739F0A389B4896C
:101210009C918589809589238C93809101068E7F8E
:10122000809301061092A9021092A80283EE95E025
:101230009093AB028093AA02E091F605F091F70536
:1012400090818091F805892B808380918705823079
:1012500030F061E0C2DB60E08091870540DB809187
:10126000830590918405DC01ED91FC910284F38566
:10127000E02D199597FFF3CF1092CA051092CB0578
:101280001092D3051092D2051092D1051092D0057C
:101290001092CF051092CE0501DC6093FE0670938C
:1012A000FF068093000790930107609302077093F5
:1012B00003078093040790930507609306077093D4
:1012C0000707809308079093090760930A077093B4
:1012D0000B0780930C0790930D0780918605823051
:1012E00039F0833041F0813049F48AEA93E008C054
:1012F00084EE94E005C08DE093E002C087E494E0C2
:10130000909382058093810540E855E260E070E0AB
:101310008091810590918205DCDC80918705823087
:1013200030F061E05ADB60E080918705D8DA809187
:10133000810590918205DC01ED91FC910284F38599
:10134000E02D199597FFF3CF1092CA051092CB05A7
:101350001092D3051092D2051092D1051092D005AB
:101360001092CF051092CE058CE692E0A6DC95E8AF
:10137000292E92E0392EFE013296FC87EB879E01E2
:101380002A5F3F4F3E872D8789DB4B015C018091AF
:10139000F2069091F306A091F406B091F506B5011E
:1013A000A401481B590B6A0B7B0B8091EE069091B0
:1013B000EF06A091F006B091F106481759076A07A9
:1013C0007B0708F41CC28092F2069092F306A0926A
:1013D000F406B092F50620914606309147068091BA
:1013E0004806909149068217930734F481E090E013
:1013F000909347068093460680910E0790910F07C1
:10140000009709F03FC08092FA069092FB06A092E6
:10141000FC06B092FD06009146061091470684E056
:10142000000F111F8A95E1F70256194F61E0809174
:10143000440655DA780130E1E30EF11CD8016C91D5
:101440000E5F1F4F8091420690914306DC01ED91A3
:10145000FC910190F081E02D1995E016F10671F7ED
:101460008091420690914306DC01ED91FC9106804B
:10147000F781E02D199560E08091440630DA81E033
:1014800090E055C0019709F057C08091FA069091FD
:10149000FB06A091FC06B091FD06B501A401481B16
:1014A000590B6A0B7B0B8091F6069091F706A09181
:1014B000F806B091F90684179507A607B70738F51F
:1014C00010920F0710920E078091460690914706E2
:1014D0009C0121503109FC01EE0FFF1FEE0FFF1F91
:1014E000E650F94F80829182A282B3824CE0429F03
:1014F000F001439FF00D1124EE5FF94F1482158225
:1015000016821782108211821282138273C1809117
:10151000420690914306DC01ED91FC910084F18537
:10152000E02D1995892B09F46AC182E090E090932F
:101530000F0780930E0763C10AE416E0809142060C
:1015400090914306DC01ED91FC910084F185E02D42
:101550001995892BF9F08091420690914306DC01A0
:10156000ED91FC910284F385E02D1995F8018193AA
:1015700091938F016EDA6B017C016BDADC01CB0198
:101580008C199D09AE09BF09883E9340A105B1059C
:10159000A8F6F3CF10920F0710920E0780914A061B
:1015A00090914B06019797FD07C020914806309116
:1015B00049068217930724F082E792E07EDB92C00F
:1015C0002CE0289FF001299FF00D1124EE5FF94FC8
:1015D0008091500690915106A0E0B0E0BA2FA92F5B
:1015E000982F88272091520630915306820F931F1F
:1015F000A11DB11DBA2FA92F982F8827209154061D
:1016000030915506820F931FA11DB11DBA2FA92F2E
:10161000982F88272091560630915706820F931FE6
:10162000A11DB11D80839183A283B383809158064D
:1016300090915906A0E0B0E0BA2FA92F982F8827E3
:1016400020915A0630915B06820F931FA11DB11D98
:10165000BA2FA92F982F882720915C0630915D061C
:10166000820F931FA11DB11DBA2FA92F982F882774
:1016700020915E0630915F06820F931FA11DB11D60
:1016800084839583A683B7838091700690917106B9
:10169000A0E0B0E0BA2FA92F982F882720917206DA
:1016A00030917306820F931FA11DB11DBA2FA92F70
:1016B000982F88272091740630917506820F931F0A
:1016C000A11DB11DBA2FA92F982F8827209176062A
:1016D00030917706820F931FA11DB11D80879187DE
:1016E000A287B387E0904A06F0904B06870101502D
:1016F000110917FD07C08091480690914906081707
:10170000190724F082E792E0D8DA70C060911007E0
:1017100070911107072E000C880B990BA5D72B0190
:101720003C018CE0809FF001819FF00D1124EE5F61
:10173000F94F2481358146815781C301B2010E944E
:10174000E813A30192010E94E8132BED3FE049E466
:101750005FE30E94E8132B013C01F701EE0FFF1F2E
:10176000EE0FFF1FE650F94F80819181A281B38176
:10177000A5019401281B390B4A0B5B0BCA01B90167
:1017800071D79B01AC01C301B2010E94E81320E0B4
:1017900030E04AE754E4CDD62B013C0120E030E0B4
:1017A000A9010E94E4131816B4F4C701880F991F09
:1017B000880F991FAC01425D594F7A01A301920134
:1017C000D7016D917D918D919C914BD6F7016083EE
:1017D000718382839383000F111F000F111FF80183
:1017E000E250F94F80829182A282B38280914606B4
:1017F000909147060196909347068093460680EBAA
:1018000092E09093CD058093CC058AE08093E20529
:1018100080918605843028F480918105909182051D
:1018200004C08091830590918405DC01ED91FC91C9
:101830000084F185E02D1995882309F4FCC090916E
:10184000CB05891761F08093CB0528D96093D60525
:101850007093D7058093D8059093D905ECC01ED915
:101860000091D6051091D7052091D8053091D90562
:10187000DC01CB01801B910BA20BB30B0597A105DB
:10188000B10508F4D8C01092CB058091870582304D
:1018900010F060E024D81092CA0580918605F12CE2
:1018A000843008F045C08091810590918205DC016B
:1018B000ED91FC910084F185E02D1995892B09F4B7
:1018C00044C00091CA0510E0809181059091820585
:1018D000DC01ED91FC910284F385E02D1995F8016E
:1018E000EF57FA4F81878091CA058F5F8093CA05B1
:1018F0008034C8F2FF24F394D6CF0091CA0510E0DB
:101900008091830590918405DC01ED91FC91028426
:10191000F385E02D1995F801EF57FA4F81878091F3
:10192000CA058F5F8093CA05803410F0FF24F394BA
:101930008091830590918405DC01ED91FC910084F8
:10194000F185E02D1995892BC1F68091CE059091F6
:10195000CF0501969093CF058093CE05FF2059F0D7
:101960008091D2059091D30501969093D3058093F1
:10197000D2058DEF02C08091CA058093890587301A
:101980000CF459C090918A0580918505981353C035
:101990008091CA05082F10E082503EDAF801EF5717
:1019A000FA4F278130E0322F22274085242B281739
:1019B000390759F08091D2059091D3050196909303
:1019C000D3058093D2051FEF34C020918B05E0E052
:1019D000F2E088E092E03191321709F439C18E17B4
:1019E0009F07C9F78091D2059091D30501969093F6
:1019F000D3058093D20511E012C080918C0590919F
:101A00008D0598278927982744E0969587954A95CC
:101A1000E1F79091E205981708F056C112E080E8CE
:101A2000820F80938B0510938C0583E08093CA0509
:101A30000FDA1093890580EBE82E82E0F82E05E09E
:101A400010E09CE2692E28EE422E23E0522E33E273
:101A5000732E61E088E00E946F04D701CD90DC9086
:101A6000B4E2B9831F930F933F922F92EC85EF93CB
:101A7000FB85FF9343D76D82C601B2010CD79F93BC
:101A80008F933F922F922E852F933D853F9336D78C
:101A900079861A8649E050E0BE016F5F7F4F84EE81
:101AA00094E0D0D884EE94E00E94360244E0E40E44
:101AB000F11C0F5F1F4F0FB6F894DEBF0FBECDBFF6
:101AC0000930110531F68091AC029091AD02A091E0
:101AD000AE02B091AF02A5019401281B390B4A0B4D
:101AE0005B0BDA01C901883E9340A105B10508F4FA
:101AF000ACC08092AC029092AD02A092AE02B092C5
:101B0000AF0202E016E0412C512C320143948AE8E6
:101B100092E0C2D84AE0C301B2013ED98FE892E018
:101B2000BBD8D8011496CD90DD90ED90FC9017971E
:101B300020E030E0A901C701B601F7D487FF09C052
:101B40006DE287E494E00E94EA01F7FAF094F7F876
:101B5000F094C701B60155D54B01770FAA08BB0811
:101B6000B7FE10C06DE287E494E00E94EA01882786
:101B70009927DC0188199909AA09BB094AE0BC0127
:101B8000CD0103C04AE0C501B40106D988E992E05D
:101B900083D820E030E0A901C701B60115D687FD42
:101BA00008C0C501B40160D59B01AC01C701B601F5
:101BB00005C0C501B40158D5A701960151D420E054
:101BC00030E543EC57E404D621D5B62EC72ED82EE7
:101BD000E92E262F372F482F592F84E0F82ECA01DF
:101BE000B9012AE030E040E050E018D42115310579
:101BF0004105510511F0FA94F2CFFF2029F08AE94E
:101C000092E04AD8FA94F9CF4AE06B2D7C2D8D2DC5
:101C10009E2DC2D88CE992E03FD8F801608571858D
:101C2000828593854AE0B8D8FFEF4F1A5F0A6F0AA2
:101C30007F0A045F1F4F25E04216510461047104BE
:101C400009F065CF85EA92E027D80E9457029CCB25
:101C5000822F90E0FC013197E031F105A8F588274B
:101C6000EE58FF4F8F4F2AC680918C0590918D05BD
:101C700098278927982754E0969587955A95E1F7F4
:101C800040918E0550918F0554274527542764E0D5
:101C9000569547956A95E1F714C080918C0590910F
:101CA0008D0598278927B5CE80918E0590918F0557
:101CB000582F492F80918C0590918D059827892761
:101CC0009827840F951FA5CE0E944E056093DA05D4
:101CD0007093DB058093DC059093DD0510928905F8
:101CE000E0918B058E2F90E0FC013197E031F105FA
:101CF00008F0A1CE8827EE57FF4F8F4FDFC58091A8
:101D00008C0590918D0598278927982740918E05FD
:101D100050918F055427452754279A0103E03695A3
:101D200027950A95E1F7E22FBA01677077276115C9
:101D3000710511F0E1E0E20FE0938C0523E02093C0
:101D4000CA05F0E0EF57FA4F1386480F591F30E0ED
:101D50008417950709F43FC0FC0113E0F695E79559
:101D60001A95E1F7EE7FF170E055FD4FA081B1814A
:101D7000E82FEF7002C0B695A795EA95E2F7E22F3B
:101D8000F0E0EF57FA4FA0FF0FC0A185C12CD12C76
:101D90007601C394032E04C0CC0CDD1CEE1CFF1C8A
:101DA0000A94D2F7CA2A0FC0C12CD12C7601C39451
:101DB000032E04C0CC0CDD1CEE1CFF1C0A94D2F7D1
:101DC000C094A185CA22C1863F5F383010F02F5FD2
:101DD00030E00196BDCF2093CA05672B09F477C088
:101DE0002F5F2093CA0573C040918C0550918D05DB
:101DF00054274527942F20918E0530918F05322747
:101E000023273227822F880F80938C0583E0332786
:101E1000240F311D42E0480FE92FF0E0E217F307ED
:101E20000CF053C0EE0FFF1FE055FD4F5081618154
:101E3000E82FF0E0EF57FA4F61878F5FE82FF0E06F
:101E4000EF57FA4F51879F5F842FE4CF80918C0525
:101E500090918D05982789279827FC0194E0F695A5
:101E6000E7959A95E1F78F7090918E05FF27EE0F19
:101E7000FF1FE055FD4F9F3F91F441E050E060E0CF
:101E800070E004C0440F551F661F771F8A95D2F774
:101E900080819181482B592B5183408315C021E0CB
:101EA00030E040E050E004C0220F331F441F551FB4
:101EB0008A95D2F7DA01C901809590952081318108
:101EC000822393239183808386E08093CA050E94B6
:101ED0002807B1CDE0918D05F0E0EE0FFF1FE05532
:101EE000FD4F80918E0590918F059827892798271F
:101EF000E9CF80918C0590918D05982789279827A7
:101F000020918E0530918F05322723273227280F05
:101F1000391F40E057E028173907B1F2A82FAF70FA
:101F2000E52FF0E0EF57FA4F618570E0042E02C014
:101F3000759567950A94E2F7FC0174E0F695E795CC
:101F40007A95E1F7FF27EE0FFF1FE055FD4FC12CFB
:101F5000D12C7601C39404C0CC0CDD1CEE1CFF1CFC
:101F6000AA95D2F760FF05C0608171816C297D2937
:101F700007C0B60160957095A081B1816A237B236B
:101F8000718360834F5F483010F05F5F40E00196DF
:101F9000C2CFE0918D0520918F0510928E0586E0CD
:101FA0008093CA05A1E8B5E0F0E0EE0FFF1FE05511
:101FB000FD4F30E01296231709F489CF1E968C91BD
:101FC0001E9790E0982F88271F964C911F97842B7F
:101FD000819391933F5FEECF81E0DDC82BE630E047
:101FE000EFC820E030E0ECC8823351F0833351F089
:101FF000843351F092EC980F983040F492ECE8C89A
:1020000088E0ECC884E0EAC882E0E8C881E0E6C87D
:10201000E8E6F0E0B2C88EE592E09093E4058093A4
:10202000E3058091AA029091AB02835E954071F422
:10203000E091F605F091F70590818091F805809583
:10204000892380831092AB021092AA020895CF9246
:10205000DF92EF92FF921092100310920F0398EE0E
:10206000C92E93E0D92EE12CF12CC0921103D0920D
:102070001203E0921303F09214038CE492E0909325
:102080000E0380930D0325E331E030931A03209370
:10209000190324E331E030931C0320931B0320E356
:1020A00031E030931E0320931D0321E331E0309390
:1020B000200320931F0322E331E030932203209377
:1020C000210326E331E0309324032093230310926D
:1020D00026031092270310922803109229031092CE
:1020E000E7041092E604C092E804D092E904E0927A
:1020F000EA04F092EB049093E5048093E40425ED68
:1021000030E03093F1042093F00424ED30E030937C
:10211000F3042093F20420ED30E03093F504209393
:10212000F40421ED30E03093F7042093F60422ED1F
:1021300030E03093F9042093F80426ED30E030933A
:10214000FB042093FA041092FD041092FE041092F6
:10215000FF04109200051092AD031092AC03C092E0
:10216000AE03D092AF03E092B003F092B10390932C
:10217000AB038093AA032DEC30E03093B703209398
:10218000B6032CEC30E03093B9032093B80328EC6D
:1021900030E03093BB032093BA0329EC30E0309356
:1021A000BD032093BC032AEC30E03093BF0320939F
:1021B000BE032EEC30E03093C1032093C003109295
:1021C000C3031092C4031092C5031092C603109269
:1021D0004A0410924904C0924B04D0924C04E092FD
:1021E0004D04F0924E04909348048093470485EC8C
:1021F00090E0909354048093530484EC90E0909387
:1022000056048093550480EC90E09093580480939A
:10221000570481EC90E090935A048093590482EC27
:1022200090E090935C0480935B0486EC90E0909344
:102230005E0480935D041092600410926104109219
:1022400062041092630480E1E2E3F6E0DF01982F7C
:102250001D929A95E9F724EE34E0309343062093DB
:10226000420621E030E03093470620934606309343
:1022700049062093480690E4E8E0F2E0AEEAB6E0D2
:1022800001900D929A95E1F744EF51E060E070E023
:102290004093EE065093EF066093F0067093F106BC
:1022A0001092F2061092F3061092F4061092F506C0
:1022B000C092F606D092F706E092F806F092F90680
:1022C0001092FA061092FB061092FC061092FD0680
:1022D000EEEFF6E0DF011D928A95E9F710920F0705
:1022E00010920E0781E490E09093110780931007FD
:1022F00088E090E0909345068093440661E00E9458
:10230000ED0440E855E260E070E080914206909173
:1023100043060E9469061092E6051092E505C092F8
:10232000E705D092E805E092E905F092EA058EE52E
:1023300092E09093E4058093E3051092FA051092E1
:10234000F9051092FC051092FB051092FE05109203
:10235000FD05109200061092FF05609101066E7F48
:102360006D7F609301066695617081E068278BE060
:102370000E946F0461E08BE00E94ED04EDE2F2E068
:10238000E491E093F305E7EEF1E0E491F0E0EE0F85
:10239000FF1FEE53FE4F859194919093F505809326
:1023A000F40560E08AE00E94ED048091010681FD61
:1023B00004C061E08AE00E946F048AE08093EF0528
:1023C000ECE2F2E0E491E093F005E6EEF1E0E49176
:1023D000F0E0EE0FFF1FE855FE4F8591949190932A
:1023E000F2058093F10581E08093850584E0809378
:1023F00086051092870588EE93E09093D50580932B
:10240000D4051092DE051092DF051092E0051092BF
:10241000E105FF90EF90DF90CF900895A1E21A2E92
:10242000AA1BBB1BFD010DC0AA1FBB1FEE1FFF1F78
:10243000A217B307E407F50720F0A21BB30BE40BC8
:10244000F50B661F771F881F991F1A9469F760950F
:102450007095809590959B01AC01BD01CF010895C9
:102460005058BB27AA270ED075C166D130F06BD16A
:1024700020F031F49F3F11F41EF45BC10EF4E0959F
:10248000E7FB51C1E92F77D180F3BA1762077307D1
:102490008407950718F071F49EF58FC10EF4E0954E
:1024A0000B2EBA2FA02D0B01B90190010C01CA010E
:1024B000A0011124FF27591B99F0593F50F4503EB9
:1024C00068F11A16F040A22F232F342F4427585FAB
:1024D000F3CF469537952795A795F0405395C9F7C3
:1024E0007EF41F16BA0B620B730B840BBAF091507B
:1024F000A1F0FF0FBB1F661F771F881FC2F70EC01A
:10250000BA0F621F731F841F48F4879577956795EC
:10251000B795F7959E3F08F0B3CF9395880F08F0D5
:102520009927EE0F979587950895D9D008F481E003
:1025300008950CD00FC107D140F0FED030F021F447
:102540005F3F19F0F0C0511139C1F3C014D198F3B5
:102550009923C9F35523B1F3951B550BBB27AA2724
:1025600062177307840738F09F5F5F4F220F331F96
:10257000441FAA1FA9F333D00E2E3AF0E0E830D062
:1025800091505040E695001CCAF729D0FE2F27D065
:10259000660F771F881FBB1F261737074807AB0733
:1025A000B0E809F0BB0B802DBF01FF2793585F4FA8
:1025B0002AF09E3F510568F0B6C000C15F3FECF3C2
:1025C000983EDCF3869577956795B795F7959F5F6D
:1025D000C9F7880F911D9695879597F90895E1E0C1
:1025E000660F771F881FBB1F621773078407BA0720
:1025F00020F0621B730B840BBA0BEE1F88F7E0957B
:10260000089504D06894B111D9C00895BCD088F061
:102610009F5790F0B92F9927B751A0F0D1F0660FCE
:10262000771F881F991F1AF0BA95C9F712C0B130E9
:1026300081F0C3D0B1E00895C0C0672F782F8827FC
:10264000B85F39F0B93FCCF3869577956795B39528
:10265000D9F73EF490958095709561957F4F8F4F97
:102660009F4F0895E89409C097FB3EF4909580959C
:10267000709561957F4F8F4F9F4F9923A9F0F92F48
:1026800096E9BB279395F695879577956795B795C6
:10269000F111F8CFFAF4BB0F11F460FF1BC06F5FAC
:1026A0007F4F8F4F9F4F16C0882311F096E911C0BE
:1026B000772321F09EE8872F762F05C0662371F0DF
:1026C00096E8862F70E060E02AF09A95660F771FF3
:1026D000881FDAF7880F9695879597F90895990FCF
:1026E0000008550FAA0BE0E8FEEF16161706E807DC
:1026F000F907C0F012161306E407F50798F0621BFD
:10270000730B840B950B39F40A2661F0232B242BD1
:10271000252B21F408950A2609F4A140A6958FEFF0
:10272000811D811D089597F99F6780E870E060E042
:1027300008959FEF80EC089500240A94161617065A
:1027400018060906089500240A94121613061406A2
:1027500005060895092E0394000C11F4882352F005
:10276000BB0F40F4BF2B11F460FF04C06F5F7F4FBD
:102770008F4F9F4F089557FD9058440F551F59F0A4
:102780005F3F71F04795880F97FB991F61F09F3F5E
:1027900079F087950895121613061406551FF2CF87
:1027A0004695F1DF08C0161617061806991FF1CFD7
:1027B00086957105610508940895E894BB276627FE
:1027C0007727CB0197F908958ADF08F48FEF0895F2
:1027D0000BD0C0CFB1DF28F0B6DF18F0952309F099
:1027E000A2CFA7CF1124EACFC6DFA0F3959FD1F3E4
:1027F000950F50E0551F629FF001729FBB27F00DAF
:10280000B11D639FAA27F00DB11DAA1F649F662703
:10281000B00DA11D661F829F2227B00DA11D621F52
:10282000739FB00DA11D621F839FA00D611D221F0C
:10283000749F3327A00D611D231F849F600D211DF0
:10284000822F762F6A2F11249F5750408AF0E1F093
:1028500088234AF0EE0FFF1FBB1F661F771F881FDC
:1028600091505040A9F79E3F510570F05CCFA6CF24
:102870005F3FECF3983EDCF3869577956795B795C7
:10288000F795E7959F5FC1F7FE2B880F911D9695F1
:10289000879597F9089597FB072E16F4009406D0B4
:1028A00077FD08D013D007FC05D03EF490958195B4
:1028B0009F4F0895709561957F4F0895EE0FFF1F0C
:1028C000881F8BBF0790F691E02D1994AA1BBB1BA4
:1028D00051E107C0AA1FBB1FA617B70710F0A61B20
:1028E000B70B881F991F5A95A9F780959095BC0141
:1028F000CD01089581E090E0F894DBC20F931F931F
:10290000CF93DF93CDB7DEB72E970FB6F894DEBF27
:102910000FBECDBF0E891F8986E08C831A83098381
:102920008FEF9FE79E838D83AE01465E5F4F688D7C
:10293000798DCE01019610D0EF81F885E00FF11F5F
:1029400010822E960FB6F894DEBF0FBECDBFDF917A
:10295000CF911F910F9108952F923F924F925F92C6
:102960006F927F928F929F92AF92BF92CF92DF929F
:10297000EF92FF920F931F93CF93DF93CDB7DEB704
:102980002B970FB6F894DEBF0FBECDBF6C017B0155
:102990008A01FC0117821682838181FFBFC1CE01AB
:1029A00001963C01F6019381F70193FD859193FF18
:1029B00081917F01882309F4ADC1853239F493FDFB
:1029C000859193FF81917F01853221F4B60190E0DA
:1029D000D6D1E8CF912C212C312CFFE1F315D8F082
:1029E0008B3279F038F4803279F08332A1F4232DE0
:1029F00020611DC08D3261F0803369F4232D216088
:102A000016C0832D8260382EE32DE4603E2E2AC04E
:102A1000F32DF8601DC037FC2DC020ED280F2A30A3
:102A200040F08E32B9F436FC75C1232D2064322E6D
:102A300019C036FE06C08AE0989E200D1124922E01
:102A400011C0EAE02E9E200D1124222EF32DF062FB
:102A50003F2E08C08C3621F4832D8068382E02C0AA
:102A6000883641F4F70193FD859193FF81917F01B1
:102A70008111B3CF982F9F7D9554933028F40C5F2C
:102A80001F4F9FE399830DC0833631F0833771F078
:102A9000833509F055C020C0F801808189830E5F1D
:102AA0001F4F88248394912C530112C02801F2E017
:102AB0004F0E511CF801A080B18036FE03C0692D75
:102AC00070E002C06FEF7FEFC5014ED14C01820173
:102AD000F32DFF773F2E15C0280122E0420E511C36
:102AE000F801A080B18036FE03C0692D70E002C0FD
:102AF0006FEF7FEFC5012DD14C01F32DF0683F2E14
:102B0000820133FC19C0822D90E088169906A0F44A
:102B1000B60180E290E033D12A94F5CFF50137FC7D
:102B2000859137FE81915F01B60190E028D1211097
:102B30002A9421E0821A91088114910479F7E1C066
:102B4000843611F0893639F5F80137FE07C0608107
:102B50007181828193810C5F1F4F08C060817181F8
:102B6000072E000C880B990B0E5F1F4FF32DFF767D
:102B70003F2E97FF09C090958095709561957F4F86
:102B80008F4F9F4FF0683F2E2AE030E0A30133D1F2
:102B9000882E861844C0853731F4232D2F7EB22E1F
:102BA0002AE030E025C0932D997FB92E8F36C1F0F1
:102BB00018F4883579F0AEC0803719F0883721F0E5
:102BC000A9C0E92FE061BE2EB4FE0DC0FB2DF4605C
:102BD000BF2E09C034FE0AC0292F2660B22E06C0BF
:102BE00028E030E005C020E130E002C020E132E022
:102BF000F801B7FE07C060817181828193810C5F0B
:102C00001F4F06C06081718180E090E00E5F1F4F12
:102C1000A301F1D0882E8618FB2DFF773F2E36FEBC
:102C20000DC0232D2E7FA22E891458F434FE0BC024
:102C300032FC09C0832D8E7EA82E05C0B82CA32C93
:102C400003C0B82C01C0B92CA4FE0FC0FE01E80DD2
:102C5000F11D8081803321F49A2D997EA92E09C01F
:102C6000A2FE06C0B394B39404C08A2D867809F0FE
:102C7000B394A3FC10C0A0FE06C0B21480F4280CCC
:102C8000922C9B180DC0B21458F4B60180E290E06B
:102C900076D0B394F8CFB21418F42B1802C0982C45
:102CA000212CA4FE0FC0B60180E390E068D0A2FE04
:102CB00016C0A1FC03C088E790E002C088E590E060
:102CC000B6010CC08A2D867851F0A1FE02C08BE2BD
:102CD00001C080E2A7FC8DE2B60190E050D08914DB
:102CE00030F4B60180E390E04AD09A94F8CF8A9409
:102CF000F301E80DF11D8081B60190E040D0811014
:102D0000F6CF222009F44ECEB60180E290E037D013
:102D10002A94F7CFF6018681978102C08FEF9FEF4B
:102D20002B960FB6F894DEBF0FBECDBFDF91CF91CB
:102D30001F910F91FF90EF90DF90CF90BF90AF90D9
:102D40009F908F907F906F905F904F903F902F90CB
:102D50000895FC010590615070400110D8F78095EE
:102D600090958E0F9F1F0895FC0161507040019057
:102D70000110D8F7809590958E0F9F1F08950F939F
:102D80001F93CF93DF93FB01238121FD03C08FEFBE
:102D90009FEF2CC022FF16C04681578124813581C8
:102DA0004217530744F4A081B1819D012F5F3F4F2B
:102DB000318320838C93268137812F5F3F4F378368
:102DC000268314C08B01EC01FB010084F185E02D0A
:102DD0001995892BE1F6D80116968D919C9117973C
:102DE000019617969C938E931697CE01DF91CF9103
:102DF0001F910F910895FA01AA27283051F120312F
:102E000081F1E8946F936E7F6E5F7F4F8F4F9F4F7E
:102E1000AF4FB1E03ED0B4E03CD0670F781F891FC0
:102E20009A1FA11D680F791F8A1F911DA11D6A0F8E
:102E3000711D811D911DA11D20D009F468943F9141
:102E40002AE0269F11243019305D3193DEF6CF0140
:102E50000895462F4770405D4193B3E00FD0C9F706
:102E6000F6CF462F4F70405D4A3318F0495D31FD73
:102E70004052419302D0A9F7EACFB4E0A6959795C6
:102E8000879577956795BA95C9F70097610571059C
:102E900008959B01AC010A2E0694579547953795E6
:102EA0002795BA95C9F7620F731F841F951FA01D40
:102EB000089511E0C5E3D1E000E005C0802FFE01D8
:102EC000FDDC2196011DC633D10780E00807B1F76C
:042ED000F894FFCFA4
:102ED4000102030405060F10010004001000100095
:102EE400000016007400C10002000400100010006D
:102EF400000016007400F20003000400100010002B
:102F040000001600750023000400040010001000E7
:102F1400000016007400940000000000EA0122067C
:102F240067013602980176018A01000000009902C7
:102F3400220622039802E90200038002696E697482
:102F44003200696E646578206F7574206F66207234
:102F5400616E67650025303364002049443A0020DF
:102F6400E6B581E9809F3A002E00300020E7B8BD25
:082F7400E9878F3A000D0A0005
:020000023000CC
:10E000000D9489F10D94B2F10D94B2F10D94B2F129
:10E010000D94B2F10D94B2F10D94B2F10D94B2F1F0
:10E020000D94B2F10D94B2F10D94B2F10D94B2F1E0
:10E030000D94B2F10D94B2F10D94B2F10D94B2F1D0
:10E040000D94B2F10D94B2F10D94B2F10D94B2F1C0
:10E050000D94B2F10D94B2F10D94B2F10D94B2F1B0
:10E060000D94B2F10D94B2F10D94B2F10D94B2F1A0
:10E070000D94B2F10D94B2F10D94B2F10D94B2F190
:10E080000D94B2F10D94B2F10D94B2F10D94B2F180
:10E090000D94B2F10D94B2F10D94B2F10D94B2F170
:10E0A0000D94B2F10D94B2F10D94B2F10D94B2F160
:10E0B0000D94B2F10D94B2F10D94B2F10D94B2F150
:10E0C0000D94B2F10D94B2F10D94B2F10D94B2F140
:10E0D0000D94B2F10D94B2F10D94B2F10D94B2F130
:10E0E0000D94B2F141546D656761323536300041AF
:10E0F000726475696E6F206578706C6F72657220DE
:10E1000073746B3530305632206279204D4C530099
:10E11000426F6F746C6F616465723E004875683F52
:10E1200000436F6D70696C6564206F6E203D200048
:10E130004350552054797065202020203D20005FF9
:10E140005F4156525F415243485F5F3D2000415658
:10E1500052204C696243205665723D20004743437C
:10E160002056657273696F6E203D20004350552024
:10E1700049442020202020203D20004C6F7720663D
:10E18000757365202020203D20004869676820665F
:10E190007573652020203D200045787420667573D6
:10E1A00065202020203D20004C6F636B2066757336
:10E1B000652020203D20004D617220203720323024
:10E1C000313300312E362E3800342E332E350056A2
:10E1D00023202020414444522020206F7020636F70
:10E1E00064652020202020696E73747275637469E1
:10E1F0006F6E2061646472202020496E74657272B3
:10E20000757074006E6F20766563746F7200726A49
:10E210006D702020006A6D70200057686174207056
:10E220006F72743A00506F7274206E6F7420737541
:10E2300070706F72746564004D7573742062652030
:10E2400061206C6574746572002000577269747483
:10E25000696E672045450052656164696E672045B7
:10E26000450045452065727220636E743D00504F35
:10E27000525400303D5A65726F2061646472003FF1
:10E280003D43505520737461747300403D454550C3
:10E29000524F4D207465737400423D426C696E6B41
:10E2A000204C454400453D44756D70204545505215
:10E2B0004F4D00463D44756D7020464C415348001B
:10E2C000483D48656C70004C3D4C69737420492F83
:10E2D0004F20506F72747300513D51756974005234
:10E2E0003D44756D702052414D00563D73686F7707
:10E2F00020696E7465727275707420566563746FF0
:10E30000727300593D506F727420626C696E6B00BD
:10E310002A0011241FBECFEFD1E2DEBFCDBF01E046
:10E320000CBF12E0A0E0B2E0EEE1FDEF03E00BBFB6
:10E3300002C007900D92A030B107D9F712E0A0E01B
:10E34000B2E001C01D92AE30B107E1F70F9460F367
:10E350000D948DFE01E20EBF0FEF0DBF11241FBE05
:10E360000D9460F30D9400F020E030E040ED57E0B4
:10E3700005C0FA013197F1F72F5F3F4F2817390792
:10E38000C0F308959C01260F311DC901A0E0B0E043
:10E390002F5F3F4FABBFFC018791882361F08093D3
:10E3A000C6008091C00086FFFCCF8091C0008064D1
:10E3B0008093C000EACF08958DE08093C6008091DD
:10E3C000C00086FFFCCF8091C00080648093C000B5
:10E3D0008AE08093C6008091C00086FFFCCF8091C8
:10E3E000C00080648093C00008950F94C2F10F9420
:10E3F000DCF10895FC019081992359F09093C600B7
:10E400008091C00086FFFCCF8091C0008064809323
:10E41000C0003196992379F70895282F982F929567
:10E420009F70892F805D8A3308F0895F8093C600D2
:10E430008091C00086FFFCCF8091C00080648093F3
:10E44000C000822F8F70982F905D9A3308F0995FEB
:10E450009093C6008091C00086FFFCCF8091C000E1
:10E4600080648093C00008959C01FB01853691056E
:10E470001CF46330710594F0C90164E670E00F94F8
:10E480002EFE605D7F4F6093C6008091C00086FFC6
:10E49000FCCF8091C00080648093C0002B30310598
:10E4A00014F43297B4F0C90164E670E00F942EFEC4
:10E4B0006AE070E00F942EFE605D7F4F6093C600AF
:10E4C0008091C00086FFFCCF8091C0008064809363
:10E4D000C000C9016AE070E00F942EFEC0968093E0
:10E4E000C6008091C00086FFFCCF8091C000806490
:10E4F0008093C00008951F93182F8EE692EE60E07F
:10E500000F94C2F11093C6008091C00086FFFCCF2B
:10E510008091C00080648093C0000F94DCF11F9153
:10E5200008952F923F924F925F926F927F928F92B7
:10E530009F92AF92BF92CF92DF92EF92FF920F9392
:10E540001F93DF93CF93CDB7DEB762970FB6F894E2
:10E55000DEBF0FBECDBF382E622ECA01DB015C01CB
:10E560006D01772420E2222E2E010894411C511CBB
:10E570008BC081E0A81680E0B80681E0C80680E084
:10E58000D80628F0C601AA27BB270F940DF2BB2797
:10E59000AD2D9C2D8B2D0F940DF28A2D0F940DF225
:10E5A0002092C6008091C00086FFFCCF8091C00001
:10E5B00080648093C0009DE29093C6008091C0006B
:10E5C00086FFFCCF8091C00080648093C0002092C1
:10E5D000C6008091C00086FFFCCF8091C00080649F
:10E5E0008093C00019828601750188249924A1E0D6
:10E5F0003A1651F03A1620F0B2E03B1661F409C029
:10E600000BBFF701779007C0C7010F9477FE782EF4
:10E6100002C0F7017080872D0F940DF22092C60082
:10E620008091C00086FFFCCF8091C0008064809301
:10E63000C000872D8052F401EF70F0708F3520F408
:10E64000E40DF51D708204C0E40DF51D8EE280839B
:10E650000894E11CF11C011D111D0894811C911CE2
:10E6600090E18916910409F0C2CF80E190E0A0E02A
:10E67000B0E0A80EB91ECA1EDB1E198AC2010F9493
:10E68000FAF10F94DCF16A94662009F072CF629679
:10E690000FB6F894DEBF0FBECDBFCF91DF911F91B3
:10E6A0000F91FF90EF90DF90CF90BF90AF909F9031
:10E6B0008F907F906F905F904F903F902F90089534
:10E6C0002F923F924F925F926F927F928F929F9282
:10E6D000AF92BF92CF92DF92EF92FF920F931F9370
:10E6E000DF93CF93CDB7DEB7CD53D1400FB6F894BB
:10E6F000DEBF0FBECDBF01E20EBF0FEF0DBF94B75F
:10E70000F894A89514BE80916000886180936000A1
:10E7100010926000789493FF05C0E0910002F091A0
:10E7200001021995279A2F9A8091C00082608093E8
:10E73000C00080E18093C40088E18093C1000000A4
:10E74000EE24FF24870144E0A42EB12CCC24DD2448
:10E7500024C0C5010197F1F70894E11CF11C011DCB
:10E76000111D21E2E2162EE4F20620E0020720E06D
:10E77000120718F031E0C32ED12CC801B70127ECE5
:10E780003BE140E050E00F9441FE611571058105C9
:10E79000910519F485B1805885B98091C00087FD35
:10E7A00003C0C114D104A9F2A6014F5F5F4FC25E3E
:10E7B000DE4F59834883CE51D140C25EDE4F8881FF
:10E7C0009981CE51D140019711F00D9410FEC05D9A
:10E7D000DE4F19821882C053D14060E0C15DDE4F28
:10E7E0001882CF52D14088249924C35DDE4F19820C
:10E7F0001882CD52D140C05EDE4F188219821A8233
:10E800001B82C052D140CE5CDE4F188219821A8220
:10E810001B82C253D140EE24FF2487010BBFF701B6
:10E8200007911691C45CDE4F19830883CC53D14005
:10E830000D940BFEC25EDE4F28813981CE51D1404E
:10E840002130310509F52091C600C25EDE4F1982E4
:10E850001882CE51D14022C02F5F3F4F4F4F5F4FA4
:10E86000213082E138078AE7480780E0580780F0C6
:10E87000C45CDE4FE881F981CC53D140EF5FFF4F9C
:10E8800019F0EE27FF27099420E030E040E050E047
:10E890008091C00087FFE0CF2091C600C35DDE4FAE
:10E8A00048815981CD52D1404F5F5F4FC35DDE4FEC
:10E8B00059834883CD52D140213209F063C64A3092
:10E8C000510508F05FC60894811C911C53E0851621
:10E8D000910409F059C600E010E018C081E280936D
:10E8E000C6008091C00086FFFCCF8091C00080648C
:10E8F0008093C0002F5F3F4F2931310579F70F9486
:10E90000DCF10F5F1F4F0530110519F020E030E0FA
:10E91000E5CF10920A0210920B0210920C02109294
:10E920000D02109206021092070210920802109235
:10E930000902109202021092030210920402109235
:10E9400005028FEE90EE60E00F94F5F180E191EE1C
:10E9500060E00F94C2F18091C00087FFFCCF9091DE
:10E96000C600903608F09F759032B8F09093C600BC
:10E970008091C00086FFFCCF8091C00080648093AE
:10E98000C000A0E2A093C6008091C00086FFFCCF2B
:10E990008091C00080648093C000983409F4D7C18E
:10E9A0009934B8F4923409F459C1933458F490333B
:10E9B00019F1903308F4E3C59F33A1F1903409F0C5
:10E9C000DEC5BDC0953409F470C1963409F0D7C5D1
:10E9D00098C1923509F42BC2933538F49C3409F46C
:10E9E000F5C1913509F0CBC518C2963509F445C279
:10E9F000993509F0C4C567C483E792EE62E00F94CD
:10EA0000F5F110920602109207021092080210927D
:10EA1000090210920A0210920B0210920C0210923C
:10EA20000D0213C18FE792EE62E00F94F5F18FEEC5
:10EA300090EE60E00F94F5F181E291EE60E00F94CA
:10EA4000C2F187EB91EE60E00F94F5F180E391EE77
:10EA500060E00F94C2F184EE90EE60E00F94F5F167
:10EA60008FE391EE60E00F94C2F186E090E061E008
:10EA700070E00F9434F20F94DCF18DE591EE60E0DC
:10EA80000F94C2F189EC91EE60E00F94F5F18EE401
:10EA900091EE60E00F94C2F183EC91EE60E00F9490
:10EAA000F5F18CE691EE60E00F94C2F18EE10F94E7
:10EAB0000DF288E90F940DF281E00F940DF20F949E
:10EAC000DCF18BE791EE60E00F94C2F119E0E0E039
:10EAD000F0E010935700E4918E2F0F940DF20F94F5
:10EAE000DCF18AE891EE60E00F94C2F1E3E0F0E03F
:10EAF00010935700E4918E2F0F940DF20F94DCF1D8
:10EB000089E991EE60E00F94C2F1E2E0F0E0109349
:10EB10005700E4918E2F0F940DF20F94DCF188EAE8
:10EB200091EE60E00F94C2F1E1E0F0E01093570045
:10EB30001491812F0F940DF20F94DCF107CF8BE825
:10EB400092EE62E00F94F5F18BE492EE60E00F94A8
:10EB5000F5F10F94DCF100E010E019C0C8016F2D51
:10EB60000F947FFEFF2031F489E492EE60E00F9471
:10EB7000C2F10BC0F092C6008091C00086FFFCCFAE
:10EB80008091C00080648093C0000F5F1F4FC80158
:10EB900081519F41A0E0B0E0ABBFFC01F790BAE229
:10EBA000FB1621F0E2E000301E07C1F60F94DCF105
:10EBB0000F94DCF187E592EE60E00F94F5F10F948D
:10EBC000DCF1CC24DD2400E010E01EC0C8010F946D
:10EBD00077FEF82E882331F489E492EE60E00F94FA
:10EBE000C2F10BC08093C6008091C00086FFFCCFAD
:10EBF0008091C00080648093C000FE1419F00894D6
:10EC0000C11CD11C0F5F1F4FC80181519F41A0E063
:10EC1000B0E0ABBFFC01E790FAE2EF1621F022E092
:10EC20000030120799F60F94DCF10F94DCF182E6C4
:10EC300092EE60E00F94C2F1C60161E070E00F94C3
:10EC400034F20F94DCF10F94DCF110920202109276
:10EC50000302109204021092050278CE89E992EE26
:10EC600062E00F94F5F1279A2F9A16C02F9880E052
:10EC700090E0E0EDF7E03197F1F7019684369105E9
:10EC8000C1F72F9A80E090E0E0EDF7E03197F1F7DF
:10EC9000019684369105C1F78091C00087FFE6CFC9
:10ECA0008091C00087FFFCCF64C485EA92EE62E0E9
:10ECB0000F94F5F140910202509103026091040219
:10ECC0007091050281E020E10F9491F2809102029F
:10ECD00090910302A0910402B091050280509F4FD1
:10ECE000AF4FBF4F8093020290930302A0930402A0
:10ECF000B093050280509041A040B04008F426CE69
:10ED0000A4CF83EB92EE62E00F94F5F140910602FE
:10ED100050910702609108027091090280E020E1A1
:10ED20000F9491F28091060290910702A09108023F
:10ED3000B091090280509F4FAF4FBF4F80930602A2
:10ED400090930702A0930802B0930902FFCD80ECD4
:10ED500092EE62E00F94F5F183E792EE60E00F949B
:10ED6000F5F18FE792EE60E00F94F5F18BE892EE0B
:10ED700060E00F94F5F189E992EE60E00F94F5F10F
:10ED800085EA92EE60E00F94F5F183EB92EE60E09D
:10ED90000F94F5F180EC92EE60E00F94F5F187ECC2
:10EDA00092EE60E00F94F5F188ED92EE60E00F9442
:10EDB000F5F18FED92EE60E00F94F5F18AEE92EEB0
:10EDC00060E00F94F5F183E093EEBDCD87EC92EE19
:10EDD00062E00F94F5F181E40F947BF282E40F94EA
:10EDE0007BF283E40F947BF284E40F947BF285E45E
:10EDF0000F947BF286E40F947BF287E40F947BF20E
:10EE000088E40F947BF28AE40F947BF28BE40F94F6
:10EE10007BF28CE40F947BF299CD88ED92EE62E068
:10EE20000F94F5F1772473948824992409C48FED05
:10EE300092EE62E00F94F5F140910A0250910B02BC
:10EE400060910C0270910D0282E020E10F9491F22A
:10EE500080910A0290910B02A0910C02B0910D02D8
:10EE600080509F4FAF4FBF4F80930A0290930B0289
:10EE7000A0930C02B0930D0269CD8AEE92EE62E08F
:10EE80000F94F5F184EE90EE60E00F94F5F18FECC5
:10EE900091EE60E00F94F5F1662477244301CC5D98
:10EEA000DE4F19821882C452D140D401C301B695F5
:10EEB000A79597958795CA5DDE4F88839983AA8326
:10EEC000BB83C652D140CC5DDE4FA881B981C4520C
:10EED000D1401196CC5DDE4FB983A883C452D14096
:10EEE000CD0162E070E00F9434F2B0E2B093C6005E
:10EEF0008091C00086FFFCCF8091C0008064809329
:10EF0000C000EDE2E093C6008091C00086FFFCCF18
:10EF10008091C00080648093C000F0E2F093C6004E
:10EF20008091C00086FFFCCF8091C00080648093F8
:10EF3000C000CA5DDE4FE880F9800A811B81C6529D
:10EF4000D140BB27A12F902F8F2D0F940DF2CA5DBA
:10EF5000DE4F8881C652D1400F940DF2B0E2FB2EF5
:10EF6000F092C6008091C00086FFFCCF8091C00067
:10EF700080648093C0000DE30093C6008091C000C0
:10EF800086FFFCCF8091C00080648093C00010E2B7
:10EF90001093C6008091C00086FFFCCF8091C00016
:10EFA00080648093C0008BBEF3012791C65DDE4F65
:10EFB0002883CA52D140A22EBB24CC24DD2408943D
:10EFC000611C711C811C911C8BBEF3018791282E42
:10EFD0003324442455240894611C711C811C911C09
:10EFE0008BBEF3013791C55DDE4F3883CB52D140E4
:10EFF0000894611C711C811C911C8BBEF30147910C
:10F00000C45DDE4F4883CC52D140ADEFEA2EAFEF66
:10F01000FA2EAFEF0A2FAFEF1A2F6E0C7F1C801E57
:10F02000911E142D032DF22CEE24EA0CFB1C0C1D5A
:10F030001D1D0F940DF220E22093C6008091C000A8
:10F0400086FFFCCF8091C00080648093C000C65DC5
:10F05000DE4F8881CA52D1400F940DF230E23093D6
:10F06000C6008091C00086FFFCCF8091C000806404
:10F070008093C000C45DDE4F8881CC52D1400F9494
:10F080000DF240E24093C6008091C00086FFFCCFA5
:10F090008091C00080648093C000C55DDE4F888190
:10F0A000CB52D1400F940DF250E25093C6008091A4
:10F0B000C00086FFFCCF8091C00080648093C000B8
:10F0C0008FEFE8168FEFF80680E0080780E018075A
:10F0D00031F484E092EE60E00F94C2F1DFC0D80119
:10F0E000C7018070907CA070B0708050904CA040A0
:10F0F000B040D1F52FEF3FE340E050E0E222F322B1
:10F1000004231523CA5DDE4FA880B980CA80DB8046
:10F11000C652D140AE0CBF1CC01ED11EAA0CBB1CD7
:10F12000CC1CDD1C8EE092EE60E00F94C2F1BB2798
:10F13000A12F902F8F2D0F940DF28E2D0F940DF285
:10F1400030E23093C6008091C00086FFFCCF8091F2
:10F15000C00080648093C0004EE34093C60080915D
:10F16000C00086FFFCCF87C08EE09EEFA0E0B0E03D
:10F17000E822F9220A231B239CE0E91694E9F90608
:10F1800090E0090790E0190709F088C0C45DDE4FE0
:10F19000A881CC52D140EA2EFF2400E010E0102FCD
:10F1A0000F2DFE2CEE24C55DDE4FB881CB52D14031
:10F1B000EB0EF11C011D111DD601C501817090706F
:10F1C000A070B070DC0199278827E80EF91E0A1F8D
:10F1D0001B1F20EF30E040E050E0A222B322C42207
:10F1E000D52241E1AA0CBB1CCC1CDD1C4A95D1F7F1
:10F1F000EA0CFB1C0C1D1D1D81E090E0A0E0B0E0BE
:10F20000282239224A225B2235E1220C331C441C7D
:10F21000551C3A95D1F7E20CF31C041D151D57013E
:10F220006801AA0CBB1CCC1CDD1C85E192EE60E0E1
:10F230000F94C2F1C801AA27BB270F940DF2BB2778
:10F24000A12F902F8F2D0F940DF28E2D0F940DF274
:10F2500090E29093C6008091C00086FFFCCF809121
:10F26000C00080648093C000AEE3A093C60080918C
:10F27000C00086FFFCCF8091C00080648093C000F6
:10F28000C601AA27BB270F940DF2BB27AD2D9C2DDD
:10F290008B2D0F940DF28A2D0F940DF20F94DCF14B
:10F2A000CC5DDE4FE881F981C452D140F99709F471
:10F2B0004DCBF4E0EF2EF12C012D112D6E0C7F1CA7
:10F2C000801E911EF2CD83E093EE62E00F94F5F183
:10F2D0008AE192EE60E00F94C2F18091C00087FF56
:10F2E000FCCF1091C6001F751093C6008091C0001E
:10F2F00086FFFCCF8091C00080648093C0000F9493
:10F30000DCF1812F81548A3108F036C1163409F4BA
:10F3100095C0173490F4133409F44EC0143430F40B
:10F320001134F1F0123409F01DC130C0143409F465
:10F3300059C0153409F016C16BC01A3409F4C4C0A1
:10F340001B3438F4173409F48FC0183409F00AC19B
:10F35000A1C01B3409F4D2C01C3409F003C1E8C0B9
:10F360008FEF81B90DC082B1809582B980E090E0C5
:10F37000E0EDF7E03197F1F70196883C9105C1F790
:10F380008091C00087FFEFCF12B8EFC08FEF84B934
:10F390000DC085B1809585B980E090E0E0EDF7E0A3
:10F3A0003197F1F70196883C9105C1F78091C00033
:10F3B00087FFEFCF15B8D9C08FEF87B90DC088B1DF
:10F3C000809588B980E090E0E0EDF7E03197F1F7C3
:10F3D0000196883C9105C1F78091C00087FFEFCF6F
:10F3E00018B8C3C08FEF8AB90DC08BB180958BB9A7
:10F3F00080E090E0E0EDF7E03197F1F70196883C8E
:10F400009105C1F78091C00087FFEFCF1BB8ADC059
:10F410008FEF8DB90DC08EB180958EB980E090E0F0
:10F42000E0EDF7E03197F1F70196883C9105C1F7DF
:10F430008091C00087FFEFCF1EB897C08FEF80BBD1
:10F440000DC081B3809581BB80E090E0E0EDF7E0F6
:10F450003197F1F70196883C9105C1F78091C00082
:10F4600087FFEFCF11BA81C08FEF83BB0DC084B38C
:10F47000809584BB80E090E0E0EDF7E03197F1F714
:10F480000196883C9105C1F78091C00087FFEFCFBE
:10F4900014BA6BC08FEF809301010FC080910201FD
:10F4A00080958093020180E090E0E0EDF7E03197F5
:10F4B000F1F70196883C9105C1F78091C00087FF64
:10F4C000EDCF1092020151C08FEF809304010FC065
:10F4D0008091050180958093050180E090E0E0ED4A
:10F4E000F7E03197F1F70196883C9105C1F78091DB
:10F4F000C00087FFEDCF1092050137C08FEF8093DA
:10F5000007010FC08091080180958093080180E079
:10F5100090E0E0EDF7E03197F1F70196883C910536
:10F52000C1F78091C00087FFEDCF109208011DC088
:10F530008FEF80930A010FC080910B01809580931B
:10F540000B0180E090E0E0EDF7E03197F1F70196F4
:10F55000883C9105C1F78091C00087FFEDCF1092E4
:10F560000B0103C085E292EEEEC98091C00087FFD7
:10F57000FCCF8091C600EAC988E392EEE4C98CE131
:10F5800091EEE1C988249924933011F1943028F444
:10F59000913089F09230B8F408C0953061F195301F
:10F5A000F0F0963009F048C043C02B3109F042C951
:10F5B00091E06BE13FC96227C15DDE4F2883CF52E6
:10F5C000D14092E037C9B22FA0E0622793E032C960
:10F5D000822F90E0A82BB92B622794E02BC92E3004
:10F5E00009F039C3622795E0C05DDE4F19821882A9
:10F5F000C053D1401FC9E1E0F0E0EC0FFD1FC05D3A
:10F60000DE4F08811981C053D140E00FF11F2083E4
:10F610000F5F1F4FC05DDE4F19830883C053D14079
:10F6200062270A171B0709F005C9D80196E002C92D
:10F63000261709F010C303C0973009F0FBC87724E0
:10F640009981933109F412C19431C8F4963009F4C8
:10F65000D8C0973050F4923009F406C1933009F4C1
:10F660006DC0913009F059C253C0913109F477C08F
:10F67000923108F0BBC0903109F04FC2F5C098310B
:10F6800009F487C0993150F4953109F4EFC09531F0
:10F6900008F4C6C1963109F040C2C2C19A3109F4DA
:10F6A0006CC09A3108F491C09B3109F45BC09D3164
:10F6B00009F033C29D81903359F48F81882311F46E
:10F6C0009EE11CC0813011F091E018C098E916C08D
:10F6D000892F807591F0903539F4E0E0F0E089E011
:10F6E0008093570094910AC0983539F4E3E0F0E034
:10F6F00089E080935700949101C090E01A821B82A8
:10F700008D818C831D829E831F8227E030E009C299
:10F710001A8288E08B8381E48C8386E58D8382E581
:10F720008E8389E48F8383E5888780E589878FE5E9
:10F730008A8782E38B872BE030E0F3C18A818139AD
:10F7400041F0823941F0803911F48FE005C080E04A
:10F7500003C082E001C08AE01A828B8344C0772410
:10F76000739482C08D81882311F48EE12CC0813086
:10F7700011F081E028C088E926C01A82E1E0F0E0BB
:10F7800089E08093570084918B831C8224E030E0D1
:10F79000C8C18B81803589F48C81883039F4E2E0EE
:10F7A000F0E089E08093570084910DC0E0E0F0E044
:10F7B00089E080935700849106C0E3E0F0E089E09F
:10F7C0008093570084911A82DFCF8D81836C99E0FA
:10F7D000E1E0F0E0082E90935700E89507B600FCB2
:10F7E000FDCF1A821B8223E030E09BC180EC8A832C
:10F7F000CE5CDE4F188219821A821B82C253D1401E
:10F800008EC18A8190E0A0E0B0E0582F44273327D2
:10F8100022278B8190E0A0E0B0E0DC0199278827C7
:10F82000282B392B4A2B5B2B8D8190E0A0E0B0E098
:10F83000282B392B4A2B5B2B8C8190E0A0E0B0E089
:10F84000BA2FA92F982F8827282B392B4A2B5B2BCF
:10F85000220F331F441F551FC05EDE4F288339839C
:10F860004A835B83C052D1401A8259C13A81C95C34
:10F87000DE4F3883C753D140CA5CDE4F1882C6536F
:10F88000D1408B81C82EDD24CA5CDE4F488159816E
:10F89000C653D140C42AD52A933109F082C0CE5C28
:10F8A000DE4F88819981AA81BB81C253D1408050AB
:10F8B000904CA340B04030F583E0CE5CDE4FE88052
:10F8C000F9800A811B81C253D140F70100935B008C
:10F8D00080935700E89507B600FCFDCFCE5CDE4F65
:10F8E000088119812A813B81C253D14000501F4FAA
:10F8F0002F4F3F4FCE5CDE4F088319832A833B8313
:10F90000C253D140C05EDE4F488159816A817B81FC
:10F91000C052D140DE011B9631E08C9111962C91A2
:10F9200011971296C75CDE4F2883C953D140C85C3B
:10F93000DE4F1882C853D14090E0C85CDE4FE881AA
:10F94000F981C853D1408E2B9F2B0C01FA01609393
:10F950005B0030935700E89511244E5F5F4F6F4F67
:10F960007F4F0EEFE02E0FEFF02ECE0CDF1CC114F8
:10F97000D10499F685E0C05EDE4F088119812A81A5
:10F980003B81C052D140F80120935B008093570027
:10F99000E89507B600FCFDCF81E180935700E8951C
:10F9A00035C0C05EDE4F88819981AA81BB81C0527B
:10F9B000D140B695A795979587957C018601ABE0D8
:10F9C000AA2EB12CAC0EBD1E0BC0D5016D915D01F0
:10F9D000C7010F947FFE0894E11CF11C01501040F8
:10F9E0000115110591F7A60160E070E0440F551F65
:10F9F000661F771FC05EDE4FE880F9800A811B8199
:10FA0000C052D1404E0D5F1D601F711F1A82C05E33
:10FA1000DE4F488359836A837B83C052D1407FC0C5
:10FA2000FA80C55CDE4FF882CB53D140C65CDE4F16
:10FA30001882CA53D1408B81C82EDD24C65CDE4FAC
:10FA400008811981CA53D140C02AD12A1A828981DA
:10FA5000BE016D5F7F4F843121F59601C05EDE4FA0
:10FA6000E880F9800A811B81C052D1400BBFF701A9
:10FA700087919691DB018C9311969C936E5F7F4FDB
:10FA8000D801C7010296A11DB11DC05EDE4F88835B
:10FA90009983AA83BB83C052D14022503040F1F6F3
:10FAA00036C0C05EDE4F288139814A815B81C052F9
:10FAB000D1400894C108D108760100E010E0089414
:10FAC000C11CD11C0894E11CF11C011D111DE20E8A
:10FAD000F31E041F151F21BDBB27A52F942F832FB5
:10FAE00082BD2F5F3F4F4F4F5F4FF89A80B5DB01CC
:10FAF0008D93BD012E153F054007510761F7C05E8C
:10FB0000DE4F288339834A835B83C052D1409601FC
:10FB10002D5F3F4FFB01108204C080EC8A8322E0FE
:10FB200030E08BE18093C6008091C00086FFFCCF5F
:10FB30008091C00080648093C000C15DDE4FF88179
:10FB4000CF52D140F093C6008091C00086FFFCCF19
:10FB50008091C00080648093C000432F3093C60022
:10FB60008091C00086FFFCCF8091C00080648093AC
:10FB7000C000922F2093C6008091C00086FFFCCF6A
:10FB80008091C00080648093C0008EE08093C600A6
:10FB90008091C00086FFFCCF8091C000806480937C
:10FBA000C00065E1C15DDE4FE880CF52D1406E25D7
:10FBB00069276427FE01319610C090819093C6009A
:10FBC0008091C00086FFFCCF31968091C000806498
:10FBD0008093C0006927215030402115310569F715
:10FBE0006093C6008091C00086FFFCCF8091C0006A
:10FBF00080648093C00085B1805885B9772081F4F6
:10FC0000C15DDE4F0881CF52D1400F5FC15DDE4F35
:10FC10000883CF52D14090E0A0E0B0E00D941AF4F8
:10FC200027982F9880E090E020ED37E0F901319798
:10FC3000F1F7019684369105C9F700008091C00064
:10FC40008D7F8093C00081E180935700E895EE2777
:10FC5000FF270994FFCF90E00D941AF497FB092E2B
:10FC600007260AD077FD04D02ED006D000201AF443
:10FC7000709561957F4F0895F6F7909581959F4F08
:10FC80000895A1E21A2EAA1BBB1BFD010DC0AA1FDD
:10FC9000BB1FEE1FFF1FA217B307E407F50720F0F5
:10FCA000A21BB30BE40BF50B661F771F881F991F70
:10FCB0001A9469F760957095809590959B01AC01B9
:10FCC000BD01CF010895AA1BBB1B51E107C0AA1FAC
:10FCD000BB1FA617B70710F0A61BB70B881F991FED
:10FCE0005A95A9F780959095BC01CD010895F99991
:10FCF000FECF92BD81BDF89A992780B50895262F31
:10FD0000F999FECF1FBA92BD81BD20BD0FB6F89400
:0EFD1000FA9AF99A0FBE01960895F894FFCF63
:040000033000E000E9
:00000001FF